{"contracts/LeaseManager.sol":{"LeaseManager":{"abi":[{"inputs":[{"internalType":"address","name":"propertyRegistry","type":"address"}],"stateMutability":"nonpayable","type":"constructor"},{"inputs":[{"internalType":"address","name":"owner","type":"address"}],"name":"OwnableInvalidOwner","type":"error"},{"inputs":[{"internalType":"address","name":"account","type":"address"}],"name":"OwnableUnauthorizedAccount","type":"error"},{"inputs":[],"name":"ReentrancyGuardReentrantCall","type":"error"},{"anonymous":false,"inputs":[{"indexed":false,"internalType":"uint256","name":"leaseId","type":"uint256"},{"indexed":false,"internalType":"uint256","name":"amount","type":"uint256"}],"name":"DepositPaid","type":"event"},{"anonymous":false,"inputs":[{"indexed":false,"internalType":"uint256","name":"leaseId","type":"uint256"},{"indexed":false,"internalType":"uint256","name":"propertyId","type":"uint256"},{"indexed":false,"internalType":"address","name":"tenant","type":"address"}],"name":"LeaseCreated","type":"event"},{"anonymous":false,"inputs":[{"indexed":false,"internalType":"uint256","name":"leaseId","type":"uint256"}],"name":"LeaseEnded","type":"event"},{"anonymous":false,"inputs":[{"indexed":true,"internalType":"address","name":"previousOwner","type":"address"},{"indexed":true,"internalType":"address","name":"newOwner","type":"address"}],"name":"OwnershipTransferred","type":"event"},{"anonymous":false,"inputs":[{"indexed":false,"internalType":"uint256","name":"leaseId","type":"uint256"},{"indexed":false,"internalType":"uint256","name":"amount","type":"uint256"}],"name":"RentPaid","type":"event"},{"inputs":[{"internalType":"uint256","name":"propertyId","type":"uint256"},{"internalType":"address","name":"tenant","type":"address"},{"internalType":"address","name":"payToken","type":"address"},{"internalType":"uint256","name":"rentAmount","type":"uint256"},{"internalType":"uint256","name":"depositAmount","type":"uint256"},{"internalType":"string","name":"docCID","type":"string"}],"name":"createLease","outputs":[{"internalType":"uint256","name":"id","type":"uint256"}],"stateMutability":"nonpayable","type":"function"},{"inputs":[{"internalType":"uint256","name":"","type":"uint256"}],"name":"deposits","outputs":[{"internalType":"uint256","name":"","type":"uint256"}],"stateMutability":"view","type":"function"},{"inputs":[{"internalType":"uint256","name":"leaseId","type":"uint256"},{"internalType":"bool","name":"slashDeposit","type":"bool"},{"internalType":"address","name":"to","type":"address"}],"name":"endLease","outputs":[],"stateMutability":"nonpayable","type":"function"},{"inputs":[{"internalType":"uint256","name":"","type":"uint256"}],"name":"leases","outputs":[{"internalType":"uint256","name":"propertyId","type":"uint256"},{"internalType":"address","name":"landlord","type":"address"},{"internalType":"address","name":"tenant","type":"address"},{"internalType":"address","name":"payToken","type":"address"},{"internalType":"uint256","name":"rentAmount","type":"uint256"},{"internalType":"uint256","name":"depositAmount","type":"uint256"},{"internalType":"string","name":"docCID","type":"string"},{"internalType":"enum LeaseManager.Status","name":"status","type":"uint8"}],"stateMutability":"view","type":"function"},{"inputs":[],"name":"nextLeaseId","outputs":[{"internalType":"uint256","name":"","type":"uint256"}],"stateMutability":"view","type":"function"},{"inputs":[],"name":"owner","outputs":[{"internalType":"address","name":"","type":"address"}],"stateMutability":"view","type":"function"},{"inputs":[{"internalType":"uint256","name":"leaseId","type":"uint256"}],"name":"payDeposit","outputs":[],"stateMutability":"nonpayable","type":"function"},{"inputs":[{"internalType":"uint256","name":"leaseId","type":"uint256"}],"name":"payRent","outputs":[],"stateMutability":"nonpayable","type":"function"},{"inputs":[],"name":"registry","outputs":[{"internalType":"contract IERC721","name":"","type":"address"}],"stateMutability":"view","type":"function"},{"inputs":[],"name":"renounceOwnership","outputs":[],"stateMutability":"nonpayable","type":"function"},{"inputs":[{"internalType":"address","name":"newOwner","type":"address"}],"name":"transferOwnership","outputs":[],"stateMutability":"nonpayable","type":"function"}],"evm":{"bytecode":{"linkReferences":{},"object":"60a06040523480156200001157600080fd5b5060405162001fb138038062001fb1833981810160405281019062000037919062000232565b336001600081905550600073ffffffffffffffffffffffffffffffffffffffff168173ffffffffffffffffffffffffffffffffffffffff1603620000b55760006040517f1e4fbdf7000000000000000000000000000000000000000000000000000000008152600401620000ac919062000275565b60405180910390fd5b620000c6816200010260201b60201c565b508073ffffffffffffffffffffffffffffffffffffffff1660808173ffffffffffffffffffffffffffffffffffffffff16815250505062000292565b6000600160009054906101000a900473ffffffffffffffffffffffffffffffffffffffff16905081600160006101000a81548173ffffffffffffffffffffffffffffffffffffffff021916908373ffffffffffffffffffffffffffffffffffffffff1602179055508173ffffffffffffffffffffffffffffffffffffffff168173ffffffffffffffffffffffffffffffffffffffff167f8be0079c531659141344cd1fd0a4f28419497f9722a3daafe3b4186f6b6457e060405160405180910390a35050565b600080fd5b600073ffffffffffffffffffffffffffffffffffffffff82169050919050565b6000620001fa82620001cd565b9050919050565b6200020c81620001ed565b81146200021857600080fd5b50565b6000815190506200022c8162000201565b92915050565b6000602082840312156200024b576200024a620001c8565b5b60006200025b848285016200021b565b91505092915050565b6200026f81620001ed565b82525050565b60006020820190506200028c600083018462000264565b92915050565b608051611cfc620002b56000396000818161023401526108060152611cfc6000f3fe608060405234801561001057600080fd5b50600436106100a95760003560e01c80638da5cb5b116100715780638da5cb5b14610159578063902238e1146101775780639125d19314610195578063b02c43d0146101b1578063d9e8843f146101e1578063f2fde38b146101fd576100a9565b806318a62cc6146100ae57806328cd3f18146100de578063715018a6146100fa5780637b103999146101045780638927a10614610122575b600080fd5b6100c860048036038101906100c391906111ca565b610219565b6040516100d59190611288565b60405180910390f35b6100f860048036038101906100f391906112a3565b6105a1565b005b6101026107f0565b005b61010c610804565b604051610119919061132f565b60405180910390f35b61013c600480360381019061013791906112a3565b610828565b604051610150989796959493929190611460565b60405180910390f35b610161610965565b60405161016e91906114e5565b60405180910390f35b61017f61098f565b60405161018c9190611288565b60405180910390f35b6101af60048036038101906101aa9190611538565b610995565b005b6101cb60048036038101906101c691906112a3565b610c45565b6040516101d89190611288565b60405180910390f35b6101fb60048036038101906101f691906112a3565b610c5d565b005b6102176004803603810190610212919061158b565b610e9c565b005b60003373ffffffffffffffffffffffffffffffffffffffff167f000000000000000000000000000000000000000000000000000000000000000073ffffffffffffffffffffffffffffffffffffffff16636352211e8a6040518263ffffffff1660e01b815260040161028b9190611288565b602060405180830381865afa1580156102a8573d6000803e3d6000fd5b505050506040513d601f19601f820116820180604052508101906102cc91906115cd565b73ffffffffffffffffffffffffffffffffffffffff1614610322576040517f08c379a000000000000000000000000000000000000000000000000000000000815260040161031990611646565b60405180910390fd5b60026000815461033190611695565b91905081905590506040518061010001604052808981526020013373ffffffffffffffffffffffffffffffffffffffff1681526020018873ffffffffffffffffffffffffffffffffffffffff1681526020018773ffffffffffffffffffffffffffffffffffffffff16815260200186815260200185815260200184848080601f016020809104026020016040519081016040528093929190818152602001838380828437600081840152601f19601f82011690508083019250505050505050815260200160016002811115610409576104086113e9565b5b815250600360008381526020019081526020016000206000820151816000015560208201518160010160006101000a81548173ffffffffffffffffffffffffffffffffffffffff021916908373ffffffffffffffffffffffffffffffffffffffff16021790555060408201518160020160006101000a81548173ffffffffffffffffffffffffffffffffffffffff021916908373ffffffffffffffffffffffffffffffffffffffff16021790555060608201518160030160006101000a81548173ffffffffffffffffffffffffffffffffffffffff021916908373ffffffffffffffffffffffffffffffffffffffff1602179055506080820151816004015560a0820151816005015560c0820151816006019081610527919061190e565b5060e08201518160070160006101000a81548160ff02191690836002811115610553576105526113e9565b5b02179055509050507f1db52a0ba6f5fba35e5fcc79db7884472359c375c118aa57cc7094b4e1b750e581898960405161058e939291906119e0565b60405180910390a1979650505050505050565b6105a9610f22565b6000600360008381526020019081526020016000209050600160028111156105d4576105d36113e9565b5b8160070160009054906101000a900460ff1660028111156105f8576105f76113e9565b5b14610638576040517f08c379a000000000000000000000000000000000000000000000000000000000815260040161062f90611a63565b60405180910390fd5b8060020160009054906101000a900473ffffffffffffffffffffffffffffffffffffffff1673ffffffffffffffffffffffffffffffffffffffff163373ffffffffffffffffffffffffffffffffffffffff16146106ca576040517f08c379a00000000000000000000000000000000000000000000000000000000081526004016106c190611acf565b60405180910390fd5b60008160030160009054906101000a900473ffffffffffffffffffffffffffffffffffffffff1690508073ffffffffffffffffffffffffffffffffffffffff166323b872dd333085600501546040518463ffffffff1660e01b815260040161073493929190611aef565b6020604051808303816000875af1158015610753573d6000803e3d6000fd5b505050506040513d601f19601f820116820180604052508101906107779190611b3b565b50816005015460046000858152602001908152602001600020600082825461079f9190611b68565b925050819055507fe3b7e5288074dee4d23f003d2d7686f455eb077b82960d0bc06440e01e3a2ba78383600501546040516107db929190611b9c565b60405180910390a150506107ed610f68565b50565b6107f8610f72565b6108026000610ff9565b565b7f000000000000000000000000000000000000000000000000000000000000000081565b60036020528060005260406000206000915090508060000154908060010160009054906101000a900473ffffffffffffffffffffffffffffffffffffffff16908060020160009054906101000a900473ffffffffffffffffffffffffffffffffffffffff16908060030160009054906101000a900473ffffffffffffffffffffffffffffffffffffffff16908060040154908060050154908060060180546108cf9061173b565b80601f01602080910402602001604051908101604052809291908181526020018280546108fb9061173b565b80156109485780601f1061091d57610100808354040283529160200191610948565b820191906000526020600020905b81548152906001019060200180831161092b57829003601f168201915b5050505050908060070160009054906101000a900460ff16905088565b6000600160009054906101000a900473ffffffffffffffffffffffffffffffffffffffff16905090565b60025481565b61099d610f22565b60006003600085815260200190815260200160002090508060010160009054906101000a900473ffffffffffffffffffffffffffffffffffffffff1673ffffffffffffffffffffffffffffffffffffffff163373ffffffffffffffffffffffffffffffffffffffff1614610a46576040517f08c379a0000000000000000000000000000000000000000000000000000000008152600401610a3d90611c11565b60405180910390fd5b60016002811115610a5a57610a596113e9565b5b8160070160009054906101000a900460ff166002811115610a7e57610a7d6113e9565b5b14610abe576040517f08c379a0000000000000000000000000000000000000000000000000000000008152600401610ab590611c7d565b60405180910390fd5b60028160070160006101000a81548160ff02191690836002811115610ae657610ae56113e9565b5b021790555060006004600086815260200190815260200160002054905060006004600087815260200190815260200160002081905550600084610b295783610b4f565b8260010160009054906101000a900473ffffffffffffffffffffffffffffffffffffffff165b90506000821115610bfe578260030160009054906101000a900473ffffffffffffffffffffffffffffffffffffffff1673ffffffffffffffffffffffffffffffffffffffff1663a9059cbb82846040518363ffffffff1660e01b8152600401610bb9929190611c9d565b6020604051808303816000875af1158015610bd8573d6000803e3d6000fd5b505050506040513d601f19601f82011682018060405250810190610bfc9190611b3b565b505b7f9bbc71338da3ea3da7477f5960427aa0fe6e98aeced78a369dd1b4357a50b9f186604051610c2d9190611288565b60405180910390a1505050610c40610f68565b505050565b60046020528060005260406000206000915090505481565b610c65610f22565b600060036000838152602001908152602001600020905060016002811115610c9057610c8f6113e9565b5b8160070160009054906101000a900460ff166002811115610cb457610cb36113e9565b5b14610cf4576040517f08c379a0000000000000000000000000000000000000000000000000000000008152600401610ceb90611a63565b60405180910390fd5b8060020160009054906101000a900473ffffffffffffffffffffffffffffffffffffffff1673ffffffffffffffffffffffffffffffffffffffff163373ffffffffffffffffffffffffffffffffffffffff1614610d86576040517f08c379a0000000000000000000000000000000000000000000000000000000008152600401610d7d90611acf565b60405180910390fd5b8060030160009054906101000a900473ffffffffffffffffffffffffffffffffffffffff1673ffffffffffffffffffffffffffffffffffffffff166323b872dd338360010160009054906101000a900473ffffffffffffffffffffffffffffffffffffffff1684600401546040518463ffffffff1660e01b8152600401610e0f93929190611aef565b6020604051808303816000875af1158015610e2e573d6000803e3d6000fd5b505050506040513d601f19601f82011682018060405250810190610e529190611b3b565b507fa0d112ed080c1b1a94b838ad981a23746be2a4670fd4bf157224e72cdd5dfdde828260040154604051610e88929190611b9c565b60405180910390a150610e99610f68565b50565b610ea4610f72565b600073ffffffffffffffffffffffffffffffffffffffff168173ffffffffffffffffffffffffffffffffffffffff1603610f165760006040517f1e4fbdf7000000000000000000000000000000000000000000000000000000008152600401610f0d91906114e5565b60405180910390fd5b610f1f81610ff9565b50565b600260005403610f5e576040517f3ee5aeb500000000000000000000000000000000000000000000000000000000815260040160405180910390fd5b6002600081905550565b6001600081905550565b610f7a6110bf565b73ffffffffffffffffffffffffffffffffffffffff16610f98610965565b73ffffffffffffffffffffffffffffffffffffffff1614610ff757610fbb6110bf565b6040517f118cdaa7000000000000000000000000000000000000000000000000000000008152600401610fee91906114e5565b60405180910390fd5b565b6000600160009054906101000a900473ffffffffffffffffffffffffffffffffffffffff16905081600160006101000a81548173ffffffffffffffffffffffffffffffffffffffff021916908373ffffffffffffffffffffffffffffffffffffffff1602179055508173ffffffffffffffffffffffffffffffffffffffff168173ffffffffffffffffffffffffffffffffffffffff167f8be0079c531659141344cd1fd0a4f28419497f9722a3daafe3b4186f6b6457e060405160405180910390a35050565b600033905090565b600080fd5b600080fd5b6000819050919050565b6110e4816110d1565b81146110ef57600080fd5b50565b600081359050611101816110db565b92915050565b600073ffffffffffffffffffffffffffffffffffffffff82169050919050565b600061113282611107565b9050919050565b61114281611127565b811461114d57600080fd5b50565b60008135905061115f81611139565b92915050565b600080fd5b600080fd5b600080fd5b60008083601f84011261118a57611189611165565b5b8235905067ffffffffffffffff8111156111a7576111a661116a565b5b6020830191508360018202830111156111c3576111c261116f565b5b9250929050565b600080600080600080600060c0888a0312156111e9576111e86110c7565b5b60006111f78a828b016110f2565b97505060206112088a828b01611150565b96505060406112198a828b01611150565b955050606061122a8a828b016110f2565b945050608061123b8a828b016110f2565b93505060a088013567ffffffffffffffff81111561125c5761125b6110cc565b5b6112688a828b01611174565b925092505092959891949750929550565b611282816110d1565b82525050565b600060208201905061129d6000830184611279565b92915050565b6000602082840312156112b9576112b86110c7565b5b60006112c7848285016110f2565b91505092915050565b6000819050919050565b60006112f56112f06112eb84611107565b6112d0565b611107565b9050919050565b6000611307826112da565b9050919050565b6000611319826112fc565b9050919050565b6113298161130e565b82525050565b60006020820190506113446000830184611320565b92915050565b61135381611127565b82525050565b600081519050919050565b600082825260208201905092915050565b60005b83811015611393578082015181840152602081019050611378565b60008484015250505050565b6000601f19601f8301169050919050565b60006113bb82611359565b6113c58185611364565b93506113d5818560208601611375565b6113de8161139f565b840191505092915050565b7f4e487b7100000000000000000000000000000000000000000000000000000000600052602160045260246000fd5b60038110611429576114286113e9565b5b50565b600081905061143a82611418565b919050565b600061144a8261142c565b9050919050565b61145a8161143f565b82525050565b600061010082019050611476600083018b611279565b611483602083018a61134a565b611490604083018961134a565b61149d606083018861134a565b6114aa6080830187611279565b6114b760a0830186611279565b81810360c08301526114c981856113b0565b90506114d860e0830184611451565b9998505050505050505050565b60006020820190506114fa600083018461134a565b92915050565b60008115159050919050565b61151581611500565b811461152057600080fd5b50565b6000813590506115328161150c565b92915050565b600080600060608486031215611551576115506110c7565b5b600061155f868287016110f2565b935050602061157086828701611523565b925050604061158186828701611150565b9150509250925092565b6000602082840312156115a1576115a06110c7565b5b60006115af84828501611150565b91505092915050565b6000815190506115c781611139565b92915050565b6000602082840312156115e3576115e26110c7565b5b60006115f1848285016115b8565b91505092915050565b7f4e6f742070726f7065727479206f776e65720000000000000000000000000000600082015250565b6000611630601283611364565b915061163b826115fa565b602082019050919050565b6000602082019050818103600083015261165f81611623565b9050919050565b7f4e487b7100000000000000000000000000000000000000000000000000000000600052601160045260246000fd5b60006116a0826110d1565b91507fffffffffffffffffffffffffffffffffffffffffffffffffffffffffffffffff82036116d2576116d1611666565b5b600182019050919050565b7f4e487b7100000000000000000000000000000000000000000000000000000000600052604160045260246000fd5b7f4e487b7100000000000000000000000000000000000000000000000000000000600052602260045260246000fd5b6000600282049050600182168061175357607f821691505b6020821081036117665761176561170c565b5b50919050565b60008190508160005260206000209050919050565b60006020601f8301049050919050565b600082821b905092915050565b6000600883026117ce7fffffffffffffffffffffffffffffffffffffffffffffffffffffffffffffffff82611791565b6117d88683611791565b95508019841693508086168417925050509392505050565b600061180b611806611801846110d1565b6112d0565b6110d1565b9050919050565b6000819050919050565b611825836117f0565b61183961183182611812565b84845461179e565b825550505050565b600090565b61184e611841565b61185981848461181c565b505050565b5b8181101561187d57611872600082611846565b60018101905061185f565b5050565b601f8211156118c2576118938161176c565b61189c84611781565b810160208510156118ab578190505b6118bf6118b785611781565b83018261185e565b50505b505050565b600082821c905092915050565b60006118e5600019846008026118c7565b1980831691505092915050565b60006118fe83836118d4565b9150826002028217905092915050565b61191782611359565b67ffffffffffffffff8111156119305761192f6116dd565b5b61193a825461173b565b611945828285611881565b600060209050601f8311600181146119785760008415611966578287015190505b61197085826118f2565b8655506119d8565b601f1984166119868661176c565b60005b828110156119ae57848901518255600182019150602085019450602081019050611989565b868310156119cb57848901516119c7601f8916826118d4565b8355505b6001600288020188555050505b505050505050565b60006060820190506119f56000830186611279565b611a026020830185611279565b611a0f604083018461134a565b949350505050565b7f496e616374697665000000000000000000000000000000000000000000000000600082015250565b6000611a4d600883611364565b9150611a5882611a17565b602082019050919050565b60006020820190508181036000830152611a7c81611a40565b9050919050565b7f4f6e6c792074656e616e74000000000000000000000000000000000000000000600082015250565b6000611ab9600b83611364565b9150611ac482611a83565b602082019050919050565b60006020820190508181036000830152611ae881611aac565b9050919050565b6000606082019050611b04600083018661134a565b611b11602083018561134a565b611b1e6040830184611279565b949350505050565b600081519050611b358161150c565b92915050565b600060208284031215611b5157611b506110c7565b5b6000611b5f84828501611b26565b91505092915050565b6000611b73826110d1565b9150611b7e836110d1565b9250828201905080821115611b9657611b95611666565b5b92915050565b6000604082019050611bb16000830185611279565b611bbe6020830184611279565b9392505050565b7f4f6e6c79206c616e646c6f726400000000000000000000000000000000000000600082015250565b6000611bfb600d83611364565b9150611c0682611bc5565b602082019050919050565b60006020820190508181036000830152611c2a81611bee565b9050919050565b7f416c726561647920656e64656400000000000000000000000000000000000000600082015250565b6000611c67600d83611364565b9150611c7282611c31565b602082019050919050565b60006020820190508181036000830152611c9681611c5a565b9050919050565b6000604082019050611cb2600083018561134a565b611cbf6020830184611279565b939250505056fea2646970667358221220daefb03722c38d421ea38184e6dace766e7b5c1754323e77aa3ac4872763482564736f6c63430008140033","opcodes":"PUSH1 0xA0 PUSH1 0x40 MSTORE CALLVALUE DUP1 ISZERO PUSH3 0x11 JUMPI PUSH1 0x0 DUP1 REVERT JUMPDEST POP PUSH1 0x40 MLOAD PUSH3 0x1FB1 CODESIZE SUB DUP1 PUSH3 0x1FB1 DUP4 CODECOPY DUP2 DUP2 ADD PUSH1 0x40 MSTORE DUP2 ADD SWAP1 PUSH3 0x37 SWAP2 SWAP1 PUSH3 0x232 JUMP JUMPDEST CALLER PUSH1 0x1 PUSH1 0x0 DUP2 SWAP1 SSTORE POP PUSH1 0x0 PUSH20 0xFFFFFFFFFFFFFFFFFFFFFFFFFFFFFFFFFFFFFFFF AND DUP2 PUSH20 0xFFFFFFFFFFFFFFFFFFFFFFFFFFFFFFFFFFFFFFFF AND SUB PUSH3 0xB5 JUMPI PUSH1 0x0 PUSH1 0x40 MLOAD PUSH32 0x1E4FBDF700000000000000000000000000000000000000000000000000000000 DUP2 MSTORE PUSH1 0x4 ADD PUSH3 0xAC SWAP2 SWAP1 PUSH3 0x275 JUMP JUMPDEST PUSH1 0x40 MLOAD DUP1 SWAP2 SUB SWAP1 REVERT JUMPDEST PUSH3 0xC6 DUP2 PUSH3 0x102 PUSH1 0x20 SHL PUSH1 0x20 SHR JUMP JUMPDEST POP DUP1 PUSH20 0xFFFFFFFFFFFFFFFFFFFFFFFFFFFFFFFFFFFFFFFF AND PUSH1 0x80 DUP2 PUSH20 0xFFFFFFFFFFFFFFFFFFFFFFFFFFFFFFFFFFFFFFFF AND DUP2 MSTORE POP POP POP PUSH3 0x292 JUMP JUMPDEST PUSH1 0x0 PUSH1 0x1 PUSH1 0x0 SWAP1 SLOAD SWAP1 PUSH2 0x100 EXP SWAP1 DIV PUSH20 0xFFFFFFFFFFFFFFFFFFFFFFFFFFFFFFFFFFFFFFFF AND SWAP1 POP DUP2 PUSH1 0x1 PUSH1 0x0 PUSH2 0x100 EXP DUP2 SLOAD DUP2 PUSH20 0xFFFFFFFFFFFFFFFFFFFFFFFFFFFFFFFFFFFFFFFF MUL NOT AND SWAP1 DUP4 PUSH20 0xFFFFFFFFFFFFFFFFFFFFFFFFFFFFFFFFFFFFFFFF AND MUL OR SWAP1 SSTORE POP DUP2 PUSH20 0xFFFFFFFFFFFFFFFFFFFFFFFFFFFFFFFFFFFFFFFF AND DUP2 PUSH20 0xFFFFFFFFFFFFFFFFFFFFFFFFFFFFFFFFFFFFFFFF AND PUSH32 0x8BE0079C531659141344CD1FD0A4F28419497F9722A3DAAFE3B4186F6B6457E0 PUSH1 0x40 MLOAD PUSH1 0x40 MLOAD DUP1 SWAP2 SUB SWAP1 LOG3 POP POP JUMP JUMPDEST PUSH1 0x0 DUP1 REVERT JUMPDEST PUSH1 0x0 PUSH20 0xFFFFFFFFFFFFFFFFFFFFFFFFFFFFFFFFFFFFFFFF DUP3 AND SWAP1 POP SWAP2 SWAP1 POP JUMP JUMPDEST PUSH1 0x0 PUSH3 0x1FA DUP3 PUSH3 0x1CD JUMP JUMPDEST SWAP1 POP SWAP2 SWAP1 POP JUMP JUMPDEST PUSH3 0x20C DUP2 PUSH3 0x1ED JUMP JUMPDEST DUP2 EQ PUSH3 0x218 JUMPI PUSH1 0x0 DUP1 REVERT JUMPDEST POP JUMP JUMPDEST PUSH1 0x0 DUP2 MLOAD SWAP1 POP PUSH3 0x22C DUP2 PUSH3 0x201 JUMP JUMPDEST SWAP3 SWAP2 POP POP JUMP JUMPDEST PUSH1 0x0 PUSH1 0x20 DUP3 DUP5 SUB SLT ISZERO PUSH3 0x24B JUMPI PUSH3 0x24A PUSH3 0x1C8 JUMP JUMPDEST JUMPDEST PUSH1 0x0 PUSH3 0x25B DUP5 DUP3 DUP6 ADD PUSH3 0x21B JUMP JUMPDEST SWAP2 POP POP SWAP3 SWAP2 POP POP JUMP JUMPDEST PUSH3 0x26F DUP2 PUSH3 0x1ED JUMP JUMPDEST DUP3 MSTORE POP POP JUMP JUMPDEST PUSH1 0x0 PUSH1 0x20 DUP3 ADD SWAP1 POP PUSH3 0x28C PUSH1 0x0 DUP4 ADD DUP5 PUSH3 0x264 JUMP JUMPDEST SWAP3 SWAP2 POP POP JUMP JUMPDEST PUSH1 0x80 MLOAD PUSH2 0x1CFC PUSH3 0x2B5 PUSH1 0x0 CODECOPY PUSH1 0x0 DUP2 DUP2 PUSH2 0x234 ADD MSTORE PUSH2 0x806 ADD MSTORE PUSH2 0x1CFC PUSH1 0x0 RETURN INVALID PUSH1 0x80 PUSH1 0x40 MSTORE CALLVALUE DUP1 ISZERO PUSH2 0x10 JUMPI PUSH1 0x0 DUP1 REVERT JUMPDEST POP PUSH1 0x4 CALLDATASIZE LT PUSH2 0xA9 JUMPI PUSH1 0x0 CALLDATALOAD PUSH1 0xE0 SHR DUP1 PUSH4 0x8DA5CB5B GT PUSH2 0x71 JUMPI DUP1 PUSH4 0x8DA5CB5B EQ PUSH2 0x159 JUMPI DUP1 PUSH4 0x902238E1 EQ PUSH2 0x177 JUMPI DUP1 PUSH4 0x9125D193 EQ PUSH2 0x195 JUMPI DUP1 PUSH4 0xB02C43D0 EQ PUSH2 0x1B1 JUMPI DUP1 PUSH4 0xD9E8843F EQ PUSH2 0x1E1 JUMPI DUP1 PUSH4 0xF2FDE38B EQ PUSH2 0x1FD JUMPI PUSH2 0xA9 JUMP JUMPDEST DUP1 PUSH4 0x18A62CC6 EQ PUSH2 0xAE JUMPI DUP1 PUSH4 0x28CD3F18 EQ PUSH2 0xDE JUMPI DUP1 PUSH4 0x715018A6 EQ PUSH2 0xFA JUMPI DUP1 PUSH4 0x7B103999 EQ PUSH2 0x104 JUMPI DUP1 PUSH4 0x8927A106 EQ PUSH2 0x122 JUMPI JUMPDEST PUSH1 0x0 DUP1 REVERT JUMPDEST PUSH2 0xC8 PUSH1 0x4 DUP1 CALLDATASIZE SUB DUP2 ADD SWAP1 PUSH2 0xC3 SWAP2 SWAP1 PUSH2 0x11CA JUMP JUMPDEST PUSH2 0x219 JUMP JUMPDEST PUSH1 0x40 MLOAD PUSH2 0xD5 SWAP2 SWAP1 PUSH2 0x1288 JUMP JUMPDEST PUSH1 0x40 MLOAD DUP1 SWAP2 SUB SWAP1 RETURN JUMPDEST PUSH2 0xF8 PUSH1 0x4 DUP1 CALLDATASIZE SUB DUP2 ADD SWAP1 PUSH2 0xF3 SWAP2 SWAP1 PUSH2 0x12A3 JUMP JUMPDEST PUSH2 0x5A1 JUMP JUMPDEST STOP JUMPDEST PUSH2 0x102 PUSH2 0x7F0 JUMP JUMPDEST STOP JUMPDEST PUSH2 0x10C PUSH2 0x804 JUMP JUMPDEST PUSH1 0x40 MLOAD PUSH2 0x119 SWAP2 SWAP1 PUSH2 0x132F JUMP JUMPDEST PUSH1 0x40 MLOAD DUP1 SWAP2 SUB SWAP1 RETURN JUMPDEST PUSH2 0x13C PUSH1 0x4 DUP1 CALLDATASIZE SUB DUP2 ADD SWAP1 PUSH2 0x137 SWAP2 SWAP1 PUSH2 0x12A3 JUMP JUMPDEST PUSH2 0x828 JUMP JUMPDEST PUSH1 0x40 MLOAD PUSH2 0x150 SWAP9 SWAP8 SWAP7 SWAP6 SWAP5 SWAP4 SWAP3 SWAP2 SWAP1 PUSH2 0x1460 JUMP JUMPDEST PUSH1 0x40 MLOAD DUP1 SWAP2 SUB SWAP1 RETURN JUMPDEST PUSH2 0x161 PUSH2 0x965 JUMP JUMPDEST PUSH1 0x40 MLOAD PUSH2 0x16E SWAP2 SWAP1 PUSH2 0x14E5 JUMP JUMPDEST PUSH1 0x40 MLOAD DUP1 SWAP2 SUB SWAP1 RETURN JUMPDEST PUSH2 0x17F PUSH2 0x98F JUMP JUMPDEST PUSH1 0x40 MLOAD PUSH2 0x18C SWAP2 SWAP1 PUSH2 0x1288 JUMP JUMPDEST PUSH1 0x40 MLOAD DUP1 SWAP2 SUB SWAP1 RETURN JUMPDEST PUSH2 0x1AF PUSH1 0x4 DUP1 CALLDATASIZE SUB DUP2 ADD SWAP1 PUSH2 0x1AA SWAP2 SWAP1 PUSH2 0x1538 JUMP JUMPDEST PUSH2 0x995 JUMP JUMPDEST STOP JUMPDEST PUSH2 0x1CB PUSH1 0x4 DUP1 CALLDATASIZE SUB DUP2 ADD SWAP1 PUSH2 0x1C6 SWAP2 SWAP1 PUSH2 0x12A3 JUMP JUMPDEST PUSH2 0xC45 JUMP JUMPDEST PUSH1 0x40 MLOAD PUSH2 0x1D8 SWAP2 SWAP1 PUSH2 0x1288 JUMP JUMPDEST PUSH1 0x40 MLOAD DUP1 SWAP2 SUB SWAP1 RETURN JUMPDEST PUSH2 0x1FB PUSH1 0x4 DUP1 CALLDATASIZE SUB DUP2 ADD SWAP1 PUSH2 0x1F6 SWAP2 SWAP1 PUSH2 0x12A3 JUMP JUMPDEST PUSH2 0xC5D JUMP JUMPDEST STOP JUMPDEST PUSH2 0x217 PUSH1 0x4 DUP1 CALLDATASIZE SUB DUP2 ADD SWAP1 PUSH2 0x212 SWAP2 SWAP1 PUSH2 0x158B JUMP JUMPDEST PUSH2 0xE9C JUMP JUMPDEST STOP JUMPDEST PUSH1 0x0 CALLER PUSH20 0xFFFFFFFFFFFFFFFFFFFFFFFFFFFFFFFFFFFFFFFF AND PUSH32 0x0 PUSH20 0xFFFFFFFFFFFFFFFFFFFFFFFFFFFFFFFFFFFFFFFF AND PUSH4 0x6352211E DUP11 PUSH1 0x40 MLOAD DUP3 PUSH4 0xFFFFFFFF AND PUSH1 0xE0 SHL DUP2 MSTORE PUSH1 0x4 ADD PUSH2 0x28B SWAP2 SWAP1 PUSH2 0x1288 JUMP JUMPDEST PUSH1 0x20 PUSH1 0x40 MLOAD DUP1 DUP4 SUB DUP2 DUP7 GAS STATICCALL ISZERO DUP1 ISZERO PUSH2 0x2A8 JUMPI RETURNDATASIZE PUSH1 0x0 DUP1 RETURNDATACOPY RETURNDATASIZE PUSH1 0x0 REVERT JUMPDEST POP POP POP POP PUSH1 0x40 MLOAD RETURNDATASIZE PUSH1 0x1F NOT PUSH1 0x1F DUP3 ADD AND DUP3 ADD DUP1 PUSH1 0x40 MSTORE POP DUP2 ADD SWAP1 PUSH2 0x2CC SWAP2 SWAP1 PUSH2 0x15CD JUMP JUMPDEST PUSH20 0xFFFFFFFFFFFFFFFFFFFFFFFFFFFFFFFFFFFFFFFF AND EQ PUSH2 0x322 JUMPI PUSH1 0x40 MLOAD PUSH32 0x8C379A000000000000000000000000000000000000000000000000000000000 DUP2 MSTORE PUSH1 0x4 ADD PUSH2 0x319 SWAP1 PUSH2 0x1646 JUMP JUMPDEST PUSH1 0x40 MLOAD DUP1 SWAP2 SUB SWAP1 REVERT JUMPDEST PUSH1 0x2 PUSH1 0x0 DUP2 SLOAD PUSH2 0x331 SWAP1 PUSH2 0x1695 JUMP JUMPDEST SWAP2 SWAP1 POP DUP2 SWAP1 SSTORE SWAP1 POP PUSH1 0x40 MLOAD DUP1 PUSH2 0x100 ADD PUSH1 0x40 MSTORE DUP1 DUP10 DUP2 MSTORE PUSH1 0x20 ADD CALLER PUSH20 0xFFFFFFFFFFFFFFFFFFFFFFFFFFFFFFFFFFFFFFFF AND DUP2 MSTORE PUSH1 0x20 ADD DUP9 PUSH20 0xFFFFFFFFFFFFFFFFFFFFFFFFFFFFFFFFFFFFFFFF AND DUP2 MSTORE PUSH1 0x20 ADD DUP8 PUSH20 0xFFFFFFFFFFFFFFFFFFFFFFFFFFFFFFFFFFFFFFFF AND DUP2 MSTORE PUSH1 0x20 ADD DUP7 DUP2 MSTORE PUSH1 0x20 ADD DUP6 DUP2 MSTORE PUSH1 0x20 ADD DUP5 DUP5 DUP1 DUP1 PUSH1 0x1F ADD PUSH1 0x20 DUP1 SWAP2 DIV MUL PUSH1 0x20 ADD PUSH1 0x40 MLOAD SWAP1 DUP2 ADD PUSH1 0x40 MSTORE DUP1 SWAP4 SWAP3 SWAP2 SWAP1 DUP2 DUP2 MSTORE PUSH1 0x20 ADD DUP4 DUP4 DUP1 DUP3 DUP5 CALLDATACOPY PUSH1 0x0 DUP2 DUP5 ADD MSTORE PUSH1 0x1F NOT PUSH1 0x1F DUP3 ADD AND SWAP1 POP DUP1 DUP4 ADD SWAP3 POP POP POP POP POP POP POP DUP2 MSTORE PUSH1 0x20 ADD PUSH1 0x1 PUSH1 0x2 DUP2 GT ISZERO PUSH2 0x409 JUMPI PUSH2 0x408 PUSH2 0x13E9 JUMP JUMPDEST JUMPDEST DUP2 MSTORE POP PUSH1 0x3 PUSH1 0x0 DUP4 DUP2 MSTORE PUSH1 0x20 ADD SWAP1 DUP2 MSTORE PUSH1 0x20 ADD PUSH1 0x0 KECCAK256 PUSH1 0x0 DUP3 ADD MLOAD DUP2 PUSH1 0x0 ADD SSTORE PUSH1 0x20 DUP3 ADD MLOAD DUP2 PUSH1 0x1 ADD PUSH1 0x0 PUSH2 0x100 EXP DUP2 SLOAD DUP2 PUSH20 0xFFFFFFFFFFFFFFFFFFFFFFFFFFFFFFFFFFFFFFFF MUL NOT AND SWAP1 DUP4 PUSH20 0xFFFFFFFFFFFFFFFFFFFFFFFFFFFFFFFFFFFFFFFF AND MUL OR SWAP1 SSTORE POP PUSH1 0x40 DUP3 ADD MLOAD DUP2 PUSH1 0x2 ADD PUSH1 0x0 PUSH2 0x100 EXP DUP2 SLOAD DUP2 PUSH20 0xFFFFFFFFFFFFFFFFFFFFFFFFFFFFFFFFFFFFFFFF MUL NOT AND SWAP1 DUP4 PUSH20 0xFFFFFFFFFFFFFFFFFFFFFFFFFFFFFFFFFFFFFFFF AND MUL OR SWAP1 SSTORE POP PUSH1 0x60 DUP3 ADD MLOAD DUP2 PUSH1 0x3 ADD PUSH1 0x0 PUSH2 0x100 EXP DUP2 SLOAD DUP2 PUSH20 0xFFFFFFFFFFFFFFFFFFFFFFFFFFFFFFFFFFFFFFFF MUL NOT AND SWAP1 DUP4 PUSH20 0xFFFFFFFFFFFFFFFFFFFFFFFFFFFFFFFFFFFFFFFF AND MUL OR SWAP1 SSTORE POP PUSH1 0x80 DUP3 ADD MLOAD DUP2 PUSH1 0x4 ADD SSTORE PUSH1 0xA0 DUP3 ADD MLOAD DUP2 PUSH1 0x5 ADD SSTORE PUSH1 0xC0 DUP3 ADD MLOAD DUP2 PUSH1 0x6 ADD SWAP1 DUP2 PUSH2 0x527 SWAP2 SWAP1 PUSH2 0x190E JUMP JUMPDEST POP PUSH1 0xE0 DUP3 ADD MLOAD DUP2 PUSH1 0x7 ADD PUSH1 0x0 PUSH2 0x100 EXP DUP2 SLOAD DUP2 PUSH1 0xFF MUL NOT AND SWAP1 DUP4 PUSH1 0x2 DUP2 GT ISZERO PUSH2 0x553 JUMPI PUSH2 0x552 PUSH2 0x13E9 JUMP JUMPDEST JUMPDEST MUL OR SWAP1 SSTORE POP SWAP1 POP POP PUSH32 0x1DB52A0BA6F5FBA35E5FCC79DB7884472359C375C118AA57CC7094B4E1B750E5 DUP2 DUP10 DUP10 PUSH1 0x40 MLOAD PUSH2 0x58E SWAP4 SWAP3 SWAP2 SWAP1 PUSH2 0x19E0 JUMP JUMPDEST PUSH1 0x40 MLOAD DUP1 SWAP2 SUB SWAP1 LOG1 SWAP8 SWAP7 POP POP POP POP POP POP POP JUMP JUMPDEST PUSH2 0x5A9 PUSH2 0xF22 JUMP JUMPDEST PUSH1 0x0 PUSH1 0x3 PUSH1 0x0 DUP4 DUP2 MSTORE PUSH1 0x20 ADD SWAP1 DUP2 MSTORE PUSH1 0x20 ADD PUSH1 0x0 KECCAK256 SWAP1 POP PUSH1 0x1 PUSH1 0x2 DUP2 GT ISZERO PUSH2 0x5D4 JUMPI PUSH2 0x5D3 PUSH2 0x13E9 JUMP JUMPDEST JUMPDEST DUP2 PUSH1 0x7 ADD PUSH1 0x0 SWAP1 SLOAD SWAP1 PUSH2 0x100 EXP SWAP1 DIV PUSH1 0xFF AND PUSH1 0x2 DUP2 GT ISZERO PUSH2 0x5F8 JUMPI PUSH2 0x5F7 PUSH2 0x13E9 JUMP JUMPDEST JUMPDEST EQ PUSH2 0x638 JUMPI PUSH1 0x40 MLOAD PUSH32 0x8C379A000000000000000000000000000000000000000000000000000000000 DUP2 MSTORE PUSH1 0x4 ADD PUSH2 0x62F SWAP1 PUSH2 0x1A63 JUMP JUMPDEST PUSH1 0x40 MLOAD DUP1 SWAP2 SUB SWAP1 REVERT JUMPDEST DUP1 PUSH1 0x2 ADD PUSH1 0x0 SWAP1 SLOAD SWAP1 PUSH2 0x100 EXP SWAP1 DIV PUSH20 0xFFFFFFFFFFFFFFFFFFFFFFFFFFFFFFFFFFFFFFFF AND PUSH20 0xFFFFFFFFFFFFFFFFFFFFFFFFFFFFFFFFFFFFFFFF AND CALLER PUSH20 0xFFFFFFFFFFFFFFFFFFFFFFFFFFFFFFFFFFFFFFFF AND EQ PUSH2 0x6CA JUMPI PUSH1 0x40 MLOAD PUSH32 0x8C379A000000000000000000000000000000000000000000000000000000000 DUP2 MSTORE PUSH1 0x4 ADD PUSH2 0x6C1 SWAP1 PUSH2 0x1ACF JUMP JUMPDEST PUSH1 0x40 MLOAD DUP1 SWAP2 SUB SWAP1 REVERT JUMPDEST PUSH1 0x0 DUP2 PUSH1 0x3 ADD PUSH1 0x0 SWAP1 SLOAD SWAP1 PUSH2 0x100 EXP SWAP1 DIV PUSH20 0xFFFFFFFFFFFFFFFFFFFFFFFFFFFFFFFFFFFFFFFF AND SWAP1 POP DUP1 PUSH20 0xFFFFFFFFFFFFFFFFFFFFFFFFFFFFFFFFFFFFFFFF AND PUSH4 0x23B872DD CALLER ADDRESS DUP6 PUSH1 0x5 ADD SLOAD PUSH1 0x40 MLOAD DUP5 PUSH4 0xFFFFFFFF AND PUSH1 0xE0 SHL DUP2 MSTORE PUSH1 0x4 ADD PUSH2 0x734 SWAP4 SWAP3 SWAP2 SWAP1 PUSH2 0x1AEF JUMP JUMPDEST PUSH1 0x20 PUSH1 0x40 MLOAD DUP1 DUP4 SUB DUP2 PUSH1 0x0 DUP8 GAS CALL ISZERO DUP1 ISZERO PUSH2 0x753 JUMPI RETURNDATASIZE PUSH1 0x0 DUP1 RETURNDATACOPY RETURNDATASIZE PUSH1 0x0 REVERT JUMPDEST POP POP POP POP PUSH1 0x40 MLOAD RETURNDATASIZE PUSH1 0x1F NOT PUSH1 0x1F DUP3 ADD AND DUP3 ADD DUP1 PUSH1 0x40 MSTORE POP DUP2 ADD SWAP1 PUSH2 0x777 SWAP2 SWAP1 PUSH2 0x1B3B JUMP JUMPDEST POP DUP2 PUSH1 0x5 ADD SLOAD PUSH1 0x4 PUSH1 0x0 DUP6 DUP2 MSTORE PUSH1 0x20 ADD SWAP1 DUP2 MSTORE PUSH1 0x20 ADD PUSH1 0x0 KECCAK256 PUSH1 0x0 DUP3 DUP3 SLOAD PUSH2 0x79F SWAP2 SWAP1 PUSH2 0x1B68 JUMP JUMPDEST SWAP3 POP POP DUP2 SWAP1 SSTORE POP PUSH32 0xE3B7E5288074DEE4D23F003D2D7686F455EB077B82960D0BC06440E01E3A2BA7 DUP4 DUP4 PUSH1 0x5 ADD SLOAD PUSH1 0x40 MLOAD PUSH2 0x7DB SWAP3 SWAP2 SWAP1 PUSH2 0x1B9C JUMP JUMPDEST PUSH1 0x40 MLOAD DUP1 SWAP2 SUB SWAP1 LOG1 POP POP PUSH2 0x7ED PUSH2 0xF68 JUMP JUMPDEST POP JUMP JUMPDEST PUSH2 0x7F8 PUSH2 0xF72 JUMP JUMPDEST PUSH2 0x802 PUSH1 0x0 PUSH2 0xFF9 JUMP JUMPDEST JUMP JUMPDEST PUSH32 0x0 DUP2 JUMP JUMPDEST PUSH1 0x3 PUSH1 0x20 MSTORE DUP1 PUSH1 0x0 MSTORE PUSH1 0x40 PUSH1 0x0 KECCAK256 PUSH1 0x0 SWAP2 POP SWAP1 POP DUP1 PUSH1 0x0 ADD SLOAD SWAP1 DUP1 PUSH1 0x1 ADD PUSH1 0x0 SWAP1 SLOAD SWAP1 PUSH2 0x100 EXP SWAP1 DIV PUSH20 0xFFFFFFFFFFFFFFFFFFFFFFFFFFFFFFFFFFFFFFFF AND SWAP1 DUP1 PUSH1 0x2 ADD PUSH1 0x0 SWAP1 SLOAD SWAP1 PUSH2 0x100 EXP SWAP1 DIV PUSH20 0xFFFFFFFFFFFFFFFFFFFFFFFFFFFFFFFFFFFFFFFF AND SWAP1 DUP1 PUSH1 0x3 ADD PUSH1 0x0 SWAP1 SLOAD SWAP1 PUSH2 0x100 EXP SWAP1 DIV PUSH20 0xFFFFFFFFFFFFFFFFFFFFFFFFFFFFFFFFFFFFFFFF AND SWAP1 DUP1 PUSH1 0x4 ADD SLOAD SWAP1 DUP1 PUSH1 0x5 ADD SLOAD SWAP1 DUP1 PUSH1 0x6 ADD DUP1 SLOAD PUSH2 0x8CF SWAP1 PUSH2 0x173B JUMP JUMPDEST DUP1 PUSH1 0x1F ADD PUSH1 0x20 DUP1 SWAP2 DIV MUL PUSH1 0x20 ADD PUSH1 0x40 MLOAD SWAP1 DUP2 ADD PUSH1 0x40 MSTORE DUP1 SWAP3 SWAP2 SWAP1 DUP2 DUP2 MSTORE PUSH1 0x20 ADD DUP3 DUP1 SLOAD PUSH2 0x8FB SWAP1 PUSH2 0x173B JUMP JUMPDEST DUP1 ISZERO PUSH2 0x948 JUMPI DUP1 PUSH1 0x1F LT PUSH2 0x91D JUMPI PUSH2 0x100 DUP1 DUP4 SLOAD DIV MUL DUP4 MSTORE SWAP2 PUSH1 0x20 ADD SWAP2 PUSH2 0x948 JUMP JUMPDEST DUP3 ADD SWAP2 SWAP1 PUSH1 0x0 MSTORE PUSH1 0x20 PUSH1 0x0 KECCAK256 SWAP1 JUMPDEST DUP2 SLOAD DUP2 MSTORE SWAP1 PUSH1 0x1 ADD SWAP1 PUSH1 0x20 ADD DUP1 DUP4 GT PUSH2 0x92B JUMPI DUP3 SWAP1 SUB PUSH1 0x1F AND DUP3 ADD SWAP2 JUMPDEST POP POP POP POP POP SWAP1 DUP1 PUSH1 0x7 ADD PUSH1 0x0 SWAP1 SLOAD SWAP1 PUSH2 0x100 EXP SWAP1 DIV PUSH1 0xFF AND SWAP1 POP DUP9 JUMP JUMPDEST PUSH1 0x0 PUSH1 0x1 PUSH1 0x0 SWAP1 SLOAD SWAP1 PUSH2 0x100 EXP SWAP1 DIV PUSH20 0xFFFFFFFFFFFFFFFFFFFFFFFFFFFFFFFFFFFFFFFF AND SWAP1 POP SWAP1 JUMP JUMPDEST PUSH1 0x2 SLOAD DUP2 JUMP JUMPDEST PUSH2 0x99D PUSH2 0xF22 JUMP JUMPDEST PUSH1 0x0 PUSH1 0x3 PUSH1 0x0 DUP6 DUP2 MSTORE PUSH1 0x20 ADD SWAP1 DUP2 MSTORE PUSH1 0x20 ADD PUSH1 0x0 KECCAK256 SWAP1 POP DUP1 PUSH1 0x1 ADD PUSH1 0x0 SWAP1 SLOAD SWAP1 PUSH2 0x100 EXP SWAP1 DIV PUSH20 0xFFFFFFFFFFFFFFFFFFFFFFFFFFFFFFFFFFFFFFFF AND PUSH20 0xFFFFFFFFFFFFFFFFFFFFFFFFFFFFFFFFFFFFFFFF AND CALLER PUSH20 0xFFFFFFFFFFFFFFFFFFFFFFFFFFFFFFFFFFFFFFFF AND EQ PUSH2 0xA46 JUMPI PUSH1 0x40 MLOAD PUSH32 0x8C379A000000000000000000000000000000000000000000000000000000000 DUP2 MSTORE PUSH1 0x4 ADD PUSH2 0xA3D SWAP1 PUSH2 0x1C11 JUMP JUMPDEST PUSH1 0x40 MLOAD DUP1 SWAP2 SUB SWAP1 REVERT JUMPDEST PUSH1 0x1 PUSH1 0x2 DUP2 GT ISZERO PUSH2 0xA5A JUMPI PUSH2 0xA59 PUSH2 0x13E9 JUMP JUMPDEST JUMPDEST DUP2 PUSH1 0x7 ADD PUSH1 0x0 SWAP1 SLOAD SWAP1 PUSH2 0x100 EXP SWAP1 DIV PUSH1 0xFF AND PUSH1 0x2 DUP2 GT ISZERO PUSH2 0xA7E JUMPI PUSH2 0xA7D PUSH2 0x13E9 JUMP JUMPDEST JUMPDEST EQ PUSH2 0xABE JUMPI PUSH1 0x40 MLOAD PUSH32 0x8C379A000000000000000000000000000000000000000000000000000000000 DUP2 MSTORE PUSH1 0x4 ADD PUSH2 0xAB5 SWAP1 PUSH2 0x1C7D JUMP JUMPDEST PUSH1 0x40 MLOAD DUP1 SWAP2 SUB SWAP1 REVERT JUMPDEST PUSH1 0x2 DUP2 PUSH1 0x7 ADD PUSH1 0x0 PUSH2 0x100 EXP DUP2 SLOAD DUP2 PUSH1 0xFF MUL NOT AND SWAP1 DUP4 PUSH1 0x2 DUP2 GT ISZERO PUSH2 0xAE6 JUMPI PUSH2 0xAE5 PUSH2 0x13E9 JUMP JUMPDEST JUMPDEST MUL OR SWAP1 SSTORE POP PUSH1 0x0 PUSH1 0x4 PUSH1 0x0 DUP7 DUP2 MSTORE PUSH1 0x20 ADD SWAP1 DUP2 MSTORE PUSH1 0x20 ADD PUSH1 0x0 KECCAK256 SLOAD SWAP1 POP PUSH1 0x0 PUSH1 0x4 PUSH1 0x0 DUP8 DUP2 MSTORE PUSH1 0x20 ADD SWAP1 DUP2 MSTORE PUSH1 0x20 ADD PUSH1 0x0 KECCAK256 DUP2 SWAP1 SSTORE POP PUSH1 0x0 DUP5 PUSH2 0xB29 JUMPI DUP4 PUSH2 0xB4F JUMP JUMPDEST DUP3 PUSH1 0x1 ADD PUSH1 0x0 SWAP1 SLOAD SWAP1 PUSH2 0x100 EXP SWAP1 DIV PUSH20 0xFFFFFFFFFFFFFFFFFFFFFFFFFFFFFFFFFFFFFFFF AND JUMPDEST SWAP1 POP PUSH1 0x0 DUP3 GT ISZERO PUSH2 0xBFE JUMPI DUP3 PUSH1 0x3 ADD PUSH1 0x0 SWAP1 SLOAD SWAP1 PUSH2 0x100 EXP SWAP1 DIV PUSH20 0xFFFFFFFFFFFFFFFFFFFFFFFFFFFFFFFFFFFFFFFF AND PUSH20 0xFFFFFFFFFFFFFFFFFFFFFFFFFFFFFFFFFFFFFFFF AND PUSH4 0xA9059CBB DUP3 DUP5 PUSH1 0x40 MLOAD DUP4 PUSH4 0xFFFFFFFF AND PUSH1 0xE0 SHL DUP2 MSTORE PUSH1 0x4 ADD PUSH2 0xBB9 SWAP3 SWAP2 SWAP1 PUSH2 0x1C9D JUMP JUMPDEST PUSH1 0x20 PUSH1 0x40 MLOAD DUP1 DUP4 SUB DUP2 PUSH1 0x0 DUP8 GAS CALL ISZERO DUP1 ISZERO PUSH2 0xBD8 JUMPI RETURNDATASIZE PUSH1 0x0 DUP1 RETURNDATACOPY RETURNDATASIZE PUSH1 0x0 REVERT JUMPDEST POP POP POP POP PUSH1 0x40 MLOAD RETURNDATASIZE PUSH1 0x1F NOT PUSH1 0x1F DUP3 ADD AND DUP3 ADD DUP1 PUSH1 0x40 MSTORE POP DUP2 ADD SWAP1 PUSH2 0xBFC SWAP2 SWAP1 PUSH2 0x1B3B JUMP JUMPDEST POP JUMPDEST PUSH32 0x9BBC71338DA3EA3DA7477F5960427AA0FE6E98AECED78A369DD1B4357A50B9F1 DUP7 PUSH1 0x40 MLOAD PUSH2 0xC2D SWAP2 SWAP1 PUSH2 0x1288 JUMP JUMPDEST PUSH1 0x40 MLOAD DUP1 SWAP2 SUB SWAP1 LOG1 POP POP POP PUSH2 0xC40 PUSH2 0xF68 JUMP JUMPDEST POP POP POP JUMP JUMPDEST PUSH1 0x4 PUSH1 0x20 MSTORE DUP1 PUSH1 0x0 MSTORE PUSH1 0x40 PUSH1 0x0 KECCAK256 PUSH1 0x0 SWAP2 POP SWAP1 POP SLOAD DUP2 JUMP JUMPDEST PUSH2 0xC65 PUSH2 0xF22 JUMP JUMPDEST PUSH1 0x0 PUSH1 0x3 PUSH1 0x0 DUP4 DUP2 MSTORE PUSH1 0x20 ADD SWAP1 DUP2 MSTORE PUSH1 0x20 ADD PUSH1 0x0 KECCAK256 SWAP1 POP PUSH1 0x1 PUSH1 0x2 DUP2 GT ISZERO PUSH2 0xC90 JUMPI PUSH2 0xC8F PUSH2 0x13E9 JUMP JUMPDEST JUMPDEST DUP2 PUSH1 0x7 ADD PUSH1 0x0 SWAP1 SLOAD SWAP1 PUSH2 0x100 EXP SWAP1 DIV PUSH1 0xFF AND PUSH1 0x2 DUP2 GT ISZERO PUSH2 0xCB4 JUMPI PUSH2 0xCB3 PUSH2 0x13E9 JUMP JUMPDEST JUMPDEST EQ PUSH2 0xCF4 JUMPI PUSH1 0x40 MLOAD PUSH32 0x8C379A000000000000000000000000000000000000000000000000000000000 DUP2 MSTORE PUSH1 0x4 ADD PUSH2 0xCEB SWAP1 PUSH2 0x1A63 JUMP JUMPDEST PUSH1 0x40 MLOAD DUP1 SWAP2 SUB SWAP1 REVERT JUMPDEST DUP1 PUSH1 0x2 ADD PUSH1 0x0 SWAP1 SLOAD SWAP1 PUSH2 0x100 EXP SWAP1 DIV PUSH20 0xFFFFFFFFFFFFFFFFFFFFFFFFFFFFFFFFFFFFFFFF AND PUSH20 0xFFFFFFFFFFFFFFFFFFFFFFFFFFFFFFFFFFFFFFFF AND CALLER PUSH20 0xFFFFFFFFFFFFFFFFFFFFFFFFFFFFFFFFFFFFFFFF AND EQ PUSH2 0xD86 JUMPI PUSH1 0x40 MLOAD PUSH32 0x8C379A000000000000000000000000000000000000000000000000000000000 DUP2 MSTORE PUSH1 0x4 ADD PUSH2 0xD7D SWAP1 PUSH2 0x1ACF JUMP JUMPDEST PUSH1 0x40 MLOAD DUP1 SWAP2 SUB SWAP1 REVERT JUMPDEST DUP1 PUSH1 0x3 ADD PUSH1 0x0 SWAP1 SLOAD SWAP1 PUSH2 0x100 EXP SWAP1 DIV PUSH20 0xFFFFFFFFFFFFFFFFFFFFFFFFFFFFFFFFFFFFFFFF AND PUSH20 0xFFFFFFFFFFFFFFFFFFFFFFFFFFFFFFFFFFFFFFFF AND PUSH4 0x23B872DD CALLER DUP4 PUSH1 0x1 ADD PUSH1 0x0 SWAP1 SLOAD SWAP1 PUSH2 0x100 EXP SWAP1 DIV PUSH20 0xFFFFFFFFFFFFFFFFFFFFFFFFFFFFFFFFFFFFFFFF AND DUP5 PUSH1 0x4 ADD SLOAD PUSH1 0x40 MLOAD DUP5 PUSH4 0xFFFFFFFF AND PUSH1 0xE0 SHL DUP2 MSTORE PUSH1 0x4 ADD PUSH2 0xE0F SWAP4 SWAP3 SWAP2 SWAP1 PUSH2 0x1AEF JUMP JUMPDEST PUSH1 0x20 PUSH1 0x40 MLOAD DUP1 DUP4 SUB DUP2 PUSH1 0x0 DUP8 GAS CALL ISZERO DUP1 ISZERO PUSH2 0xE2E JUMPI RETURNDATASIZE PUSH1 0x0 DUP1 RETURNDATACOPY RETURNDATASIZE PUSH1 0x0 REVERT JUMPDEST POP POP POP POP PUSH1 0x40 MLOAD RETURNDATASIZE PUSH1 0x1F NOT PUSH1 0x1F DUP3 ADD AND DUP3 ADD DUP1 PUSH1 0x40 MSTORE POP DUP2 ADD SWAP1 PUSH2 0xE52 SWAP2 SWAP1 PUSH2 0x1B3B JUMP JUMPDEST POP PUSH32 0xA0D112ED080C1B1A94B838AD981A23746BE2A4670FD4BF157224E72CDD5DFDDE DUP3 DUP3 PUSH1 0x4 ADD SLOAD PUSH1 0x40 MLOAD PUSH2 0xE88 SWAP3 SWAP2 SWAP1 PUSH2 0x1B9C JUMP JUMPDEST PUSH1 0x40 MLOAD DUP1 SWAP2 SUB SWAP1 LOG1 POP PUSH2 0xE99 PUSH2 0xF68 JUMP JUMPDEST POP JUMP JUMPDEST PUSH2 0xEA4 PUSH2 0xF72 JUMP JUMPDEST PUSH1 0x0 PUSH20 0xFFFFFFFFFFFFFFFFFFFFFFFFFFFFFFFFFFFFFFFF AND DUP2 PUSH20 0xFFFFFFFFFFFFFFFFFFFFFFFFFFFFFFFFFFFFFFFF AND SUB PUSH2 0xF16 JUMPI PUSH1 0x0 PUSH1 0x40 MLOAD PUSH32 0x1E4FBDF700000000000000000000000000000000000000000000000000000000 DUP2 MSTORE PUSH1 0x4 ADD PUSH2 0xF0D SWAP2 SWAP1 PUSH2 0x14E5 JUMP JUMPDEST PUSH1 0x40 MLOAD DUP1 SWAP2 SUB SWAP1 REVERT JUMPDEST PUSH2 0xF1F DUP2 PUSH2 0xFF9 JUMP JUMPDEST POP JUMP JUMPDEST PUSH1 0x2 PUSH1 0x0 SLOAD SUB PUSH2 0xF5E JUMPI PUSH1 0x40 MLOAD PUSH32 0x3EE5AEB500000000000000000000000000000000000000000000000000000000 DUP2 MSTORE PUSH1 0x4 ADD PUSH1 0x40 MLOAD DUP1 SWAP2 SUB SWAP1 REVERT JUMPDEST PUSH1 0x2 PUSH1 0x0 DUP2 SWAP1 SSTORE POP JUMP JUMPDEST PUSH1 0x1 PUSH1 0x0 DUP2 SWAP1 SSTORE POP JUMP JUMPDEST PUSH2 0xF7A PUSH2 0x10BF JUMP JUMPDEST PUSH20 0xFFFFFFFFFFFFFFFFFFFFFFFFFFFFFFFFFFFFFFFF AND PUSH2 0xF98 PUSH2 0x965 JUMP JUMPDEST PUSH20 0xFFFFFFFFFFFFFFFFFFFFFFFFFFFFFFFFFFFFFFFF AND EQ PUSH2 0xFF7 JUMPI PUSH2 0xFBB PUSH2 0x10BF JUMP JUMPDEST PUSH1 0x40 MLOAD PUSH32 0x118CDAA700000000000000000000000000000000000000000000000000000000 DUP2 MSTORE PUSH1 0x4 ADD PUSH2 0xFEE SWAP2 SWAP1 PUSH2 0x14E5 JUMP JUMPDEST PUSH1 0x40 MLOAD DUP1 SWAP2 SUB SWAP1 REVERT JUMPDEST JUMP JUMPDEST PUSH1 0x0 PUSH1 0x1 PUSH1 0x0 SWAP1 SLOAD SWAP1 PUSH2 0x100 EXP SWAP1 DIV PUSH20 0xFFFFFFFFFFFFFFFFFFFFFFFFFFFFFFFFFFFFFFFF AND SWAP1 POP DUP2 PUSH1 0x1 PUSH1 0x0 PUSH2 0x100 EXP DUP2 SLOAD DUP2 PUSH20 0xFFFFFFFFFFFFFFFFFFFFFFFFFFFFFFFFFFFFFFFF MUL NOT AND SWAP1 DUP4 PUSH20 0xFFFFFFFFFFFFFFFFFFFFFFFFFFFFFFFFFFFFFFFF AND MUL OR SWAP1 SSTORE POP DUP2 PUSH20 0xFFFFFFFFFFFFFFFFFFFFFFFFFFFFFFFFFFFFFFFF AND DUP2 PUSH20 0xFFFFFFFFFFFFFFFFFFFFFFFFFFFFFFFFFFFFFFFF AND PUSH32 0x8BE0079C531659141344CD1FD0A4F28419497F9722A3DAAFE3B4186F6B6457E0 PUSH1 0x40 MLOAD PUSH1 0x40 MLOAD DUP1 SWAP2 SUB SWAP1 LOG3 POP POP JUMP JUMPDEST PUSH1 0x0 CALLER SWAP1 POP SWAP1 JUMP JUMPDEST PUSH1 0x0 DUP1 REVERT JUMPDEST PUSH1 0x0 DUP1 REVERT JUMPDEST PUSH1 0x0 DUP2 SWAP1 POP SWAP2 SWAP1 POP JUMP JUMPDEST PUSH2 0x10E4 DUP2 PUSH2 0x10D1 JUMP JUMPDEST DUP2 EQ PUSH2 0x10EF JUMPI PUSH1 0x0 DUP1 REVERT JUMPDEST POP JUMP JUMPDEST PUSH1 0x0 DUP2 CALLDATALOAD SWAP1 POP PUSH2 0x1101 DUP2 PUSH2 0x10DB JUMP JUMPDEST SWAP3 SWAP2 POP POP JUMP JUMPDEST PUSH1 0x0 PUSH20 0xFFFFFFFFFFFFFFFFFFFFFFFFFFFFFFFFFFFFFFFF DUP3 AND SWAP1 POP SWAP2 SWAP1 POP JUMP JUMPDEST PUSH1 0x0 PUSH2 0x1132 DUP3 PUSH2 0x1107 JUMP JUMPDEST SWAP1 POP SWAP2 SWAP1 POP JUMP JUMPDEST PUSH2 0x1142 DUP2 PUSH2 0x1127 JUMP JUMPDEST DUP2 EQ PUSH2 0x114D JUMPI PUSH1 0x0 DUP1 REVERT JUMPDEST POP JUMP JUMPDEST PUSH1 0x0 DUP2 CALLDATALOAD SWAP1 POP PUSH2 0x115F DUP2 PUSH2 0x1139 JUMP JUMPDEST SWAP3 SWAP2 POP POP JUMP JUMPDEST PUSH1 0x0 DUP1 REVERT JUMPDEST PUSH1 0x0 DUP1 REVERT JUMPDEST PUSH1 0x0 DUP1 REVERT JUMPDEST PUSH1 0x0 DUP1 DUP4 PUSH1 0x1F DUP5 ADD SLT PUSH2 0x118A JUMPI PUSH2 0x1189 PUSH2 0x1165 JUMP JUMPDEST JUMPDEST DUP3 CALLDATALOAD SWAP1 POP PUSH8 0xFFFFFFFFFFFFFFFF DUP2 GT ISZERO PUSH2 0x11A7 JUMPI PUSH2 0x11A6 PUSH2 0x116A JUMP JUMPDEST JUMPDEST PUSH1 0x20 DUP4 ADD SWAP2 POP DUP4 PUSH1 0x1 DUP3 MUL DUP4 ADD GT ISZERO PUSH2 0x11C3 JUMPI PUSH2 0x11C2 PUSH2 0x116F JUMP JUMPDEST JUMPDEST SWAP3 POP SWAP3 SWAP1 POP JUMP JUMPDEST PUSH1 0x0 DUP1 PUSH1 0x0 DUP1 PUSH1 0x0 DUP1 PUSH1 0x0 PUSH1 0xC0 DUP9 DUP11 SUB SLT ISZERO PUSH2 0x11E9 JUMPI PUSH2 0x11E8 PUSH2 0x10C7 JUMP JUMPDEST JUMPDEST PUSH1 0x0 PUSH2 0x11F7 DUP11 DUP3 DUP12 ADD PUSH2 0x10F2 JUMP JUMPDEST SWAP8 POP POP PUSH1 0x20 PUSH2 0x1208 DUP11 DUP3 DUP12 ADD PUSH2 0x1150 JUMP JUMPDEST SWAP7 POP POP PUSH1 0x40 PUSH2 0x1219 DUP11 DUP3 DUP12 ADD PUSH2 0x1150 JUMP JUMPDEST SWAP6 POP POP PUSH1 0x60 PUSH2 0x122A DUP11 DUP3 DUP12 ADD PUSH2 0x10F2 JUMP JUMPDEST SWAP5 POP POP PUSH1 0x80 PUSH2 0x123B DUP11 DUP3 DUP12 ADD PUSH2 0x10F2 JUMP JUMPDEST SWAP4 POP POP PUSH1 0xA0 DUP9 ADD CALLDATALOAD PUSH8 0xFFFFFFFFFFFFFFFF DUP2 GT ISZERO PUSH2 0x125C JUMPI PUSH2 0x125B PUSH2 0x10CC JUMP JUMPDEST JUMPDEST PUSH2 0x1268 DUP11 DUP3 DUP12 ADD PUSH2 0x1174 JUMP JUMPDEST SWAP3 POP SWAP3 POP POP SWAP3 SWAP6 SWAP9 SWAP2 SWAP5 SWAP8 POP SWAP3 SWAP6 POP JUMP JUMPDEST PUSH2 0x1282 DUP2 PUSH2 0x10D1 JUMP JUMPDEST DUP3 MSTORE POP POP JUMP JUMPDEST PUSH1 0x0 PUSH1 0x20 DUP3 ADD SWAP1 POP PUSH2 0x129D PUSH1 0x0 DUP4 ADD DUP5 PUSH2 0x1279 JUMP JUMPDEST SWAP3 SWAP2 POP POP JUMP JUMPDEST PUSH1 0x0 PUSH1 0x20 DUP3 DUP5 SUB SLT ISZERO PUSH2 0x12B9 JUMPI PUSH2 0x12B8 PUSH2 0x10C7 JUMP JUMPDEST JUMPDEST PUSH1 0x0 PUSH2 0x12C7 DUP5 DUP3 DUP6 ADD PUSH2 0x10F2 JUMP JUMPDEST SWAP2 POP POP SWAP3 SWAP2 POP POP JUMP JUMPDEST PUSH1 0x0 DUP2 SWAP1 POP SWAP2 SWAP1 POP JUMP JUMPDEST PUSH1 0x0 PUSH2 0x12F5 PUSH2 0x12F0 PUSH2 0x12EB DUP5 PUSH2 0x1107 JUMP JUMPDEST PUSH2 0x12D0 JUMP JUMPDEST PUSH2 0x1107 JUMP JUMPDEST SWAP1 POP SWAP2 SWAP1 POP JUMP JUMPDEST PUSH1 0x0 PUSH2 0x1307 DUP3 PUSH2 0x12DA JUMP JUMPDEST SWAP1 POP SWAP2 SWAP1 POP JUMP JUMPDEST PUSH1 0x0 PUSH2 0x1319 DUP3 PUSH2 0x12FC JUMP JUMPDEST SWAP1 POP SWAP2 SWAP1 POP JUMP JUMPDEST PUSH2 0x1329 DUP2 PUSH2 0x130E JUMP JUMPDEST DUP3 MSTORE POP POP JUMP JUMPDEST PUSH1 0x0 PUSH1 0x20 DUP3 ADD SWAP1 POP PUSH2 0x1344 PUSH1 0x0 DUP4 ADD DUP5 PUSH2 0x1320 JUMP JUMPDEST SWAP3 SWAP2 POP POP JUMP JUMPDEST PUSH2 0x1353 DUP2 PUSH2 0x1127 JUMP JUMPDEST DUP3 MSTORE POP POP JUMP JUMPDEST PUSH1 0x0 DUP2 MLOAD SWAP1 POP SWAP2 SWAP1 POP JUMP JUMPDEST PUSH1 0x0 DUP3 DUP3 MSTORE PUSH1 0x20 DUP3 ADD SWAP1 POP SWAP3 SWAP2 POP POP JUMP JUMPDEST PUSH1 0x0 JUMPDEST DUP4 DUP2 LT ISZERO PUSH2 0x1393 JUMPI DUP1 DUP3 ADD MLOAD DUP2 DUP5 ADD MSTORE PUSH1 0x20 DUP2 ADD SWAP1 POP PUSH2 0x1378 JUMP JUMPDEST PUSH1 0x0 DUP5 DUP5 ADD MSTORE POP POP POP POP JUMP JUMPDEST PUSH1 0x0 PUSH1 0x1F NOT PUSH1 0x1F DUP4 ADD AND SWAP1 POP SWAP2 SWAP1 POP JUMP JUMPDEST PUSH1 0x0 PUSH2 0x13BB DUP3 PUSH2 0x1359 JUMP JUMPDEST PUSH2 0x13C5 DUP2 DUP6 PUSH2 0x1364 JUMP JUMPDEST SWAP4 POP PUSH2 0x13D5 DUP2 DUP6 PUSH1 0x20 DUP7 ADD PUSH2 0x1375 JUMP JUMPDEST PUSH2 0x13DE DUP2 PUSH2 0x139F JUMP JUMPDEST DUP5 ADD SWAP2 POP POP SWAP3 SWAP2 POP POP JUMP JUMPDEST PUSH32 0x4E487B7100000000000000000000000000000000000000000000000000000000 PUSH1 0x0 MSTORE PUSH1 0x21 PUSH1 0x4 MSTORE PUSH1 0x24 PUSH1 0x0 REVERT JUMPDEST PUSH1 0x3 DUP2 LT PUSH2 0x1429 JUMPI PUSH2 0x1428 PUSH2 0x13E9 JUMP JUMPDEST JUMPDEST POP JUMP JUMPDEST PUSH1 0x0 DUP2 SWAP1 POP PUSH2 0x143A DUP3 PUSH2 0x1418 JUMP JUMPDEST SWAP2 SWAP1 POP JUMP JUMPDEST PUSH1 0x0 PUSH2 0x144A DUP3 PUSH2 0x142C JUMP JUMPDEST SWAP1 POP SWAP2 SWAP1 POP JUMP JUMPDEST PUSH2 0x145A DUP2 PUSH2 0x143F JUMP JUMPDEST DUP3 MSTORE POP POP JUMP JUMPDEST PUSH1 0x0 PUSH2 0x100 DUP3 ADD SWAP1 POP PUSH2 0x1476 PUSH1 0x0 DUP4 ADD DUP12 PUSH2 0x1279 JUMP JUMPDEST PUSH2 0x1483 PUSH1 0x20 DUP4 ADD DUP11 PUSH2 0x134A JUMP JUMPDEST PUSH2 0x1490 PUSH1 0x40 DUP4 ADD DUP10 PUSH2 0x134A JUMP JUMPDEST PUSH2 0x149D PUSH1 0x60 DUP4 ADD DUP9 PUSH2 0x134A JUMP JUMPDEST PUSH2 0x14AA PUSH1 0x80 DUP4 ADD DUP8 PUSH2 0x1279 JUMP JUMPDEST PUSH2 0x14B7 PUSH1 0xA0 DUP4 ADD DUP7 PUSH2 0x1279 JUMP JUMPDEST DUP2 DUP2 SUB PUSH1 0xC0 DUP4 ADD MSTORE PUSH2 0x14C9 DUP2 DUP6 PUSH2 0x13B0 JUMP JUMPDEST SWAP1 POP PUSH2 0x14D8 PUSH1 0xE0 DUP4 ADD DUP5 PUSH2 0x1451 JUMP JUMPDEST SWAP10 SWAP9 POP POP POP POP POP POP POP POP POP JUMP JUMPDEST PUSH1 0x0 PUSH1 0x20 DUP3 ADD SWAP1 POP PUSH2 0x14FA PUSH1 0x0 DUP4 ADD DUP5 PUSH2 0x134A JUMP JUMPDEST SWAP3 SWAP2 POP POP JUMP JUMPDEST PUSH1 0x0 DUP2 ISZERO ISZERO SWAP1 POP SWAP2 SWAP1 POP JUMP JUMPDEST PUSH2 0x1515 DUP2 PUSH2 0x1500 JUMP JUMPDEST DUP2 EQ PUSH2 0x1520 JUMPI PUSH1 0x0 DUP1 REVERT JUMPDEST POP JUMP JUMPDEST PUSH1 0x0 DUP2 CALLDATALOAD SWAP1 POP PUSH2 0x1532 DUP2 PUSH2 0x150C JUMP JUMPDEST SWAP3 SWAP2 POP POP JUMP JUMPDEST PUSH1 0x0 DUP1 PUSH1 0x0 PUSH1 0x60 DUP5 DUP7 SUB SLT ISZERO PUSH2 0x1551 JUMPI PUSH2 0x1550 PUSH2 0x10C7 JUMP JUMPDEST JUMPDEST PUSH1 0x0 PUSH2 0x155F DUP7 DUP3 DUP8 ADD PUSH2 0x10F2 JUMP JUMPDEST SWAP4 POP POP PUSH1 0x20 PUSH2 0x1570 DUP7 DUP3 DUP8 ADD PUSH2 0x1523 JUMP JUMPDEST SWAP3 POP POP PUSH1 0x40 PUSH2 0x1581 DUP7 DUP3 DUP8 ADD PUSH2 0x1150 JUMP JUMPDEST SWAP2 POP POP SWAP3 POP SWAP3 POP SWAP3 JUMP JUMPDEST PUSH1 0x0 PUSH1 0x20 DUP3 DUP5 SUB SLT ISZERO PUSH2 0x15A1 JUMPI PUSH2 0x15A0 PUSH2 0x10C7 JUMP JUMPDEST JUMPDEST PUSH1 0x0 PUSH2 0x15AF DUP5 DUP3 DUP6 ADD PUSH2 0x1150 JUMP JUMPDEST SWAP2 POP POP SWAP3 SWAP2 POP POP JUMP JUMPDEST PUSH1 0x0 DUP2 MLOAD SWAP1 POP PUSH2 0x15C7 DUP2 PUSH2 0x1139 JUMP JUMPDEST SWAP3 SWAP2 POP POP JUMP JUMPDEST PUSH1 0x0 PUSH1 0x20 DUP3 DUP5 SUB SLT ISZERO PUSH2 0x15E3 JUMPI PUSH2 0x15E2 PUSH2 0x10C7 JUMP JUMPDEST JUMPDEST PUSH1 0x0 PUSH2 0x15F1 DUP5 DUP3 DUP6 ADD PUSH2 0x15B8 JUMP JUMPDEST SWAP2 POP POP SWAP3 SWAP2 POP POP JUMP JUMPDEST PUSH32 0x4E6F742070726F7065727479206F776E65720000000000000000000000000000 PUSH1 0x0 DUP3 ADD MSTORE POP JUMP JUMPDEST PUSH1 0x0 PUSH2 0x1630 PUSH1 0x12 DUP4 PUSH2 0x1364 JUMP JUMPDEST SWAP2 POP PUSH2 0x163B DUP3 PUSH2 0x15FA JUMP JUMPDEST PUSH1 0x20 DUP3 ADD SWAP1 POP SWAP2 SWAP1 POP JUMP JUMPDEST PUSH1 0x0 PUSH1 0x20 DUP3 ADD SWAP1 POP DUP2 DUP2 SUB PUSH1 0x0 DUP4 ADD MSTORE PUSH2 0x165F DUP2 PUSH2 0x1623 JUMP JUMPDEST SWAP1 POP SWAP2 SWAP1 POP JUMP JUMPDEST PUSH32 0x4E487B7100000000000000000000000000000000000000000000000000000000 PUSH1 0x0 MSTORE PUSH1 0x11 PUSH1 0x4 MSTORE PUSH1 0x24 PUSH1 0x0 REVERT JUMPDEST PUSH1 0x0 PUSH2 0x16A0 DUP3 PUSH2 0x10D1 JUMP JUMPDEST SWAP2 POP PUSH32 0xFFFFFFFFFFFFFFFFFFFFFFFFFFFFFFFFFFFFFFFFFFFFFFFFFFFFFFFFFFFFFFFF DUP3 SUB PUSH2 0x16D2 JUMPI PUSH2 0x16D1 PUSH2 0x1666 JUMP JUMPDEST JUMPDEST PUSH1 0x1 DUP3 ADD SWAP1 POP SWAP2 SWAP1 POP JUMP JUMPDEST PUSH32 0x4E487B7100000000000000000000000000000000000000000000000000000000 PUSH1 0x0 MSTORE PUSH1 0x41 PUSH1 0x4 MSTORE PUSH1 0x24 PUSH1 0x0 REVERT JUMPDEST PUSH32 0x4E487B7100000000000000000000000000000000000000000000000000000000 PUSH1 0x0 MSTORE PUSH1 0x22 PUSH1 0x4 MSTORE PUSH1 0x24 PUSH1 0x0 REVERT JUMPDEST PUSH1 0x0 PUSH1 0x2 DUP3 DIV SWAP1 POP PUSH1 0x1 DUP3 AND DUP1 PUSH2 0x1753 JUMPI PUSH1 0x7F DUP3 AND SWAP2 POP JUMPDEST PUSH1 0x20 DUP3 LT DUP2 SUB PUSH2 0x1766 JUMPI PUSH2 0x1765 PUSH2 0x170C JUMP JUMPDEST JUMPDEST POP SWAP2 SWAP1 POP JUMP JUMPDEST PUSH1 0x0 DUP2 SWAP1 POP DUP2 PUSH1 0x0 MSTORE PUSH1 0x20 PUSH1 0x0 KECCAK256 SWAP1 POP SWAP2 SWAP1 POP JUMP JUMPDEST PUSH1 0x0 PUSH1 0x20 PUSH1 0x1F DUP4 ADD DIV SWAP1 POP SWAP2 SWAP1 POP JUMP JUMPDEST PUSH1 0x0 DUP3 DUP3 SHL SWAP1 POP SWAP3 SWAP2 POP POP JUMP JUMPDEST PUSH1 0x0 PUSH1 0x8 DUP4 MUL PUSH2 0x17CE PUSH32 0xFFFFFFFFFFFFFFFFFFFFFFFFFFFFFFFFFFFFFFFFFFFFFFFFFFFFFFFFFFFFFFFF DUP3 PUSH2 0x1791 JUMP JUMPDEST PUSH2 0x17D8 DUP7 DUP4 PUSH2 0x1791 JUMP JUMPDEST SWAP6 POP DUP1 NOT DUP5 AND SWAP4 POP DUP1 DUP7 AND DUP5 OR SWAP3 POP POP POP SWAP4 SWAP3 POP POP POP JUMP JUMPDEST PUSH1 0x0 PUSH2 0x180B PUSH2 0x1806 PUSH2 0x1801 DUP5 PUSH2 0x10D1 JUMP JUMPDEST PUSH2 0x12D0 JUMP JUMPDEST PUSH2 0x10D1 JUMP JUMPDEST SWAP1 POP SWAP2 SWAP1 POP JUMP JUMPDEST PUSH1 0x0 DUP2 SWAP1 POP SWAP2 SWAP1 POP JUMP JUMPDEST PUSH2 0x1825 DUP4 PUSH2 0x17F0 JUMP JUMPDEST PUSH2 0x1839 PUSH2 0x1831 DUP3 PUSH2 0x1812 JUMP JUMPDEST DUP5 DUP5 SLOAD PUSH2 0x179E JUMP JUMPDEST DUP3 SSTORE POP POP POP POP JUMP JUMPDEST PUSH1 0x0 SWAP1 JUMP JUMPDEST PUSH2 0x184E PUSH2 0x1841 JUMP JUMPDEST PUSH2 0x1859 DUP2 DUP5 DUP5 PUSH2 0x181C JUMP JUMPDEST POP POP POP JUMP JUMPDEST JUMPDEST DUP2 DUP2 LT ISZERO PUSH2 0x187D JUMPI PUSH2 0x1872 PUSH1 0x0 DUP3 PUSH2 0x1846 JUMP JUMPDEST PUSH1 0x1 DUP2 ADD SWAP1 POP PUSH2 0x185F JUMP JUMPDEST POP POP JUMP JUMPDEST PUSH1 0x1F DUP3 GT ISZERO PUSH2 0x18C2 JUMPI PUSH2 0x1893 DUP2 PUSH2 0x176C JUMP JUMPDEST PUSH2 0x189C DUP5 PUSH2 0x1781 JUMP JUMPDEST DUP2 ADD PUSH1 0x20 DUP6 LT ISZERO PUSH2 0x18AB JUMPI DUP2 SWAP1 POP JUMPDEST PUSH2 0x18BF PUSH2 0x18B7 DUP6 PUSH2 0x1781 JUMP JUMPDEST DUP4 ADD DUP3 PUSH2 0x185E JUMP JUMPDEST POP POP JUMPDEST POP POP POP JUMP JUMPDEST PUSH1 0x0 DUP3 DUP3 SHR SWAP1 POP SWAP3 SWAP2 POP POP JUMP JUMPDEST PUSH1 0x0 PUSH2 0x18E5 PUSH1 0x0 NOT DUP5 PUSH1 0x8 MUL PUSH2 0x18C7 JUMP JUMPDEST NOT DUP1 DUP4 AND SWAP2 POP POP SWAP3 SWAP2 POP POP JUMP JUMPDEST PUSH1 0x0 PUSH2 0x18FE DUP4 DUP4 PUSH2 0x18D4 JUMP JUMPDEST SWAP2 POP DUP3 PUSH1 0x2 MUL DUP3 OR SWAP1 POP SWAP3 SWAP2 POP POP JUMP JUMPDEST PUSH2 0x1917 DUP3 PUSH2 0x1359 JUMP JUMPDEST PUSH8 0xFFFFFFFFFFFFFFFF DUP2 GT ISZERO PUSH2 0x1930 JUMPI PUSH2 0x192F PUSH2 0x16DD JUMP JUMPDEST JUMPDEST PUSH2 0x193A DUP3 SLOAD PUSH2 0x173B JUMP JUMPDEST PUSH2 0x1945 DUP3 DUP3 DUP6 PUSH2 0x1881 JUMP JUMPDEST PUSH1 0x0 PUSH1 0x20 SWAP1 POP PUSH1 0x1F DUP4 GT PUSH1 0x1 DUP2 EQ PUSH2 0x1978 JUMPI PUSH1 0x0 DUP5 ISZERO PUSH2 0x1966 JUMPI DUP3 DUP8 ADD MLOAD SWAP1 POP JUMPDEST PUSH2 0x1970 DUP6 DUP3 PUSH2 0x18F2 JUMP JUMPDEST DUP7 SSTORE POP PUSH2 0x19D8 JUMP JUMPDEST PUSH1 0x1F NOT DUP5 AND PUSH2 0x1986 DUP7 PUSH2 0x176C JUMP JUMPDEST PUSH1 0x0 JUMPDEST DUP3 DUP2 LT ISZERO PUSH2 0x19AE JUMPI DUP5 DUP10 ADD MLOAD DUP3 SSTORE PUSH1 0x1 DUP3 ADD SWAP2 POP PUSH1 0x20 DUP6 ADD SWAP5 POP PUSH1 0x20 DUP2 ADD SWAP1 POP PUSH2 0x1989 JUMP JUMPDEST DUP7 DUP4 LT ISZERO PUSH2 0x19CB JUMPI DUP5 DUP10 ADD MLOAD PUSH2 0x19C7 PUSH1 0x1F DUP10 AND DUP3 PUSH2 0x18D4 JUMP JUMPDEST DUP4 SSTORE POP JUMPDEST PUSH1 0x1 PUSH1 0x2 DUP9 MUL ADD DUP9 SSTORE POP POP POP JUMPDEST POP POP POP POP POP POP JUMP JUMPDEST PUSH1 0x0 PUSH1 0x60 DUP3 ADD SWAP1 POP PUSH2 0x19F5 PUSH1 0x0 DUP4 ADD DUP7 PUSH2 0x1279 JUMP JUMPDEST PUSH2 0x1A02 PUSH1 0x20 DUP4 ADD DUP6 PUSH2 0x1279 JUMP JUMPDEST PUSH2 0x1A0F PUSH1 0x40 DUP4 ADD DUP5 PUSH2 0x134A JUMP JUMPDEST SWAP5 SWAP4 POP POP POP POP JUMP JUMPDEST PUSH32 0x496E616374697665000000000000000000000000000000000000000000000000 PUSH1 0x0 DUP3 ADD MSTORE POP JUMP JUMPDEST PUSH1 0x0 PUSH2 0x1A4D PUSH1 0x8 DUP4 PUSH2 0x1364 JUMP JUMPDEST SWAP2 POP PUSH2 0x1A58 DUP3 PUSH2 0x1A17 JUMP JUMPDEST PUSH1 0x20 DUP3 ADD SWAP1 POP SWAP2 SWAP1 POP JUMP JUMPDEST PUSH1 0x0 PUSH1 0x20 DUP3 ADD SWAP1 POP DUP2 DUP2 SUB PUSH1 0x0 DUP4 ADD MSTORE PUSH2 0x1A7C DUP2 PUSH2 0x1A40 JUMP JUMPDEST SWAP1 POP SWAP2 SWAP1 POP JUMP JUMPDEST PUSH32 0x4F6E6C792074656E616E74000000000000000000000000000000000000000000 PUSH1 0x0 DUP3 ADD MSTORE POP JUMP JUMPDEST PUSH1 0x0 PUSH2 0x1AB9 PUSH1 0xB DUP4 PUSH2 0x1364 JUMP JUMPDEST SWAP2 POP PUSH2 0x1AC4 DUP3 PUSH2 0x1A83 JUMP JUMPDEST PUSH1 0x20 DUP3 ADD SWAP1 POP SWAP2 SWAP1 POP JUMP JUMPDEST PUSH1 0x0 PUSH1 0x20 DUP3 ADD SWAP1 POP DUP2 DUP2 SUB PUSH1 0x0 DUP4 ADD MSTORE PUSH2 0x1AE8 DUP2 PUSH2 0x1AAC JUMP JUMPDEST SWAP1 POP SWAP2 SWAP1 POP JUMP JUMPDEST PUSH1 0x0 PUSH1 0x60 DUP3 ADD SWAP1 POP PUSH2 0x1B04 PUSH1 0x0 DUP4 ADD DUP7 PUSH2 0x134A JUMP JUMPDEST PUSH2 0x1B11 PUSH1 0x20 DUP4 ADD DUP6 PUSH2 0x134A JUMP JUMPDEST PUSH2 0x1B1E PUSH1 0x40 DUP4 ADD DUP5 PUSH2 0x1279 JUMP JUMPDEST SWAP5 SWAP4 POP POP POP POP JUMP JUMPDEST PUSH1 0x0 DUP2 MLOAD SWAP1 POP PUSH2 0x1B35 DUP2 PUSH2 0x150C JUMP JUMPDEST SWAP3 SWAP2 POP POP JUMP JUMPDEST PUSH1 0x0 PUSH1 0x20 DUP3 DUP5 SUB SLT ISZERO PUSH2 0x1B51 JUMPI PUSH2 0x1B50 PUSH2 0x10C7 JUMP JUMPDEST JUMPDEST PUSH1 0x0 PUSH2 0x1B5F DUP5 DUP3 DUP6 ADD PUSH2 0x1B26 JUMP JUMPDEST SWAP2 POP POP SWAP3 SWAP2 POP POP JUMP JUMPDEST PUSH1 0x0 PUSH2 0x1B73 DUP3 PUSH2 0x10D1 JUMP JUMPDEST SWAP2 POP PUSH2 0x1B7E DUP4 PUSH2 0x10D1 JUMP JUMPDEST SWAP3 POP DUP3 DUP3 ADD SWAP1 POP DUP1 DUP3 GT ISZERO PUSH2 0x1B96 JUMPI PUSH2 0x1B95 PUSH2 0x1666 JUMP JUMPDEST JUMPDEST SWAP3 SWAP2 POP POP JUMP JUMPDEST PUSH1 0x0 PUSH1 0x40 DUP3 ADD SWAP1 POP PUSH2 0x1BB1 PUSH1 0x0 DUP4 ADD DUP6 PUSH2 0x1279 JUMP JUMPDEST PUSH2 0x1BBE PUSH1 0x20 DUP4 ADD DUP5 PUSH2 0x1279 JUMP JUMPDEST SWAP4 SWAP3 POP POP POP JUMP JUMPDEST PUSH32 0x4F6E6C79206C616E646C6F726400000000000000000000000000000000000000 PUSH1 0x0 DUP3 ADD MSTORE POP JUMP JUMPDEST PUSH1 0x0 PUSH2 0x1BFB PUSH1 0xD DUP4 PUSH2 0x1364 JUMP JUMPDEST SWAP2 POP PUSH2 0x1C06 DUP3 PUSH2 0x1BC5 JUMP JUMPDEST PUSH1 0x20 DUP3 ADD SWAP1 POP SWAP2 SWAP1 POP JUMP JUMPDEST PUSH1 0x0 PUSH1 0x20 DUP3 ADD SWAP1 POP DUP2 DUP2 SUB PUSH1 0x0 DUP4 ADD MSTORE PUSH2 0x1C2A DUP2 PUSH2 0x1BEE JUMP JUMPDEST SWAP1 POP SWAP2 SWAP1 POP JUMP JUMPDEST PUSH32 0x416C726561647920656E64656400000000000000000000000000000000000000 PUSH1 0x0 DUP3 ADD MSTORE POP JUMP JUMPDEST PUSH1 0x0 PUSH2 0x1C67 PUSH1 0xD DUP4 PUSH2 0x1364 JUMP JUMPDEST SWAP2 POP PUSH2 0x1C72 DUP3 PUSH2 0x1C31 JUMP JUMPDEST PUSH1 0x20 DUP3 ADD SWAP1 POP SWAP2 SWAP1 POP JUMP JUMPDEST PUSH1 0x0 PUSH1 0x20 DUP3 ADD SWAP1 POP DUP2 DUP2 SUB PUSH1 0x0 DUP4 ADD MSTORE PUSH2 0x1C96 DUP2 PUSH2 0x1C5A JUMP JUMPDEST SWAP1 POP SWAP2 SWAP1 POP JUMP JUMPDEST PUSH1 0x0 PUSH1 0x40 DUP3 ADD SWAP1 POP PUSH2 0x1CB2 PUSH1 0x0 DUP4 ADD DUP6 PUSH2 0x134A JUMP JUMPDEST PUSH2 0x1CBF PUSH1 0x20 DUP4 ADD DUP5 PUSH2 0x1279 JUMP JUMPDEST SWAP4 SWAP3 POP POP POP JUMP INVALID LOG2 PUSH5 0x6970667358 0x22 SLT KECCAK256 0xDA 0xEF 0xB0 CALLDATACOPY 0x22 0xC3 DUP14 TIMESTAMP 0x1E LOG3 DUP2 DUP5 0xE6 0xDA 0xCE PUSH23 0x6E7B5C1754323E77AA3AC4872763482564736F6C634300 ADDMOD EQ STOP CALLER "},"methodIdentifiers":{"createLease(uint256,address,address,uint256,uint256,string)":"18a62cc6","deposits(uint256)":"b02c43d0","endLease(uint256,bool,address)":"9125d193","leases(uint256)":"8927a106","nextLeaseId()":"902238e1","owner()":"8da5cb5b","payDeposit(uint256)":"28cd3f18","payRent(uint256)":"d9e8843f","registry()":"7b103999","renounceOwnership()":"715018a6","transferOwnership(address)":"f2fde38b"}}}}}