{
  "_format": "hh-sol-artifact-1",
  "contractName": "LeaseManager",
  "sourceName": "contracts/LeaseManager.sol",
  "abi": [
    {
      "inputs": [
        {
          "internalType": "address",
          "name": "propertyRegistry",
          "type": "address"
        }
      ],
      "stateMutability": "nonpayable",
      "type": "constructor"
    },
    {
      "inputs": [
        {
          "internalType": "address",
          "name": "owner",
          "type": "address"
        }
      ],
      "name": "OwnableInvalidOwner",
      "type": "error"
    },
    {
      "inputs": [
        {
          "internalType": "address",
          "name": "account",
          "type": "address"
        }
      ],
      "name": "OwnableUnauthorizedAccount",
      "type": "error"
    },
    {
      "inputs": [],
      "name": "ReentrancyGuardReentrantCall",
      "type": "error"
    },
    {
      "anonymous": false,
      "inputs": [
        {
          "indexed": false,
          "internalType": "uint256",
          "name": "leaseId",
          "type": "uint256"
        },
        {
          "indexed": false,
          "internalType": "uint256",
          "name": "amount",
          "type": "uint256"
        }
      ],
      "name": "DepositPaid",
      "type": "event"
    },
    {
      "anonymous": false,
      "inputs": [
        {
          "indexed": false,
          "internalType": "uint256",
          "name": "leaseId",
          "type": "uint256"
        },
        {
          "indexed": false,
          "internalType": "uint256",
          "name": "propertyId",
          "type": "uint256"
        },
        {
          "indexed": false,
          "internalType": "address",
          "name": "tenant",
          "type": "address"
        }
      ],
      "name": "LeaseCreated",
      "type": "event"
    },
    {
      "anonymous": false,
      "inputs": [
        {
          "indexed": false,
          "internalType": "uint256",
          "name": "leaseId",
          "type": "uint256"
        }
      ],
      "name": "LeaseEnded",
      "type": "event"
    },
    {
      "anonymous": false,
      "inputs": [
        {
          "indexed": true,
          "internalType": "address",
          "name": "previousOwner",
          "type": "address"
        },
        {
          "indexed": true,
          "internalType": "address",
          "name": "newOwner",
          "type": "address"
        }
      ],
      "name": "OwnershipTransferred",
      "type": "event"
    },
    {
      "anonymous": false,
      "inputs": [
        {
          "indexed": false,
          "internalType": "uint256",
          "name": "leaseId",
          "type": "uint256"
        },
        {
          "indexed": false,
          "internalType": "uint256",
          "name": "amount",
          "type": "uint256"
        }
      ],
      "name": "RentPaid",
      "type": "event"
    },
    {
      "inputs": [
        {
          "internalType": "uint256",
          "name": "propertyId",
          "type": "uint256"
        },
        {
          "internalType": "address",
          "name": "tenant",
          "type": "address"
        },
        {
          "internalType": "address",
          "name": "payToken",
          "type": "address"
        },
        {
          "internalType": "uint256",
          "name": "rentAmount",
          "type": "uint256"
        },
        {
          "internalType": "uint256",
          "name": "depositAmount",
          "type": "uint256"
        },
        {
          "internalType": "string",
          "name": "docCID",
          "type": "string"
        }
      ],
      "name": "createLease",
      "outputs": [
        {
          "internalType": "uint256",
          "name": "id",
          "type": "uint256"
        }
      ],
      "stateMutability": "nonpayable",
      "type": "function"
    },
    {
      "inputs": [
        {
          "internalType": "uint256",
          "name": "",
          "type": "uint256"
        }
      ],
      "name": "deposits",
      "outputs": [
        {
          "internalType": "uint256",
          "name": "",
          "type": "uint256"
        }
      ],
      "stateMutability": "view",
      "type": "function"
    },
    {
      "inputs": [
        {
          "internalType": "uint256",
          "name": "leaseId",
          "type": "uint256"
        },
        {
          "internalType": "bool",
          "name": "slashDeposit",
          "type": "bool"
        },
        {
          "internalType": "address",
          "name": "to",
          "type": "address"
        }
      ],
      "name": "endLease",
      "outputs": [],
      "stateMutability": "nonpayable",
      "type": "function"
    },
    {
      "inputs": [
        {
          "internalType": "uint256",
          "name": "",
          "type": "uint256"
        }
      ],
      "name": "leases",
      "outputs": [
        {
          "internalType": "uint256",
          "name": "propertyId",
          "type": "uint256"
        },
        {
          "internalType": "address",
          "name": "landlord",
          "type": "address"
        },
        {
          "internalType": "address",
          "name": "tenant",
          "type": "address"
        },
        {
          "internalType": "address",
          "name": "payToken",
          "type": "address"
        },
        {
          "internalType": "uint256",
          "name": "rentAmount",
          "type": "uint256"
        },
        {
          "internalType": "uint256",
          "name": "depositAmount",
          "type": "uint256"
        },
        {
          "internalType": "string",
          "name": "docCID",
          "type": "string"
        },
        {
          "internalType": "enum LeaseManager.Status",
          "name": "status",
          "type": "uint8"
        }
      ],
      "stateMutability": "view",
      "type": "function"
    },
    {
      "inputs": [],
      "name": "nextLeaseId",
      "outputs": [
        {
          "internalType": "uint256",
          "name": "",
          "type": "uint256"
        }
      ],
      "stateMutability": "view",
      "type": "function"
    },
    {
      "inputs": [],
      "name": "owner",
      "outputs": [
        {
          "internalType": "address",
          "name": "",
          "type": "address"
        }
      ],
      "stateMutability": "view",
      "type": "function"
    },
    {
      "inputs": [
        {
          "internalType": "uint256",
          "name": "leaseId",
          "type": "uint256"
        }
      ],
      "name": "payDeposit",
      "outputs": [],
      "stateMutability": "nonpayable",
      "type": "function"
    },
    {
      "inputs": [
        {
          "internalType": "uint256",
          "name": "leaseId",
          "type": "uint256"
        }
      ],
      "name": "payRent",
      "outputs": [],
      "stateMutability": "nonpayable",
      "type": "function"
    },
    {
      "inputs": [],
      "name": "registry",
      "outputs": [
        {
          "internalType": "contract IERC721",
          "name": "",
          "type": "address"
        }
      ],
      "stateMutability": "view",
      "type": "function"
    },
    {
      "inputs": [],
      "name": "renounceOwnership",
      "outputs": [],
      "stateMutability": "nonpayable",
      "type": "function"
    },
    {
      "inputs": [
        {
          "internalType": "address",
          "name": "newOwner",
          "type": "address"
        }
      ],
      "name": "transferOwnership",
      "outputs": [],
      "stateMutability": "nonpayable",
      "type": "function"
    }
  ],
  "bytecode": "0x60a06040523480156200001157600080fd5b5060405162001fb138038062001fb1833981810160405281019062000037919062000232565b336001600081905550600073ffffffffffffffffffffffffffffffffffffffff168173ffffffffffffffffffffffffffffffffffffffff1603620000b55760006040517f1e4fbdf7000000000000000000000000000000000000000000000000000000008152600401620000ac919062000275565b60405180910390fd5b620000c6816200010260201b60201c565b508073ffffffffffffffffffffffffffffffffffffffff1660808173ffffffffffffffffffffffffffffffffffffffff16815250505062000292565b6000600160009054906101000a900473ffffffffffffffffffffffffffffffffffffffff16905081600160006101000a81548173ffffffffffffffffffffffffffffffffffffffff021916908373ffffffffffffffffffffffffffffffffffffffff1602179055508173ffffffffffffffffffffffffffffffffffffffff168173ffffffffffffffffffffffffffffffffffffffff167f8be0079c531659141344cd1fd0a4f28419497f9722a3daafe3b4186f6b6457e060405160405180910390a35050565b600080fd5b600073ffffffffffffffffffffffffffffffffffffffff82169050919050565b6000620001fa82620001cd565b9050919050565b6200020c81620001ed565b81146200021857600080fd5b50565b6000815190506200022c8162000201565b92915050565b6000602082840312156200024b576200024a620001c8565b5b60006200025b848285016200021b565b91505092915050565b6200026f81620001ed565b82525050565b60006020820190506200028c600083018462000264565b92915050565b608051611cfc620002b56000396000818161023401526108060152611cfc6000f3fe608060405234801561001057600080fd5b50600436106100a95760003560e01c80638da5cb5b116100715780638da5cb5b14610159578063902238e1146101775780639125d19314610195578063b02c43d0146101b1578063d9e8843f146101e1578063f2fde38b146101fd576100a9565b806318a62cc6146100ae57806328cd3f18146100de578063715018a6146100fa5780637b103999146101045780638927a10614610122575b600080fd5b6100c860048036038101906100c391906111ca565b610219565b6040516100d59190611288565b60405180910390f35b6100f860048036038101906100f391906112a3565b6105a1565b005b6101026107f0565b005b61010c610804565b604051610119919061132f565b60405180910390f35b61013c600480360381019061013791906112a3565b610828565b604051610150989796959493929190611460565b60405180910390f35b610161610965565b60405161016e91906114e5565b60405180910390f35b61017f61098f565b60405161018c9190611288565b60405180910390f35b6101af60048036038101906101aa9190611538565b610995565b005b6101cb60048036038101906101c691906112a3565b610c45565b6040516101d89190611288565b60405180910390f35b6101fb60048036038101906101f691906112a3565b610c5d565b005b6102176004803603810190610212919061158b565b610e9c565b005b60003373ffffffffffffffffffffffffffffffffffffffff167f000000000000000000000000000000000000000000000000000000000000000073ffffffffffffffffffffffffffffffffffffffff16636352211e8a6040518263ffffffff1660e01b815260040161028b9190611288565b602060405180830381865afa1580156102a8573d6000803e3d6000fd5b505050506040513d601f19601f820116820180604052508101906102cc91906115cd565b73ffffffffffffffffffffffffffffffffffffffff1614610322576040517f08c379a000000000000000000000000000000000000000000000000000000000815260040161031990611646565b60405180910390fd5b60026000815461033190611695565b91905081905590506040518061010001604052808981526020013373ffffffffffffffffffffffffffffffffffffffff1681526020018873ffffffffffffffffffffffffffffffffffffffff1681526020018773ffffffffffffffffffffffffffffffffffffffff16815260200186815260200185815260200184848080601f016020809104026020016040519081016040528093929190818152602001838380828437600081840152601f19601f82011690508083019250505050505050815260200160016002811115610409576104086113e9565b5b815250600360008381526020019081526020016000206000820151816000015560208201518160010160006101000a81548173ffffffffffffffffffffffffffffffffffffffff021916908373ffffffffffffffffffffffffffffffffffffffff16021790555060408201518160020160006101000a81548173ffffffffffffffffffffffffffffffffffffffff021916908373ffffffffffffffffffffffffffffffffffffffff16021790555060608201518160030160006101000a81548173ffffffffffffffffffffffffffffffffffffffff021916908373ffffffffffffffffffffffffffffffffffffffff1602179055506080820151816004015560a0820151816005015560c0820151816006019081610527919061190e565b5060e08201518160070160006101000a81548160ff02191690836002811115610553576105526113e9565b5b02179055509050507f1db52a0ba6f5fba35e5fcc79db7884472359c375c118aa57cc7094b4e1b750e581898960405161058e939291906119e0565b60405180910390a1979650505050505050565b6105a9610f22565b6000600360008381526020019081526020016000209050600160028111156105d4576105d36113e9565b5b8160070160009054906101000a900460ff1660028111156105f8576105f76113e9565b5b14610638576040517f08c379a000000000000000000000000000000000000000000000000000000000815260040161062f90611a63565b60405180910390fd5b8060020160009054906101000a900473ffffffffffffffffffffffffffffffffffffffff1673ffffffffffffffffffffffffffffffffffffffff163373ffffffffffffffffffffffffffffffffffffffff16146106ca576040517f08c379a00000000000000000000000000000000000000000000000000000000081526004016106c190611acf565b60405180910390fd5b60008160030160009054906101000a900473ffffffffffffffffffffffffffffffffffffffff1690508073ffffffffffffffffffffffffffffffffffffffff166323b872dd333085600501546040518463ffffffff1660e01b815260040161073493929190611aef565b6020604051808303816000875af1158015610753573d6000803e3d6000fd5b505050506040513d601f19601f820116820180604052508101906107779190611b3b565b50816005015460046000858152602001908152602001600020600082825461079f9190611b68565b925050819055507fe3b7e5288074dee4d23f003d2d7686f455eb077b82960d0bc06440e01e3a2ba78383600501546040516107db929190611b9c565b60405180910390a150506107ed610f68565b50565b6107f8610f72565b6108026000610ff9565b565b7f000000000000000000000000000000000000000000000000000000000000000081565b60036020528060005260406000206000915090508060000154908060010160009054906101000a900473ffffffffffffffffffffffffffffffffffffffff16908060020160009054906101000a900473ffffffffffffffffffffffffffffffffffffffff16908060030160009054906101000a900473ffffffffffffffffffffffffffffffffffffffff16908060040154908060050154908060060180546108cf9061173b565b80601f01602080910402602001604051908101604052809291908181526020018280546108fb9061173b565b80156109485780601f1061091d57610100808354040283529160200191610948565b820191906000526020600020905b81548152906001019060200180831161092b57829003601f168201915b5050505050908060070160009054906101000a900460ff16905088565b6000600160009054906101000a900473ffffffffffffffffffffffffffffffffffffffff16905090565b60025481565b61099d610f22565b60006003600085815260200190815260200160002090508060010160009054906101000a900473ffffffffffffffffffffffffffffffffffffffff1673ffffffffffffffffffffffffffffffffffffffff163373ffffffffffffffffffffffffffffffffffffffff1614610a46576040517f08c379a0000000000000000000000000000000000000000000000000000000008152600401610a3d90611c11565b60405180910390fd5b60016002811115610a5a57610a596113e9565b5b8160070160009054906101000a900460ff166002811115610a7e57610a7d6113e9565b5b14610abe576040517f08c379a0000000000000000000000000000000000000000000000000000000008152600401610ab590611c7d565b60405180910390fd5b60028160070160006101000a81548160ff02191690836002811115610ae657610ae56113e9565b5b021790555060006004600086815260200190815260200160002054905060006004600087815260200190815260200160002081905550600084610b295783610b4f565b8260010160009054906101000a900473ffffffffffffffffffffffffffffffffffffffff165b90506000821115610bfe578260030160009054906101000a900473ffffffffffffffffffffffffffffffffffffffff1673ffffffffffffffffffffffffffffffffffffffff1663a9059cbb82846040518363ffffffff1660e01b8152600401610bb9929190611c9d565b6020604051808303816000875af1158015610bd8573d6000803e3d6000fd5b505050506040513d601f19601f82011682018060405250810190610bfc9190611b3b565b505b7f9bbc71338da3ea3da7477f5960427aa0fe6e98aeced78a369dd1b4357a50b9f186604051610c2d9190611288565b60405180910390a1505050610c40610f68565b505050565b60046020528060005260406000206000915090505481565b610c65610f22565b600060036000838152602001908152602001600020905060016002811115610c9057610c8f6113e9565b5b8160070160009054906101000a900460ff166002811115610cb457610cb36113e9565b5b14610cf4576040517f08c379a0000000000000000000000000000000000000000000000000000000008152600401610ceb90611a63565b60405180910390fd5b8060020160009054906101000a900473ffffffffffffffffffffffffffffffffffffffff1673ffffffffffffffffffffffffffffffffffffffff163373ffffffffffffffffffffffffffffffffffffffff1614610d86576040517f08c379a0000000000000000000000000000000000000000000000000000000008152600401610d7d90611acf565b60405180910390fd5b8060030160009054906101000a900473ffffffffffffffffffffffffffffffffffffffff1673ffffffffffffffffffffffffffffffffffffffff166323b872dd338360010160009054906101000a900473ffffffffffffffffffffffffffffffffffffffff1684600401546040518463ffffffff1660e01b8152600401610e0f93929190611aef565b6020604051808303816000875af1158015610e2e573d6000803e3d6000fd5b505050506040513d601f19601f82011682018060405250810190610e529190611b3b565b507fa0d112ed080c1b1a94b838ad981a23746be2a4670fd4bf157224e72cdd5dfdde828260040154604051610e88929190611b9c565b60405180910390a150610e99610f68565b50565b610ea4610f72565b600073ffffffffffffffffffffffffffffffffffffffff168173ffffffffffffffffffffffffffffffffffffffff1603610f165760006040517f1e4fbdf7000000000000000000000000000000000000000000000000000000008152600401610f0d91906114e5565b60405180910390fd5b610f1f81610ff9565b50565b600260005403610f5e576040517f3ee5aeb500000000000000000000000000000000000000000000000000000000815260040160405180910390fd5b6002600081905550565b6001600081905550565b610f7a6110bf565b73ffffffffffffffffffffffffffffffffffffffff16610f98610965565b73ffffffffffffffffffffffffffffffffffffffff1614610ff757610fbb6110bf565b6040517f118cdaa7000000000000000000000000000000000000000000000000000000008152600401610fee91906114e5565b60405180910390fd5b565b6000600160009054906101000a900473ffffffffffffffffffffffffffffffffffffffff16905081600160006101000a81548173ffffffffffffffffffffffffffffffffffffffff021916908373ffffffffffffffffffffffffffffffffffffffff1602179055508173ffffffffffffffffffffffffffffffffffffffff168173ffffffffffffffffffffffffffffffffffffffff167f8be0079c531659141344cd1fd0a4f28419497f9722a3daafe3b4186f6b6457e060405160405180910390a35050565b600033905090565b600080fd5b600080fd5b6000819050919050565b6110e4816110d1565b81146110ef57600080fd5b50565b600081359050611101816110db565b92915050565b600073ffffffffffffffffffffffffffffffffffffffff82169050919050565b600061113282611107565b9050919050565b61114281611127565b811461114d57600080fd5b50565b60008135905061115f81611139565b92915050565b600080fd5b600080fd5b600080fd5b60008083601f84011261118a57611189611165565b5b8235905067ffffffffffffffff8111156111a7576111a661116a565b5b6020830191508360018202830111156111c3576111c261116f565b5b9250929050565b600080600080600080600060c0888a0312156111e9576111e86110c7565b5b60006111f78a828b016110f2565b97505060206112088a828b01611150565b96505060406112198a828b01611150565b955050606061122a8a828b016110f2565b945050608061123b8a828b016110f2565b93505060a088013567ffffffffffffffff81111561125c5761125b6110cc565b5b6112688a828b01611174565b925092505092959891949750929550565b611282816110d1565b82525050565b600060208201905061129d6000830184611279565b92915050565b6000602082840312156112b9576112b86110c7565b5b60006112c7848285016110f2565b91505092915050565b6000819050919050565b60006112f56112f06112eb84611107565b6112d0565b611107565b9050919050565b6000611307826112da565b9050919050565b6000611319826112fc565b9050919050565b6113298161130e565b82525050565b60006020820190506113446000830184611320565b92915050565b61135381611127565b82525050565b600081519050919050565b600082825260208201905092915050565b60005b83811015611393578082015181840152602081019050611378565b60008484015250505050565b6000601f19601f8301169050919050565b60006113bb82611359565b6113c58185611364565b93506113d5818560208601611375565b6113de8161139f565b840191505092915050565b7f4e487b7100000000000000000000000000000000000000000000000000000000600052602160045260246000fd5b60038110611429576114286113e9565b5b50565b600081905061143a82611418565b919050565b600061144a8261142c565b9050919050565b61145a8161143f565b82525050565b600061010082019050611476600083018b611279565b611483602083018a61134a565b611490604083018961134a565b61149d606083018861134a565b6114aa6080830187611279565b6114b760a0830186611279565b81810360c08301526114c981856113b0565b90506114d860e0830184611451565b9998505050505050505050565b60006020820190506114fa600083018461134a565b92915050565b60008115159050919050565b61151581611500565b811461152057600080fd5b50565b6000813590506115328161150c565b92915050565b600080600060608486031215611551576115506110c7565b5b600061155f868287016110f2565b935050602061157086828701611523565b925050604061158186828701611150565b9150509250925092565b6000602082840312156115a1576115a06110c7565b5b60006115af84828501611150565b91505092915050565b6000815190506115c781611139565b92915050565b6000602082840312156115e3576115e26110c7565b5b60006115f1848285016115b8565b91505092915050565b7f4e6f742070726f7065727479206f776e65720000000000000000000000000000600082015250565b6000611630601283611364565b915061163b826115fa565b602082019050919050565b6000602082019050818103600083015261165f81611623565b9050919050565b7f4e487b7100000000000000000000000000000000000000000000000000000000600052601160045260246000fd5b60006116a0826110d1565b91507fffffffffffffffffffffffffffffffffffffffffffffffffffffffffffffffff82036116d2576116d1611666565b5b600182019050919050565b7f4e487b7100000000000000000000000000000000000000000000000000000000600052604160045260246000fd5b7f4e487b7100000000000000000000000000000000000000000000000000000000600052602260045260246000fd5b6000600282049050600182168061175357607f821691505b6020821081036117665761176561170c565b5b50919050565b60008190508160005260206000209050919050565b60006020601f8301049050919050565b600082821b905092915050565b6000600883026117ce7fffffffffffffffffffffffffffffffffffffffffffffffffffffffffffffffff82611791565b6117d88683611791565b95508019841693508086168417925050509392505050565b600061180b611806611801846110d1565b6112d0565b6110d1565b9050919050565b6000819050919050565b611825836117f0565b61183961183182611812565b84845461179e565b825550505050565b600090565b61184e611841565b61185981848461181c565b505050565b5b8181101561187d57611872600082611846565b60018101905061185f565b5050565b601f8211156118c2576118938161176c565b61189c84611781565b810160208510156118ab578190505b6118bf6118b785611781565b83018261185e565b50505b505050565b600082821c905092915050565b60006118e5600019846008026118c7565b1980831691505092915050565b60006118fe83836118d4565b9150826002028217905092915050565b61191782611359565b67ffffffffffffffff8111156119305761192f6116dd565b5b61193a825461173b565b611945828285611881565b600060209050601f8311600181146119785760008415611966578287015190505b61197085826118f2565b8655506119d8565b601f1984166119868661176c565b60005b828110156119ae57848901518255600182019150602085019450602081019050611989565b868310156119cb57848901516119c7601f8916826118d4565b8355505b6001600288020188555050505b505050505050565b60006060820190506119f56000830186611279565b611a026020830185611279565b611a0f604083018461134a565b949350505050565b7f496e616374697665000000000000000000000000000000000000000000000000600082015250565b6000611a4d600883611364565b9150611a5882611a17565b602082019050919050565b60006020820190508181036000830152611a7c81611a40565b9050919050565b7f4f6e6c792074656e616e74000000000000000000000000000000000000000000600082015250565b6000611ab9600b83611364565b9150611ac482611a83565b602082019050919050565b60006020820190508181036000830152611ae881611aac565b9050919050565b6000606082019050611b04600083018661134a565b611b11602083018561134a565b611b1e6040830184611279565b949350505050565b600081519050611b358161150c565b92915050565b600060208284031215611b5157611b506110c7565b5b6000611b5f84828501611b26565b91505092915050565b6000611b73826110d1565b9150611b7e836110d1565b9250828201905080821115611b9657611b95611666565b5b92915050565b6000604082019050611bb16000830185611279565b611bbe6020830184611279565b9392505050565b7f4f6e6c79206c616e646c6f726400000000000000000000000000000000000000600082015250565b6000611bfb600d83611364565b9150611c0682611bc5565b602082019050919050565b60006020820190508181036000830152611c2a81611bee565b9050919050565b7f416c726561647920656e64656400000000000000000000000000000000000000600082015250565b6000611c67600d83611364565b9150611c7282611c31565b602082019050919050565b60006020820190508181036000830152611c9681611c5a565b9050919050565b6000604082019050611cb2600083018561134a565b611cbf6020830184611279565b939250505056fea2646970667358221220daefb03722c38d421ea38184e6dace766e7b5c1754323e77aa3ac4872763482564736f6c63430008140033",
  "linkReferences": {},
  "deployedLinkReferences": {}
}