{"abi":[{"type":"constructor","inputs":[{"name":"propertyRegistry","type":"address","internalType":"address"}],"stateMutability":"nonpayable"},{"type":"function","name":"createLease","inputs":[{"name":"propertyId","type":"uint256","internalType":"uint256"},{"name":"tenant","type":"address","internalType":"address"},{"name":"payToken","type":"address","internalType":"address"},{"name":"rentAmount","type":"uint256","internalType":"uint256"},{"name":"depositAmount","type":"uint256","internalType":"uint256"},{"name":"docCID","type":"string","internalType":"string"}],"outputs":[{"name":"id","type":"uint256","internalType":"uint256"}],"stateMutability":"nonpayable"},{"type":"function","name":"deposits","inputs":[{"name":"","type":"uint256","internalType":"uint256"}],"outputs":[{"name":"","type":"uint256","internalType":"uint256"}],"stateMutability":"view"},{"type":"function","name":"endLease","inputs":[{"name":"leaseId","type":"uint256","internalType":"uint256"},{"name":"slashDeposit","type":"bool","internalType":"bool"},{"name":"to","type":"address","internalType":"address"}],"outputs":[],"stateMutability":"nonpayable"},{"type":"function","name":"leases","inputs":[{"name":"","type":"uint256","internalType":"uint256"}],"outputs":[{"name":"propertyId","type":"uint256","internalType":"uint256"},{"name":"landlord","type":"address","internalType":"address"},{"name":"tenant","type":"address","internalType":"address"},{"name":"payToken","type":"address","internalType":"address"},{"name":"rentAmount","type":"uint256","internalType":"uint256"},{"name":"depositAmount","type":"uint256","internalType":"uint256"},{"name":"docCID","type":"string","internalType":"string"},{"name":"status","type":"uint8","internalType":"enum LeaseManager.Status"}],"stateMutability":"view"},{"type":"function","name":"nextLeaseId","inputs":[],"outputs":[{"name":"","type":"uint256","internalType":"uint256"}],"stateMutability":"view"},{"type":"function","name":"owner","inputs":[],"outputs":[{"name":"","type":"address","internalType":"address"}],"stateMutability":"view"},{"type":"function","name":"payDeposit","inputs":[{"name":"leaseId","type":"uint256","internalType":"uint256"}],"outputs":[],"stateMutability":"nonpayable"},{"type":"function","name":"payRent","inputs":[{"name":"leaseId","type":"uint256","internalType":"uint256"}],"outputs":[],"stateMutability":"nonpayable"},{"type":"function","name":"registry","inputs":[],"outputs":[{"name":"","type":"address","internalType":"contract IERC721"}],"stateMutability":"view"},{"type":"function","name":"renounceOwnership","inputs":[],"outputs":[],"stateMutability":"nonpayable"},{"type":"function","name":"transferOwnership","inputs":[{"name":"newOwner","type":"address","internalType":"address"}],"outputs":[],"stateMutability":"nonpayable"},{"type":"event","name":"DepositPaid","inputs":[{"name":"leaseId","type":"uint256","indexed":false,"internalType":"uint256"},{"name":"amount","type":"uint256","indexed":false,"internalType":"uint256"}],"anonymous":false},{"type":"event","name":"LeaseCreated","inputs":[{"name":"leaseId","type":"uint256","indexed":false,"internalType":"uint256"},{"name":"propertyId","type":"uint256","indexed":false,"internalType":"uint256"},{"name":"tenant","type":"address","indexed":false,"internalType":"address"}],"anonymous":false},{"type":"event","name":"LeaseEnded","inputs":[{"name":"leaseId","type":"uint256","indexed":false,"internalType":"uint256"}],"anonymous":false},{"type":"event","name":"OwnershipTransferred","inputs":[{"name":"previousOwner","type":"address","indexed":true,"internalType":"address"},{"name":"newOwner","type":"address","indexed":true,"internalType":"address"}],"anonymous":false},{"type":"event","name":"RentPaid","inputs":[{"name":"leaseId","type":"uint256","indexed":false,"internalType":"uint256"},{"name":"amount","type":"uint256","indexed":false,"internalType":"uint256"}],"anonymous":false},{"type":"error","name":"OwnableInvalidOwner","inputs":[{"name":"owner","type":"address","internalType":"address"}]},{"type":"error","name":"OwnableUnauthorizedAccount","inputs":[{"name":"account","type":"address","internalType":"address"}]},{"type":"error","name":"ReentrancyGuardReentrantCall","inputs":[]}],"bytecode":{"object":"0x60a060405234801562000010575f80fd5b5060405162001edd38038062001edd833981810160405281019062000036919062000226565b3360015f819055505f73ffffffffffffffffffffffffffffffffffffffff168173ffffffffffffffffffffffffffffffffffffffff1603620000b1575f6040517f1e4fbdf7000000000000000000000000000000000000000000000000000000008152600401620000a8919062000267565b60405180910390fd5b620000c281620000fe60201b60201c565b508073ffffffffffffffffffffffffffffffffffffffff1660808173ffffffffffffffffffffffffffffffffffffffff16815250505062000282565b5f60015f9054906101000a900473ffffffffffffffffffffffffffffffffffffffff1690508160015f6101000a81548173ffffffffffffffffffffffffffffffffffffffff021916908373ffffffffffffffffffffffffffffffffffffffff1602179055508173ffffffffffffffffffffffffffffffffffffffff168173ffffffffffffffffffffffffffffffffffffffff167f8be0079c531659141344cd1fd0a4f28419497f9722a3daafe3b4186f6b6457e060405160405180910390a35050565b5f80fd5b5f73ffffffffffffffffffffffffffffffffffffffff82169050919050565b5f620001f082620001c5565b9050919050565b6200020281620001e4565b81146200020d575f80fd5b50565b5f815190506200022081620001f7565b92915050565b5f602082840312156200023e576200023d620001c1565b5b5f6200024d8482850162000210565b91505092915050565b6200026181620001e4565b82525050565b5f6020820190506200027c5f83018462000256565b92915050565b608051611c3b620002a25f395f818161023001526107e80152611c3b5ff3fe608060405234801561000f575f80fd5b50600436106100a7575f3560e01c80638da5cb5b1161006f5780638da5cb5b14610156578063902238e1146101745780639125d19314610192578063b02c43d0146101ae578063d9e8843f146101de578063f2fde38b146101fa576100a7565b806318a62cc6146100ab57806328cd3f18146100db578063715018a6146100f75780637b103999146101015780638927a1061461011f575b5f80fd5b6100c560048036038101906100c0919061116a565b610216565b6040516100d29190611223565b60405180910390f35b6100f560048036038101906100f0919061123c565b610591565b005b6100ff6107d3565b005b6101096107e6565b60405161011691906112c2565b60405180910390f35b6101396004803603810190610134919061123c565b61080a565b60405161014d9897969594939291906113e7565b60405180910390f35b61015e61093d565b60405161016b919061146a565b60405180910390f35b61017c610965565b6040516101899190611223565b60405180910390f35b6101ac60048036038101906101a791906114b8565b61096b565b005b6101c860048036038101906101c3919061123c565b610c08565b6040516101d59190611223565b60405180910390f35b6101f860048036038101906101f3919061123c565b610c1d565b005b610214600480360381019061020f9190611508565b610e52565b005b5f3373ffffffffffffffffffffffffffffffffffffffff167f000000000000000000000000000000000000000000000000000000000000000073ffffffffffffffffffffffffffffffffffffffff16636352211e8a6040518263ffffffff1660e01b81526004016102879190611223565b602060405180830381865afa1580156102a2573d5f803e3d5ffd5b505050506040513d601f19601f820116820180604052508101906102c69190611547565b73ffffffffffffffffffffffffffffffffffffffff161461031c576040517f08c379a0000000000000000000000000000000000000000000000000000000008152600401610313906115bc565b60405180910390fd5b60025f815461032a90611607565b91905081905590506040518061010001604052808981526020013373ffffffffffffffffffffffffffffffffffffffff1681526020018873ffffffffffffffffffffffffffffffffffffffff1681526020018773ffffffffffffffffffffffffffffffffffffffff16815260200186815260200185815260200184848080601f0160208091040260200160405190810160405280939291908181526020018383808284375f81840152601f19601f8201169050808301925050505050505081526020016001600281111561040157610400611374565b5b81525060035f8381526020019081526020015f205f820151815f01556020820151816001015f6101000a81548173ffffffffffffffffffffffffffffffffffffffff021916908373ffffffffffffffffffffffffffffffffffffffff1602179055506040820151816002015f6101000a81548173ffffffffffffffffffffffffffffffffffffffff021916908373ffffffffffffffffffffffffffffffffffffffff1602179055506060820151816003015f6101000a81548173ffffffffffffffffffffffffffffffffffffffff021916908373ffffffffffffffffffffffffffffffffffffffff1602179055506080820151816004015560a0820151816005015560c0820151816006019081610518919061186c565b5060e0820151816007015f6101000a81548160ff0219169083600281111561054357610542611374565b5b02179055509050507f1db52a0ba6f5fba35e5fcc79db7884472359c375c118aa57cc7094b4e1b750e581898960405161057e9392919061193b565b60405180910390a1979650505050505050565b610599610ed6565b5f60035f8381526020019081526020015f209050600160028111156105c1576105c0611374565b5b816007015f9054906101000a900460ff1660028111156105e4576105e3611374565b5b14610624576040517f08c379a000000000000000000000000000000000000000000000000000000000815260040161061b906119ba565b60405180910390fd5b806002015f9054906101000a900473ffffffffffffffffffffffffffffffffffffffff1673ffffffffffffffffffffffffffffffffffffffff163373ffffffffffffffffffffffffffffffffffffffff16146106b5576040517f08c379a00000000000000000000000000000000000000000000000000000000081526004016106ac90611a22565b60405180910390fd5b5f816003015f9054906101000a900473ffffffffffffffffffffffffffffffffffffffff1690508073ffffffffffffffffffffffffffffffffffffffff166323b872dd333085600501546040518463ffffffff1660e01b815260040161071d93929190611a40565b6020604051808303815f875af1158015610739573d5f803e3d5ffd5b505050506040513d601f19601f8201168201806040525081019061075d9190611a89565b50816005015460045f8581526020019081526020015f205f8282546107829190611ab4565b925050819055507fe3b7e5288074dee4d23f003d2d7686f455eb077b82960d0bc06440e01e3a2ba78383600501546040516107be929190611ae7565b60405180910390a150506107d0610f1a565b50565b6107db610f23565b6107e45f610faa565b565b7f000000000000000000000000000000000000000000000000000000000000000081565b6003602052805f5260405f205f91509050805f015490806001015f9054906101000a900473ffffffffffffffffffffffffffffffffffffffff1690806002015f9054906101000a900473ffffffffffffffffffffffffffffffffffffffff1690806003015f9054906101000a900473ffffffffffffffffffffffffffffffffffffffff16908060040154908060050154908060060180546108aa906116a8565b80601f01602080910402602001604051908101604052809291908181526020018280546108d6906116a8565b80156109215780601f106108f857610100808354040283529160200191610921565b820191905f5260205f20905b81548152906001019060200180831161090457829003601f168201915b505050505090806007015f9054906101000a900460ff16905088565b5f60015f9054906101000a900473ffffffffffffffffffffffffffffffffffffffff16905090565b60025481565b610973610ed6565b5f60035f8581526020019081526020015f209050806001015f9054906101000a900473ffffffffffffffffffffffffffffffffffffffff1673ffffffffffffffffffffffffffffffffffffffff163373ffffffffffffffffffffffffffffffffffffffff1614610a18576040517f08c379a0000000000000000000000000000000000000000000000000000000008152600401610a0f90611b58565b60405180910390fd5b60016002811115610a2c57610a2b611374565b5b816007015f9054906101000a900460ff166002811115610a4f57610a4e611374565b5b14610a8f576040517f08c379a0000000000000000000000000000000000000000000000000000000008152600401610a8690611bc0565b60405180910390fd5b6002816007015f6101000a81548160ff02191690836002811115610ab657610ab5611374565b5b02179055505f60045f8681526020019081526020015f205490505f60045f8781526020019081526020015f20819055505f84610af25783610b17565b826001015f9054906101000a900473ffffffffffffffffffffffffffffffffffffffff165b90505f821115610bc157826003015f9054906101000a900473ffffffffffffffffffffffffffffffffffffffff1673ffffffffffffffffffffffffffffffffffffffff1663a9059cbb82846040518363ffffffff1660e01b8152600401610b7f929190611bde565b6020604051808303815f875af1158015610b9b573d5f803e3d5ffd5b505050506040513d601f19601f82011682018060405250810190610bbf9190611a89565b505b7f9bbc71338da3ea3da7477f5960427aa0fe6e98aeced78a369dd1b4357a50b9f186604051610bf09190611223565b60405180910390a1505050610c03610f1a565b505050565b6004602052805f5260405f205f915090505481565b610c25610ed6565b5f60035f8381526020019081526020015f20905060016002811115610c4d57610c4c611374565b5b816007015f9054906101000a900460ff166002811115610c7057610c6f611374565b5b14610cb0576040517f08c379a0000000000000000000000000000000000000000000000000000000008152600401610ca7906119ba565b60405180910390fd5b806002015f9054906101000a900473ffffffffffffffffffffffffffffffffffffffff1673ffffffffffffffffffffffffffffffffffffffff163373ffffffffffffffffffffffffffffffffffffffff1614610d41576040517f08c379a0000000000000000000000000000000000000000000000000000000008152600401610d3890611a22565b60405180910390fd5b806003015f9054906101000a900473ffffffffffffffffffffffffffffffffffffffff1673ffffffffffffffffffffffffffffffffffffffff166323b872dd33836001015f9054906101000a900473ffffffffffffffffffffffffffffffffffffffff1684600401546040518463ffffffff1660e01b8152600401610dc893929190611a40565b6020604051808303815f875af1158015610de4573d5f803e3d5ffd5b505050506040513d601f19601f82011682018060405250810190610e089190611a89565b507fa0d112ed080c1b1a94b838ad981a23746be2a4670fd4bf157224e72cdd5dfdde828260040154604051610e3e929190611ae7565b60405180910390a150610e4f610f1a565b50565b610e5a610f23565b5f73ffffffffffffffffffffffffffffffffffffffff168173ffffffffffffffffffffffffffffffffffffffff1603610eca575f6040517f1e4fbdf7000000000000000000000000000000000000000000000000000000008152600401610ec1919061146a565b60405180910390fd5b610ed381610faa565b50565b60025f5403610f11576040517f3ee5aeb500000000000000000000000000000000000000000000000000000000815260040160405180910390fd5b60025f81905550565b60015f81905550565b610f2b61106d565b73ffffffffffffffffffffffffffffffffffffffff16610f4961093d565b73ffffffffffffffffffffffffffffffffffffffff1614610fa857610f6c61106d565b6040517f118cdaa7000000000000000000000000000000000000000000000000000000008152600401610f9f919061146a565b60405180910390fd5b565b5f60015f9054906101000a900473ffffffffffffffffffffffffffffffffffffffff1690508160015f6101000a81548173ffffffffffffffffffffffffffffffffffffffff021916908373ffffffffffffffffffffffffffffffffffffffff1602179055508173ffffffffffffffffffffffffffffffffffffffff168173ffffffffffffffffffffffffffffffffffffffff167f8be0079c531659141344cd1fd0a4f28419497f9722a3daafe3b4186f6b6457e060405160405180910390a35050565b5f33905090565b5f80fd5b5f80fd5b5f819050919050565b61108e8161107c565b8114611098575f80fd5b50565b5f813590506110a981611085565b92915050565b5f73ffffffffffffffffffffffffffffffffffffffff82169050919050565b5f6110d8826110af565b9050919050565b6110e8816110ce565b81146110f2575f80fd5b50565b5f81359050611103816110df565b92915050565b5f80fd5b5f80fd5b5f80fd5b5f8083601f84011261112a57611129611109565b5b8235905067ffffffffffffffff8111156111475761114661110d565b5b60208301915083600182028301111561116357611162611111565b5b9250929050565b5f805f805f805f60c0888a03121561118557611184611074565b5b5f6111928a828b0161109b565b97505060206111a38a828b016110f5565b96505060406111b48a828b016110f5565b95505060606111c58a828b0161109b565b94505060806111d68a828b0161109b565b93505060a088013567ffffffffffffffff8111156111f7576111f6611078565b5b6112038a828b01611115565b925092505092959891949750929550565b61121d8161107c565b82525050565b5f6020820190506112365f830184611214565b92915050565b5f6020828403121561125157611250611074565b5b5f61125e8482850161109b565b91505092915050565b5f819050919050565b5f61128a611285611280846110af565b611267565b6110af565b9050919050565b5f61129b82611270565b9050919050565b5f6112ac82611291565b9050919050565b6112bc816112a2565b82525050565b5f6020820190506112d55f8301846112b3565b92915050565b6112e4816110ce565b82525050565b5f81519050919050565b5f82825260208201905092915050565b5f5b83811015611321578082015181840152602081019050611306565b5f8484015250505050565b5f601f19601f8301169050919050565b5f611346826112ea565b61135081856112f4565b9350611360818560208601611304565b6113698161132c565b840191505092915050565b7f4e487b71000000000000000000000000000000000000000000000000000000005f52602160045260245ffd5b600381106113b2576113b1611374565b5b50565b5f8190506113c2826113a1565b919050565b5f6113d1826113b5565b9050919050565b6113e1816113c7565b82525050565b5f610100820190506113fb5f83018b611214565b611408602083018a6112db565b61141560408301896112db565b61142260608301886112db565b61142f6080830187611214565b61143c60a0830186611214565b81810360c083015261144e818561133c565b905061145d60e08301846113d8565b9998505050505050505050565b5f60208201905061147d5f8301846112db565b92915050565b5f8115159050919050565b61149781611483565b81146114a1575f80fd5b50565b5f813590506114b28161148e565b92915050565b5f805f606084860312156114cf576114ce611074565b5b5f6114dc8682870161109b565b93505060206114ed868287016114a4565b92505060406114fe868287016110f5565b9150509250925092565b5f6020828403121561151d5761151c611074565b5b5f61152a848285016110f5565b91505092915050565b5f81519050611541816110df565b92915050565b5f6020828403121561155c5761155b611074565b5b5f61156984828501611533565b91505092915050565b7f4e6f742070726f7065727479206f776e657200000000000000000000000000005f82015250565b5f6115a66012836112f4565b91506115b182611572565b602082019050919050565b5f6020820190508181035f8301526115d38161159a565b9050919050565b7f4e487b71000000000000000000000000000000000000000000000000000000005f52601160045260245ffd5b5f6116118261107c565b91507fffffffffffffffffffffffffffffffffffffffffffffffffffffffffffffffff8203611643576116426115da565b5b600182019050919050565b7f4e487b71000000000000000000000000000000000000000000000000000000005f52604160045260245ffd5b7f4e487b71000000000000000000000000000000000000000000000000000000005f52602260045260245ffd5b5f60028204905060018216806116bf57607f821691505b6020821081036116d2576116d161167b565b5b50919050565b5f819050815f5260205f209050919050565b5f6020601f8301049050919050565b5f82821b905092915050565b5f600883026117347fffffffffffffffffffffffffffffffffffffffffffffffffffffffffffffffff826116f9565b61173e86836116f9565b95508019841693508086168417925050509392505050565b5f61177061176b6117668461107c565b611267565b61107c565b9050919050565b5f819050919050565b61178983611756565b61179d61179582611777565b848454611705565b825550505050565b5f90565b6117b16117a5565b6117bc818484611780565b505050565b5b818110156117df576117d45f826117a9565b6001810190506117c2565b5050565b601f821115611824576117f5816116d8565b6117fe846116ea565b8101602085101561180d578190505b611821611819856116ea565b8301826117c1565b50505b505050565b5f82821c905092915050565b5f6118445f1984600802611829565b1980831691505092915050565b5f61185c8383611835565b9150826002028217905092915050565b611875826112ea565b67ffffffffffffffff81111561188e5761188d61164e565b5b61189882546116a8565b6118a38282856117e3565b5f60209050601f8311600181146118d4575f84156118c2578287015190505b6118cc8582611851565b865550611933565b601f1984166118e2866116d8565b5f5b82811015611909578489015182556001820191506020850194506020810190506118e4565b868310156119265784890151611922601f891682611835565b8355505b6001600288020188555050505b505050505050565b5f60608201905061194e5f830186611214565b61195b6020830185611214565b61196860408301846112db565b949350505050565b7f496e6163746976650000000000000000000000000000000000000000000000005f82015250565b5f6119a46008836112f4565b91506119af82611970565b602082019050919050565b5f6020820190508181035f8301526119d181611998565b9050919050565b7f4f6e6c792074656e616e740000000000000000000000000000000000000000005f82015250565b5f611a0c600b836112f4565b9150611a17826119d8565b602082019050919050565b5f6020820190508181035f830152611a3981611a00565b9050919050565b5f606082019050611a535f8301866112db565b611a6060208301856112db565b611a6d6040830184611214565b949350505050565b5f81519050611a838161148e565b92915050565b5f60208284031215611a9e57611a9d611074565b5b5f611aab84828501611a75565b91505092915050565b5f611abe8261107c565b9150611ac98361107c565b9250828201905080821115611ae157611ae06115da565b5b92915050565b5f604082019050611afa5f830185611214565b611b076020830184611214565b9392505050565b7f4f6e6c79206c616e646c6f7264000000000000000000000000000000000000005f82015250565b5f611b42600d836112f4565b9150611b4d82611b0e565b602082019050919050565b5f6020820190508181035f830152611b6f81611b36565b9050919050565b7f416c726561647920656e646564000000000000000000000000000000000000005f82015250565b5f611baa600d836112f4565b9150611bb582611b76565b602082019050919050565b5f6020820190508181035f830152611bd781611b9e565b9050919050565b5f604082019050611bf15f8301856112db565b611bfe6020830184611214565b939250505056fea264697066735822122042a56d5fb750b5f16c552b2acead4e11aa3837432d79370438644333a266ad0f64736f6c63430008140033","linkReferences":{}},"methodIdentifiers":{"createLease(uint256,address,address,uint256,uint256,string)":"18a62cc6","deposits(uint256)":"b02c43d0","endLease(uint256,bool,address)":"9125d193","leases(uint256)":"8927a106","nextLeaseId()":"902238e1","owner()":"8da5cb5b","payDeposit(uint256)":"28cd3f18","payRent(uint256)":"d9e8843f","registry()":"7b103999","renounceOwnership()":"715018a6","transferOwnership(address)":"f2fde38b"},"id":0}