{"abi":[{"type":"constructor","inputs":[],"stateMutability":"nonpayable"},{"type":"function","name":"approve","inputs":[{"name":"to","type":"address","internalType":"address"},{"name":"tokenId","type":"uint256","internalType":"uint256"}],"outputs":[],"stateMutability":"nonpayable"},{"type":"function","name":"approveLease","inputs":[{"name":"propertyId","type":"uint256","internalType":"uint256"},{"name":"requester","type":"address","internalType":"address"}],"outputs":[],"stateMutability":"nonpayable"},{"type":"function","name":"balanceOf","inputs":[{"name":"owner","type":"address","internalType":"address"}],"outputs":[{"name":"","type":"uint256","internalType":"uint256"}],"stateMutability":"view"},{"type":"function","name":"burnProperty","inputs":[{"name":"id","type":"uint256","internalType":"uint256"}],"outputs":[],"stateMutability":"nonpayable"},{"type":"function","name":"getAllProperties","inputs":[],"outputs":[{"name":"","type":"uint256[]","internalType":"uint256[]"}],"stateMutability":"view"},{"type":"function","name":"getApproved","inputs":[{"name":"tokenId","type":"uint256","internalType":"uint256"}],"outputs":[{"name":"","type":"address","internalType":"address"}],"stateMutability":"view"},{"type":"function","name":"getPendingRequests","inputs":[{"name":"propertyId","type":"uint256","internalType":"uint256"}],"outputs":[{"name":"","type":"address[]","internalType":"address[]"}],"stateMutability":"view"},{"type":"function","name":"getPropertiesByOwner","inputs":[{"name":"owner","type":"address","internalType":"address"}],"outputs":[{"name":"","type":"uint256[]","internalType":"uint256[]"}],"stateMutability":"view"},{"type":"function","name":"isApprovedForAll","inputs":[{"name":"owner","type":"address","internalType":"address"},{"name":"operator","type":"address","internalType":"address"}],"outputs":[{"name":"","type":"bool","internalType":"bool"}],"stateMutability":"view"},{"type":"function","name":"leaseApproved","inputs":[{"name":"","type":"uint256","internalType":"uint256"}],"outputs":[{"name":"","type":"bool","internalType":"bool"}],"stateMutability":"view"},{"type":"function","name":"metadataCID","inputs":[{"name":"","type":"uint256","internalType":"uint256"}],"outputs":[{"name":"","type":"string","internalType":"string"}],"stateMutability":"view"},{"type":"function","name":"mintProperty","inputs":[{"name":"to","type":"address","internalType":"address"},{"name":"cid","type":"string","internalType":"string"}],"outputs":[{"name":"","type":"uint256","internalType":"uint256"}],"stateMutability":"nonpayable"},{"type":"function","name":"name","inputs":[],"outputs":[{"name":"","type":"string","internalType":"string"}],"stateMutability":"view"},{"type":"function","name":"nextId","inputs":[],"outputs":[{"name":"","type":"uint256","internalType":"uint256"}],"stateMutability":"view"},{"type":"function","name":"ownerOf","inputs":[{"name":"tokenId","type":"uint256","internalType":"uint256"}],"outputs":[{"name":"","type":"address","internalType":"address"}],"stateMutability":"view"},{"type":"function","name":"pendingRequests","inputs":[{"name":"","type":"uint256","internalType":"uint256"},{"name":"","type":"uint256","internalType":"uint256"}],"outputs":[{"name":"","type":"address","internalType":"address"}],"stateMutability":"view"},{"type":"function","name":"requestLease","inputs":[{"name":"propertyId","type":"uint256","internalType":"uint256"}],"outputs":[],"stateMutability":"nonpayable"},{"type":"function","name":"safeTransferFrom","inputs":[{"name":"from","type":"address","internalType":"address"},{"name":"to","type":"address","internalType":"address"},{"name":"tokenId","type":"uint256","internalType":"uint256"}],"outputs":[],"stateMutability":"nonpayable"},{"type":"function","name":"safeTransferFrom","inputs":[{"name":"from","type":"address","internalType":"address"},{"name":"to","type":"address","internalType":"address"},{"name":"tokenId","type":"uint256","internalType":"uint256"},{"name":"data","type":"bytes","internalType":"bytes"}],"outputs":[],"stateMutability":"nonpayable"},{"type":"function","name":"setApprovalForAll","inputs":[{"name":"operator","type":"address","internalType":"address"},{"name":"approved","type":"bool","internalType":"bool"}],"outputs":[],"stateMutability":"nonpayable"},{"type":"function","name":"supportsInterface","inputs":[{"name":"interfaceId","type":"bytes4","internalType":"bytes4"}],"outputs":[{"name":"","type":"bool","internalType":"bool"}],"stateMutability":"view"},{"type":"function","name":"symbol","inputs":[],"outputs":[{"name":"","type":"string","internalType":"string"}],"stateMutability":"view"},{"type":"function","name":"tokenByIndex","inputs":[{"name":"index","type":"uint256","internalType":"uint256"}],"outputs":[{"name":"","type":"uint256","internalType":"uint256"}],"stateMutability":"view"},{"type":"function","name":"tokenOfOwnerByIndex","inputs":[{"name":"owner","type":"address","internalType":"address"},{"name":"index","type":"uint256","internalType":"uint256"}],"outputs":[{"name":"","type":"uint256","internalType":"uint256"}],"stateMutability":"view"},{"type":"function","name":"tokenURI","inputs":[{"name":"tokenId","type":"uint256","internalType":"uint256"}],"outputs":[{"name":"","type":"string","internalType":"string"}],"stateMutability":"view"},{"type":"function","name":"totalSupply","inputs":[],"outputs":[{"name":"","type":"uint256","internalType":"uint256"}],"stateMutability":"view"},{"type":"function","name":"transferFrom","inputs":[{"name":"from","type":"address","internalType":"address"},{"name":"to","type":"address","internalType":"address"},{"name":"tokenId","type":"uint256","internalType":"uint256"}],"outputs":[],"stateMutability":"nonpayable"},{"type":"event","name":"Approval","inputs":[{"name":"owner","type":"address","indexed":true,"internalType":"address"},{"name":"approved","type":"address","indexed":true,"internalType":"address"},{"name":"tokenId","type":"uint256","indexed":true,"internalType":"uint256"}],"anonymous":false},{"type":"event","name":"ApprovalForAll","inputs":[{"name":"owner","type":"address","indexed":true,"internalType":"address"},{"name":"operator","type":"address","indexed":true,"internalType":"address"},{"name":"approved","type":"bool","indexed":false,"internalType":"bool"}],"anonymous":false},{"type":"event","name":"Transfer","inputs":[{"name":"from","type":"address","indexed":true,"internalType":"address"},{"name":"to","type":"address","indexed":true,"internalType":"address"},{"name":"tokenId","type":"uint256","indexed":true,"internalType":"uint256"}],"anonymous":false},{"type":"error","name":"ERC721EnumerableForbiddenBatchMint","inputs":[]},{"type":"error","name":"ERC721IncorrectOwner","inputs":[{"name":"sender","type":"address","internalType":"address"},{"name":"tokenId","type":"uint256","internalType":"uint256"},{"name":"owner","type":"address","internalType":"address"}]},{"type":"error","name":"ERC721InsufficientApproval","inputs":[{"name":"operator","type":"address","internalType":"address"},{"name":"tokenId","type":"uint256","internalType":"uint256"}]},{"type":"error","name":"ERC721InvalidApprover","inputs":[{"name":"approver","type":"address","internalType":"address"}]},{"type":"error","name":"ERC721InvalidOperator","inputs":[{"name":"operator","type":"address","internalType":"address"}]},{"type":"error","name":"ERC721InvalidOwner","inputs":[{"name":"owner","type":"address","internalType":"address"}]},{"type":"error","name":"ERC721InvalidReceiver","inputs":[{"name":"receiver","type":"address","internalType":"address"}]},{"type":"error","name":"ERC721InvalidSender","inputs":[{"name":"sender","type":"address","internalType":"address"}]},{"type":"error","name":"ERC721NonexistentToken","inputs":[{"name":"tokenId","type":"uint256","internalType":"uint256"}]},{"type":"error","name":"ERC721OutOfBoundsIndex","inputs":[{"name":"owner","type":"address","internalType":"address"},{"name":"index","type":"uint256","internalType":"uint256"}]}],"bytecode":{"object":"0x608060405234801562000010575f80fd5b506040518060400160405280600d81526020017f477265656e50726f7065727479000000000000000000000000000000000000008152506040518060400160405280600581526020017f4750524f50000000000000000000000000000000000000000000000000000000815250815f90816200008d91906200030c565b5080600190816200009f91906200030c565b505050620003f0565b5f81519050919050565b7f4e487b71000000000000000000000000000000000000000000000000000000005f52604160045260245ffd5b7f4e487b71000000000000000000000000000000000000000000000000000000005f52602260045260245ffd5b5f60028204905060018216806200012457607f821691505b6020821081036200013a5762000139620000df565b5b50919050565b5f819050815f5260205f209050919050565b5f6020601f8301049050919050565b5f82821b905092915050565b5f600883026200019e7fffffffffffffffffffffffffffffffffffffffffffffffffffffffffffffffff8262000161565b620001aa868362000161565b95508019841693508086168417925050509392505050565b5f819050919050565b5f819050919050565b5f620001f4620001ee620001e884620001c2565b620001cb565b620001c2565b9050919050565b5f819050919050565b6200020f83620001d4565b620002276200021e82620001fb565b8484546200016d565b825550505050565b5f90565b6200023d6200022f565b6200024a81848462000204565b505050565b5b818110156200027157620002655f8262000233565b60018101905062000250565b5050565b601f821115620002c0576200028a8162000140565b620002958462000152565b81016020851015620002a5578190505b620002bd620002b48562000152565b8301826200024f565b50505b505050565b5f82821c905092915050565b5f620002e25f1984600802620002c5565b1980831691505092915050565b5f620002fc8383620002d1565b9150826002028217905092915050565b6200031782620000a8565b67ffffffffffffffff811115620003335762000332620000b2565b5b6200033f82546200010c565b6200034c82828562000275565b5f60209050601f83116001811462000382575f84156200036d578287015190505b620003798582620002ef565b865550620003e8565b601f198416620003928662000140565b5f5b82811015620003bb5784890151825560018201915060208501945060208101905062000394565b86831015620003db5784890151620003d7601f891682620002d1565b8355505b6001600288020188555050505b505050505050565b6136e780620003fe5f395ff3fe608060405234801561000f575f80fd5b50600436106101a7575f3560e01c80634f6ccce7116100f75780639fcb274811610095578063c801dacc1161006f578063c801dacc14610501578063c87b56dd14610531578063e985e9c514610561578063ee76c90514610591576101a7565b80639fcb274814610499578063a22cb465146104c9578063b88d4fde146104e5576101a7565b806370a08231116100d157806370a08231146103eb57806392ac85b91461041b57806395d89b411461044b5780639cbdf59314610469576101a7565b80634f6ccce71461036d57806361b8ce8c1461039d5780636352211e146103bb576101a7565b8063177dc17f1161016457806323b872dd1161013e57806323b872dd146102e75780632f745c59146103035780633d51402c1461033357806342842e0e14610351576101a7565b8063177dc17f1461027d57806318160ddd146102ad5780631d0e365d146102cb576101a7565b806301d177f1146101ab57806301ffc9a7146101c757806303bf86d4146101f757806306fdde0314610213578063081812fc14610231578063095ea7b314610261575b5f80fd5b6101c560048036038101906101c091906126bf565b6105c1565b005b6101e160048036038101906101dc919061273f565b61065f565b6040516101ee9190612784565b60405180910390f35b610211600480360381019061020c91906126bf565b6106d8565b005b61021b610802565b6040516102289190612827565b60405180910390f35b61024b600480360381019061024691906126bf565b610891565b6040516102589190612886565b60405180910390f35b61027b600480360381019061027691906128c9565b6108ac565b005b61029760048036038101906102929190612a33565b6108c2565b6040516102a49190612a9c565b60405180910390f35b6102b561090d565b6040516102c29190612a9c565b60405180910390f35b6102e560048036038101906102e09190612ab5565b610919565b005b61030160048036038101906102fc9190612af3565b610b26565b005b61031d600480360381019061031891906128c9565b610c25565b60405161032a9190612a9c565b60405180910390f35b61033b610cc9565b6040516103489190612bfa565b60405180910390f35b61036b60048036038101906103669190612af3565b610e1c565b005b610387600480360381019061038291906126bf565b610e3b565b6040516103949190612a9c565b60405180910390f35b6103a5610ead565b6040516103b29190612a9c565b60405180910390f35b6103d560048036038101906103d091906126bf565b610eb3565b6040516103e29190612886565b60405180910390f35b61040560048036038101906104009190612c1a565b610ec4565b6040516104129190612a9c565b60405180910390f35b610435600480360381019061043091906126bf565b610f7a565b6040516104429190612784565b60405180910390f35b610453610f97565b6040516104609190612827565b60405180910390f35b610483600480360381019061047e91906126bf565b611027565b6040516104909190612cfc565b60405180910390f35b6104b360048036038101906104ae9190612c1a565b6110c3565b6040516104c09190612bfa565b60405180910390f35b6104e360048036038101906104de9190612d46565b61116e565b005b6104ff60048036038101906104fa9190612e22565b611184565b005b61051b60048036038101906105169190612ea2565b6111a1565b6040516105289190612886565b60405180910390f35b61054b600480360381019061054691906126bf565b6111e9565b6040516105589190612827565b60405180910390f35b61057b60048036038101906105769190612ee0565b61124f565b6040516105889190612784565b60405180910390f35b6105ab60048036038101906105a691906126bf565b6112dd565b6040516105b89190612827565b60405180910390f35b3373ffffffffffffffffffffffffffffffffffffffff166105e182610eb3565b73ffffffffffffffffffffffffffffffffffffffff1614610637576040517f08c379a000000000000000000000000000000000000000000000000000000000815260040161062e90612f68565b60405180910390fd5b61064081611378565b600b5f8281526020019081526020015f205f61065c9190612605565b50565b5f7f780e9d63000000000000000000000000000000000000000000000000000000007bffffffffffffffffffffffffffffffffffffffffffffffffffffffff1916827bffffffffffffffffffffffffffffffffffffffffffffffffffffffff191614806106d157506106d0826113fa565b5b9050919050565b5f811161071a576040517f08c379a000000000000000000000000000000000000000000000000000000000815260040161071190612fd0565b60405180910390fd5b3373ffffffffffffffffffffffffffffffffffffffff1661073a82610eb3565b73ffffffffffffffffffffffffffffffffffffffff1603610790576040517f08c379a000000000000000000000000000000000000000000000000000000000815260040161078790613038565b60405180910390fd5b600c5f8281526020019081526020015f2033908060018154018082558091505060019003905f5260205f20015f9091909190916101000a81548173ffffffffffffffffffffffffffffffffffffffff021916908373ffffffffffffffffffffffffffffffffffffffff16021790555050565b60605f805461081090613083565b80601f016020809104026020016040519081016040528092919081815260200182805461083c90613083565b80156108875780601f1061085e57610100808354040283529160200191610887565b820191905f5260205f20905b81548152906001019060200180831161086a57829003601f168201915b5050505050905090565b5f61089b826114db565b506108a582611561565b9050919050565b6108be82826108b961159a565b6115a1565b5050565b5f80600a5f81546108d2906130e0565b91905081905590506108e484826115b3565b82600b5f8381526020019081526020015f20908161090291906132c4565b508091505092915050565b5f600880549050905090565b3373ffffffffffffffffffffffffffffffffffffffff1661093983610eb3565b73ffffffffffffffffffffffffffffffffffffffff161461098f576040517f08c379a0000000000000000000000000000000000000000000000000000000008152600401610986906133dd565b60405180910390fd5b5f600c5f8481526020019081526020015f20805480602002602001604051908101604052809291908181526020018280548015610a1e57602002820191905f5260205f20905b815f9054906101000a900473ffffffffffffffffffffffffffffffffffffffff1673ffffffffffffffffffffffffffffffffffffffff16815260200190600101908083116109d5575b505050505090505f805b8251811015610a9a578373ffffffffffffffffffffffffffffffffffffffff16838281518110610a5b57610a5a6133fb565b5b602002602001015173ffffffffffffffffffffffffffffffffffffffff1603610a875760019150610a9a565b8080610a92906130e0565b915050610a28565b5080610adb576040517f08c379a0000000000000000000000000000000000000000000000000000000008152600401610ad290613472565b60405180910390fd5b6001600d5f8681526020019081526020015f205f6101000a81548160ff021916908315150217905550600c5f8581526020019081526020015f205f610b209190612642565b50505050565b5f73ffffffffffffffffffffffffffffffffffffffff168273ffffffffffffffffffffffffffffffffffffffff1603610b96575f6040517f64a0ae92000000000000000000000000000000000000000000000000000000008152600401610b8d9190612886565b60405180910390fd5b5f610ba98383610ba461159a565b6115d0565b90508373ffffffffffffffffffffffffffffffffffffffff168173ffffffffffffffffffffffffffffffffffffffff1614610c1f578382826040517f64283d7b000000000000000000000000000000000000000000000000000000008152600401610c1693929190613490565b60405180910390fd5b50505050565b5f610c2f83610ec4565b8210610c745782826040517fa57d13dc000000000000000000000000000000000000000000000000000000008152600401610c6b9291906134c5565b60405180910390fd5b60065f8473ffffffffffffffffffffffffffffffffffffffff1673ffffffffffffffffffffffffffffffffffffffff1681526020019081526020015f205f8381526020019081526020015f2054905092915050565b60605f80600190505b600a548111610d38575f73ffffffffffffffffffffffffffffffffffffffff16610cfb826116ea565b73ffffffffffffffffffffffffffffffffffffffff1614610d25578180610d21906130e0565b9250505b8080610d30906130e0565b915050610cd2565b505f8167ffffffffffffffff811115610d5457610d5361290f565b5b604051908082528060200260200182016040528015610d825781602001602082028036833780820191505090505b5090505f80600190505b600a548111610e12575f73ffffffffffffffffffffffffffffffffffffffff16610db5826116ea565b73ffffffffffffffffffffffffffffffffffffffff1614610dff5780838381518110610de457610de36133fb565b5b6020026020010181815250508180610dfb906130e0565b9250505b8080610e0a906130e0565b915050610d8c565b5081935050505090565b610e3683838360405180602001604052805f815250611184565b505050565b5f610e4461090d565b8210610e89575f826040517fa57d13dc000000000000000000000000000000000000000000000000000000008152600401610e809291906134c5565b60405180910390fd5b60088281548110610e9d57610e9c6133fb565b5b905f5260205f2001549050919050565b600a5481565b5f610ebd826114db565b9050919050565b5f8073ffffffffffffffffffffffffffffffffffffffff168273ffffffffffffffffffffffffffffffffffffffff1603610f35575f6040517f89c62b64000000000000000000000000000000000000000000000000000000008152600401610f2c9190612886565b60405180910390fd5b60035f8373ffffffffffffffffffffffffffffffffffffffff1673ffffffffffffffffffffffffffffffffffffffff1681526020019081526020015f20549050919050565b600d602052805f5260405f205f915054906101000a900460ff1681565b606060018054610fa690613083565b80601f0160208091040260200160405190810160405280929190818152602001828054610fd290613083565b801561101d5780601f10610ff45761010080835404028352916020019161101d565b820191905f5260205f20905b81548152906001019060200180831161100057829003601f168201915b5050505050905090565b6060600c5f8381526020019081526020015f208054806020026020016040519081016040528092919081815260200182805480156110b757602002820191905f5260205f20905b815f9054906101000a900473ffffffffffffffffffffffffffffffffffffffff1673ffffffffffffffffffffffffffffffffffffffff168152602001906001019080831161106e575b50505050509050919050565b60605f6110cf83610ec4565b90505f8167ffffffffffffffff8111156110ec576110eb61290f565b5b60405190808252806020026020018201604052801561111a5781602001602082028036833780820191505090505b5090505f5b82811015611163576111318582610c25565b828281518110611144576111436133fb565b5b602002602001018181525050808061115b906130e0565b91505061111f565b508092505050919050565b61118061117961159a565b8383611723565b5050565b61118f848484610b26565b61119b8484848461188c565b50505050565b600c602052815f5260405f2081815481106111ba575f80fd5b905f5260205f20015f915091509054906101000a900473ffffffffffffffffffffffffffffffffffffffff1681565b60606111f4826114db565b505f6111fe611a3e565b90505f81511161121c5760405180602001604052805f815250611247565b8061122684611a54565b604051602001611237929190613526565b6040516020818303038152906040525b915050919050565b5f60055f8473ffffffffffffffffffffffffffffffffffffffff1673ffffffffffffffffffffffffffffffffffffffff1681526020019081526020015f205f8373ffffffffffffffffffffffffffffffffffffffff1673ffffffffffffffffffffffffffffffffffffffff1681526020019081526020015f205f9054906101000a900460ff16905092915050565b600b602052805f5260405f205f9150905080546112f990613083565b80601f016020809104026020016040519081016040528092919081815260200182805461132590613083565b80156113705780601f1061134757610100808354040283529160200191611370565b820191905f5260205f20905b81548152906001019060200180831161135357829003601f168201915b505050505081565b5f6113845f835f6115d0565b90505f73ffffffffffffffffffffffffffffffffffffffff168173ffffffffffffffffffffffffffffffffffffffff16036113f657816040517f7e2732890000000000000000000000000000000000000000000000000000000081526004016113ed9190612a9c565b60405180910390fd5b5050565b5f7f80ac58cd000000000000000000000000000000000000000000000000000000007bffffffffffffffffffffffffffffffffffffffffffffffffffffffff1916827bffffffffffffffffffffffffffffffffffffffffffffffffffffffff191614806114c457507f5b5e139f000000000000000000000000000000000000000000000000000000007bffffffffffffffffffffffffffffffffffffffffffffffffffffffff1916827bffffffffffffffffffffffffffffffffffffffffffffffffffffffff1916145b806114d457506114d382611b1e565b5b9050919050565b5f806114e6836116ea565b90505f73ffffffffffffffffffffffffffffffffffffffff168173ffffffffffffffffffffffffffffffffffffffff160361155857826040517f7e27328900000000000000000000000000000000000000000000000000000000815260040161154f9190612a9c565b60405180910390fd5b80915050919050565b5f60045f8381526020019081526020015f205f9054906101000a900473ffffffffffffffffffffffffffffffffffffffff169050919050565b5f33905090565b6115ae8383836001611b87565b505050565b6115cc828260405180602001604052805f815250611d46565b5050565b5f806115dd858585611d61565b90505f73ffffffffffffffffffffffffffffffffffffffff168173ffffffffffffffffffffffffffffffffffffffff16036116205761161b84611f6c565b61165f565b8473ffffffffffffffffffffffffffffffffffffffff168173ffffffffffffffffffffffffffffffffffffffff161461165e5761165d8185611fb0565b5b5b5f73ffffffffffffffffffffffffffffffffffffffff168573ffffffffffffffffffffffffffffffffffffffff16036116a05761169b846120fa565b6116df565b8473ffffffffffffffffffffffffffffffffffffffff168173ffffffffffffffffffffffffffffffffffffffff16146116de576116dd85856121ba565b5b5b809150509392505050565b5f60025f8381526020019081526020015f205f9054906101000a900473ffffffffffffffffffffffffffffffffffffffff169050919050565b5f73ffffffffffffffffffffffffffffffffffffffff168273ffffffffffffffffffffffffffffffffffffffff160361179357816040517f5b08ba1800000000000000000000000000000000000000000000000000000000815260040161178a9190612886565b60405180910390fd5b8060055f8573ffffffffffffffffffffffffffffffffffffffff1673ffffffffffffffffffffffffffffffffffffffff1681526020019081526020015f205f8473ffffffffffffffffffffffffffffffffffffffff1673ffffffffffffffffffffffffffffffffffffffff1681526020019081526020015f205f6101000a81548160ff0219169083151502179055508173ffffffffffffffffffffffffffffffffffffffff168373ffffffffffffffffffffffffffffffffffffffff167f17307eab39ab6107e8899845ad3d59bd9653f200f220920489ca2b5937696c318360405161187f9190612784565b60405180910390a3505050565b5f8373ffffffffffffffffffffffffffffffffffffffff163b1115611a38578273ffffffffffffffffffffffffffffffffffffffff1663150b7a026118cf61159a565b8685856040518563ffffffff1660e01b81526004016118f1949392919061359b565b6020604051808303815f875af192505050801561192c57506040513d601f19601f8201168201806040525081019061192991906135f9565b60015b6119ad573d805f811461195a576040519150601f19603f3d011682016040523d82523d5f602084013e61195f565b606091505b505f8151036119a557836040517f64a0ae9200000000000000000000000000000000000000000000000000000000815260040161199c9190612886565b60405180910390fd5b805181602001fd5b63150b7a0260e01b7bffffffffffffffffffffffffffffffffffffffffffffffffffffffff1916817bffffffffffffffffffffffffffffffffffffffffffffffffffffffff191614611a3657836040517f64a0ae92000000000000000000000000000000000000000000000000000000008152600401611a2d9190612886565b60405180910390fd5b505b50505050565b606060405180602001604052805f815250905090565b60605f6001611a628461223e565b0190505f8167ffffffffffffffff811115611a8057611a7f61290f565b5b6040519080825280601f01601f191660200182016040528015611ab25781602001600182028036833780820191505090505b5090505f82602001820190505b600115611b13578080600190039150507f3031323334353637383961626364656600000000000000000000000000000000600a86061a8153600a8581611b0857611b07613624565b5b0494505f8503611abf575b819350505050919050565b5f7f01ffc9a7000000000000000000000000000000000000000000000000000000007bffffffffffffffffffffffffffffffffffffffffffffffffffffffff1916827bffffffffffffffffffffffffffffffffffffffffffffffffffffffff1916149050919050565b8080611bbf57505f73ffffffffffffffffffffffffffffffffffffffff168273ffffffffffffffffffffffffffffffffffffffff1614155b15611cf1575f611bce846114db565b90505f73ffffffffffffffffffffffffffffffffffffffff168373ffffffffffffffffffffffffffffffffffffffff1614158015611c3857508273ffffffffffffffffffffffffffffffffffffffff168173ffffffffffffffffffffffffffffffffffffffff1614155b8015611c4b5750611c49818461124f565b155b15611c8d57826040517fa9fbf51f000000000000000000000000000000000000000000000000000000008152600401611c849190612886565b60405180910390fd5b8115611cef57838573ffffffffffffffffffffffffffffffffffffffff168273ffffffffffffffffffffffffffffffffffffffff167f8c5be1e5ebec7d5bd14f71427d1e84f3dd0314c0f7b2291e5b200ac8c7c3b92560405160405180910390a45b505b8360045f8581526020019081526020015f205f6101000a81548173ffffffffffffffffffffffffffffffffffffffff021916908373ffffffffffffffffffffffffffffffffffffffff16021790555050505050565b611d50838361238f565b611d5c5f84848461188c565b505050565b5f80611d6c846116ea565b90505f73ffffffffffffffffffffffffffffffffffffffff168373ffffffffffffffffffffffffffffffffffffffff1614611dad57611dac818486612482565b5b5f73ffffffffffffffffffffffffffffffffffffffff168173ffffffffffffffffffffffffffffffffffffffff1614611e3857611dec5f855f80611b87565b600160035f8373ffffffffffffffffffffffffffffffffffffffff1673ffffffffffffffffffffffffffffffffffffffff1681526020019081526020015f205f82825403925050819055505b5f73ffffffffffffffffffffffffffffffffffffffff168573ffffffffffffffffffffffffffffffffffffffff1614611eb757600160035f8773ffffffffffffffffffffffffffffffffffffffff1673ffffffffffffffffffffffffffffffffffffffff1681526020019081526020015f205f82825401925050819055505b8460025f8681526020019081526020015f205f6101000a81548173ffffffffffffffffffffffffffffffffffffffff021916908373ffffffffffffffffffffffffffffffffffffffff160217905550838573ffffffffffffffffffffffffffffffffffffffff168273ffffffffffffffffffffffffffffffffffffffff167fddf252ad1be2c89b69c2b068fc378daa952ba7f163c4a11628f55a4df523b3ef60405160405180910390a4809150509392505050565b60088054905060095f8381526020019081526020015f2081905550600881908060018154018082558091505060019003905f5260205f20015f909190919091505550565b5f611fba83610ec4565b90505f60075f8481526020019081526020015f20549050818114612091575f60065f8673ffffffffffffffffffffffffffffffffffffffff1673ffffffffffffffffffffffffffffffffffffffff1681526020019081526020015f205f8481526020019081526020015f205490508060065f8773ffffffffffffffffffffffffffffffffffffffff1673ffffffffffffffffffffffffffffffffffffffff1681526020019081526020015f205f8481526020019081526020015f20819055508160075f8381526020019081526020015f2081905550505b60075f8481526020019081526020015f205f905560065f8573ffffffffffffffffffffffffffffffffffffffff1673ffffffffffffffffffffffffffffffffffffffff1681526020019081526020015f205f8381526020019081526020015f205f905550505050565b5f600160088054905061210d9190613651565b90505f60095f8481526020019081526020015f205490505f60088381548110612139576121386133fb565b5b905f5260205f20015490508060088381548110612159576121586133fb565b5b905f5260205f2001819055508160095f8381526020019081526020015f208190555060095f8581526020019081526020015f205f905560088054806121a1576121a0613684565b5b600190038181905f5260205f20015f9055905550505050565b5f60016121c684610ec4565b6121d09190613651565b90508160065f8573ffffffffffffffffffffffffffffffffffffffff1673ffffffffffffffffffffffffffffffffffffffff1681526020019081526020015f205f8381526020019081526020015f20819055508060075f8481526020019081526020015f2081905550505050565b5f805f90507a184f03e93ff9f4daa797ed6e38ed64bf6a1f010000000000000000831061229a577a184f03e93ff9f4daa797ed6e38ed64bf6a1f01000000000000000083816122905761228f613624565b5b0492506040810190505b6d04ee2d6d415b85acef810000000083106122d7576d04ee2d6d415b85acef810000000083816122cd576122cc613624565b5b0492506020810190505b662386f26fc10000831061230657662386f26fc1000083816122fc576122fb613624565b5b0492506010810190505b6305f5e100831061232f576305f5e100838161232557612324613624565b5b0492506008810190505b612710831061235457612710838161234a57612349613624565b5b0492506004810190505b60648310612377576064838161236d5761236c613624565b5b0492506002810190505b600a8310612386576001810190505b80915050919050565b5f73ffffffffffffffffffffffffffffffffffffffff168273ffffffffffffffffffffffffffffffffffffffff16036123ff575f6040517f64a0ae920000000000000000000000000000000000000000000000000000000081526004016123f69190612886565b60405180910390fd5b5f61240b83835f6115d0565b90505f73ffffffffffffffffffffffffffffffffffffffff168173ffffffffffffffffffffffffffffffffffffffff161461247d575f6040517f73c6ac6e0000000000000000000000000000000000000000000000000000000081526004016124749190612886565b60405180910390fd5b505050565b61248d838383612545565b612540575f73ffffffffffffffffffffffffffffffffffffffff168373ffffffffffffffffffffffffffffffffffffffff160361250157806040517f7e2732890000000000000000000000000000000000000000000000000000000081526004016124f89190612a9c565b60405180910390fd5b81816040517f177e802f0000000000000000000000000000000000000000000000000000000081526004016125379291906134c5565b60405180910390fd5b505050565b5f8073ffffffffffffffffffffffffffffffffffffffff168373ffffffffffffffffffffffffffffffffffffffff16141580156125fc57508273ffffffffffffffffffffffffffffffffffffffff168473ffffffffffffffffffffffffffffffffffffffff1614806125bd57506125bc848461124f565b5b806125fb57508273ffffffffffffffffffffffffffffffffffffffff166125e383611561565b73ffffffffffffffffffffffffffffffffffffffff16145b5b90509392505050565b50805461261190613083565b5f825580601f10612622575061263f565b601f0160209004905f5260205f209081019061263e9190612660565b5b50565b5080545f8255905f5260205f209081019061265d9190612660565b50565b5b80821115612677575f815f905550600101612661565b5090565b5f604051905090565b5f80fd5b5f80fd5b5f819050919050565b61269e8161268c565b81146126a8575f80fd5b50565b5f813590506126b981612695565b92915050565b5f602082840312156126d4576126d3612684565b5b5f6126e1848285016126ab565b91505092915050565b5f7fffffffff0000000000000000000000000000000000000000000000000000000082169050919050565b61271e816126ea565b8114612728575f80fd5b50565b5f8135905061273981612715565b92915050565b5f6020828403121561275457612753612684565b5b5f6127618482850161272b565b91505092915050565b5f8115159050919050565b61277e8161276a565b82525050565b5f6020820190506127975f830184612775565b92915050565b5f81519050919050565b5f82825260208201905092915050565b5f5b838110156127d45780820151818401526020810190506127b9565b5f8484015250505050565b5f601f19601f8301169050919050565b5f6127f98261279d565b61280381856127a7565b93506128138185602086016127b7565b61281c816127df565b840191505092915050565b5f6020820190508181035f83015261283f81846127ef565b905092915050565b5f73ffffffffffffffffffffffffffffffffffffffff82169050919050565b5f61287082612847565b9050919050565b61288081612866565b82525050565b5f6020820190506128995f830184612877565b92915050565b6128a881612866565b81146128b2575f80fd5b50565b5f813590506128c38161289f565b92915050565b5f80604083850312156128df576128de612684565b5b5f6128ec858286016128b5565b92505060206128fd858286016126ab565b9150509250929050565b5f80fd5b5f80fd5b7f4e487b71000000000000000000000000000000000000000000000000000000005f52604160045260245ffd5b612945826127df565b810181811067ffffffffffffffff821117156129645761296361290f565b5b80604052505050565b5f61297661267b565b9050612982828261293c565b919050565b5f67ffffffffffffffff8211156129a1576129a061290f565b5b6129aa826127df565b9050602081019050919050565b828183375f83830152505050565b5f6129d76129d284612987565b61296d565b9050828152602081018484840111156129f3576129f261290b565b5b6129fe8482856129b7565b509392505050565b5f82601f830112612a1a57612a19612907565b5b8135612a2a8482602086016129c5565b91505092915050565b5f8060408385031215612a4957612a48612684565b5b5f612a56858286016128b5565b925050602083013567ffffffffffffffff811115612a7757612a76612688565b5b612a8385828601612a06565b9150509250929050565b612a968161268c565b82525050565b5f602082019050612aaf5f830184612a8d565b92915050565b5f8060408385031215612acb57612aca612684565b5b5f612ad8858286016126ab565b9250506020612ae9858286016128b5565b9150509250929050565b5f805f60608486031215612b0a57612b09612684565b5b5f612b17868287016128b5565b9350506020612b28868287016128b5565b9250506040612b39868287016126ab565b9150509250925092565b5f81519050919050565b5f82825260208201905092915050565b5f819050602082019050919050565b612b758161268c565b82525050565b5f612b868383612b6c565b60208301905092915050565b5f602082019050919050565b5f612ba882612b43565b612bb28185612b4d565b9350612bbd83612b5d565b805f5b83811015612bed578151612bd48882612b7b565b9750612bdf83612b92565b925050600181019050612bc0565b5085935050505092915050565b5f6020820190508181035f830152612c128184612b9e565b905092915050565b5f60208284031215612c2f57612c2e612684565b5b5f612c3c848285016128b5565b91505092915050565b5f81519050919050565b5f82825260208201905092915050565b5f819050602082019050919050565b612c7781612866565b82525050565b5f612c888383612c6e565b60208301905092915050565b5f602082019050919050565b5f612caa82612c45565b612cb48185612c4f565b9350612cbf83612c5f565b805f5b83811015612cef578151612cd68882612c7d565b9750612ce183612c94565b925050600181019050612cc2565b5085935050505092915050565b5f6020820190508181035f830152612d148184612ca0565b905092915050565b612d258161276a565b8114612d2f575f80fd5b50565b5f81359050612d4081612d1c565b92915050565b5f8060408385031215612d5c57612d5b612684565b5b5f612d69858286016128b5565b9250506020612d7a85828601612d32565b9150509250929050565b5f67ffffffffffffffff821115612d9e57612d9d61290f565b5b612da7826127df565b9050602081019050919050565b5f612dc6612dc184612d84565b61296d565b905082815260208101848484011115612de257612de161290b565b5b612ded8482856129b7565b509392505050565b5f82601f830112612e0957612e08612907565b5b8135612e19848260208601612db4565b91505092915050565b5f805f8060808587031215612e3a57612e39612684565b5b5f612e47878288016128b5565b9450506020612e58878288016128b5565b9350506040612e69878288016126ab565b925050606085013567ffffffffffffffff811115612e8a57612e89612688565b5b612e9687828801612df5565b91505092959194509250565b5f8060408385031215612eb857612eb7612684565b5b5f612ec5858286016126ab565b9250506020612ed6858286016126ab565b9150509250929050565b5f8060408385031215612ef657612ef5612684565b5b5f612f03858286016128b5565b9250506020612f14858286016128b5565b9150509250929050565b7f4e6f74206f776e657200000000000000000000000000000000000000000000005f82015250565b5f612f526009836127a7565b9150612f5d82612f1e565b602082019050919050565b5f6020820190508181035f830152612f7f81612f46565b9050919050565b7f496e76616c69642070726f7065727479000000000000000000000000000000005f82015250565b5f612fba6010836127a7565b9150612fc582612f86565b602082019050919050565b5f6020820190508181035f830152612fe781612fae565b9050919050565b7f54656e616e742063616e6e6f74206265206f776e6572000000000000000000005f82015250565b5f6130226016836127a7565b915061302d82612fee565b602082019050919050565b5f6020820190508181035f83015261304f81613016565b9050919050565b7f4e487b71000000000000000000000000000000000000000000000000000000005f52602260045260245ffd5b5f600282049050600182168061309a57607f821691505b6020821081036130ad576130ac613056565b5b50919050565b7f4e487b71000000000000000000000000000000000000000000000000000000005f52601160045260245ffd5b5f6130ea8261268c565b91507fffffffffffffffffffffffffffffffffffffffffffffffffffffffffffffffff820361311c5761311b6130b3565b5b600182019050919050565b5f819050815f5260205f209050919050565b5f6020601f8301049050919050565b5f82821b905092915050565b5f600883026131837fffffffffffffffffffffffffffffffffffffffffffffffffffffffffffffffff82613148565b61318d8683613148565b95508019841693508086168417925050509392505050565b5f819050919050565b5f6131c86131c36131be8461268c565b6131a5565b61268c565b9050919050565b5f819050919050565b6131e1836131ae565b6131f56131ed826131cf565b848454613154565b825550505050565b5f90565b6132096131fd565b6132148184846131d8565b505050565b5b818110156132375761322c5f82613201565b60018101905061321a565b5050565b601f82111561327c5761324d81613127565b61325684613139565b81016020851015613265578190505b61327961327185613139565b830182613219565b50505b505050565b5f82821c905092915050565b5f61329c5f1984600802613281565b1980831691505092915050565b5f6132b4838361328d565b9150826002028217905092915050565b6132cd8261279d565b67ffffffffffffffff8111156132e6576132e561290f565b5b6132f08254613083565b6132fb82828561323b565b5f60209050601f83116001811461332c575f841561331a578287015190505b61332485826132a9565b86555061338b565b601f19841661333a86613127565b5f5b828110156133615784890151825560018201915060208501945060208101905061333c565b8683101561337e578489015161337a601f89168261328d565b8355505b6001600288020188555050505b505050505050565b7f4f6e6c79206f776e65722063616e20617070726f7665000000000000000000005f82015250565b5f6133c76016836127a7565b91506133d282613393565b602082019050919050565b5f6020820190508181035f8301526133f4816133bb565b9050919050565b7f4e487b71000000000000000000000000000000000000000000000000000000005f52603260045260245ffd5b7f526571756573746572206e6f7420666f756e64000000000000000000000000005f82015250565b5f61345c6013836127a7565b915061346782613428565b602082019050919050565b5f6020820190508181035f83015261348981613450565b9050919050565b5f6060820190506134a35f830186612877565b6134b06020830185612a8d565b6134bd6040830184612877565b949350505050565b5f6040820190506134d85f830185612877565b6134e56020830184612a8d565b9392505050565b5f81905092915050565b5f6135008261279d565b61350a81856134ec565b935061351a8185602086016127b7565b80840191505092915050565b5f61353182856134f6565b915061353d82846134f6565b91508190509392505050565b5f81519050919050565b5f82825260208201905092915050565b5f61356d82613549565b6135778185613553565b93506135878185602086016127b7565b613590816127df565b840191505092915050565b5f6080820190506135ae5f830187612877565b6135bb6020830186612877565b6135c86040830185612a8d565b81810360608301526135da8184613563565b905095945050505050565b5f815190506135f381612715565b92915050565b5f6020828403121561360e5761360d612684565b5b5f61361b848285016135e5565b91505092915050565b7f4e487b71000000000000000000000000000000000000000000000000000000005f52601260045260245ffd5b5f61365b8261268c565b91506136668361268c565b925082820390508181111561367e5761367d6130b3565b5b92915050565b7f4e487b71000000000000000000000000000000000000000000000000000000005f52603160045260245ffdfea264697066735822122029347ff68ae39bd140e74c009a81a101de30033486de36bdf14977d6953fb4e464736f6c63430008140033","linkReferences":{}},"methodIdentifiers":{"approve(address,uint256)":"095ea7b3","approveLease(uint256,address)":"1d0e365d","balanceOf(address)":"70a08231","burnProperty(uint256)":"01d177f1","getAllProperties()":"3d51402c","getApproved(uint256)":"081812fc","getPendingRequests(uint256)":"9cbdf593","getPropertiesByOwner(address)":"9fcb2748","isApprovedForAll(address,address)":"e985e9c5","leaseApproved(uint256)":"92ac85b9","metadataCID(uint256)":"ee76c905","mintProperty(address,string)":"177dc17f","name()":"06fdde03","nextId()":"61b8ce8c","ownerOf(uint256)":"6352211e","pendingRequests(uint256,uint256)":"c801dacc","requestLease(uint256)":"03bf86d4","safeTransferFrom(address,address,uint256)":"42842e0e","safeTransferFrom(address,address,uint256,bytes)":"b88d4fde","setApprovalForAll(address,bool)":"a22cb465","supportsInterface(bytes4)":"01ffc9a7","symbol()":"95d89b41","tokenByIndex(uint256)":"4f6ccce7","tokenOfOwnerByIndex(address,uint256)":"2f745c59","tokenURI(uint256)":"c87b56dd","totalSupply()":"18160ddd","transferFrom(address,address,uint256)":"23b872dd"},"id":2}