{
  "_format": "hh-sol-artifact-1",
  "contractName": "PropertyRegistry",
  "sourceName": "contracts/PropertyRegistry.sol",
  "abi": [
    {
      "inputs": [],
      "stateMutability": "nonpayable",
      "type": "constructor"
    },
    {
      "inputs": [
        {
          "internalType": "address",
          "name": "sender",
          "type": "address"
        },
        {
          "internalType": "uint256",
          "name": "tokenId",
          "type": "uint256"
        },
        {
          "internalType": "address",
          "name": "owner",
          "type": "address"
        }
      ],
      "name": "ERC721IncorrectOwner",
      "type": "error"
    },
    {
      "inputs": [
        {
          "internalType": "address",
          "name": "operator",
          "type": "address"
        },
        {
          "internalType": "uint256",
          "name": "tokenId",
          "type": "uint256"
        }
      ],
      "name": "ERC721InsufficientApproval",
      "type": "error"
    },
    {
      "inputs": [
        {
          "internalType": "address",
          "name": "approver",
          "type": "address"
        }
      ],
      "name": "ERC721InvalidApprover",
      "type": "error"
    },
    {
      "inputs": [
        {
          "internalType": "address",
          "name": "operator",
          "type": "address"
        }
      ],
      "name": "ERC721InvalidOperator",
      "type": "error"
    },
    {
      "inputs": [
        {
          "internalType": "address",
          "name": "owner",
          "type": "address"
        }
      ],
      "name": "ERC721InvalidOwner",
      "type": "error"
    },
    {
      "inputs": [
        {
          "internalType": "address",
          "name": "receiver",
          "type": "address"
        }
      ],
      "name": "ERC721InvalidReceiver",
      "type": "error"
    },
    {
      "inputs": [
        {
          "internalType": "address",
          "name": "sender",
          "type": "address"
        }
      ],
      "name": "ERC721InvalidSender",
      "type": "error"
    },
    {
      "inputs": [
        {
          "internalType": "uint256",
          "name": "tokenId",
          "type": "uint256"
        }
      ],
      "name": "ERC721NonexistentToken",
      "type": "error"
    },
    {
      "inputs": [
        {
          "internalType": "address",
          "name": "owner",
          "type": "address"
        }
      ],
      "name": "OwnableInvalidOwner",
      "type": "error"
    },
    {
      "inputs": [
        {
          "internalType": "address",
          "name": "account",
          "type": "address"
        }
      ],
      "name": "OwnableUnauthorizedAccount",
      "type": "error"
    },
    {
      "anonymous": false,
      "inputs": [
        {
          "indexed": true,
          "internalType": "address",
          "name": "owner",
          "type": "address"
        },
        {
          "indexed": true,
          "internalType": "address",
          "name": "approved",
          "type": "address"
        },
        {
          "indexed": true,
          "internalType": "uint256",
          "name": "tokenId",
          "type": "uint256"
        }
      ],
      "name": "Approval",
      "type": "event"
    },
    {
      "anonymous": false,
      "inputs": [
        {
          "indexed": true,
          "internalType": "address",
          "name": "owner",
          "type": "address"
        },
        {
          "indexed": true,
          "internalType": "address",
          "name": "operator",
          "type": "address"
        },
        {
          "indexed": false,
          "internalType": "bool",
          "name": "approved",
          "type": "bool"
        }
      ],
      "name": "ApprovalForAll",
      "type": "event"
    },
    {
      "anonymous": false,
      "inputs": [
        {
          "indexed": true,
          "internalType": "address",
          "name": "previousOwner",
          "type": "address"
        },
        {
          "indexed": true,
          "internalType": "address",
          "name": "newOwner",
          "type": "address"
        }
      ],
      "name": "OwnershipTransferred",
      "type": "event"
    },
    {
      "anonymous": false,
      "inputs": [
        {
          "indexed": true,
          "internalType": "address",
          "name": "from",
          "type": "address"
        },
        {
          "indexed": true,
          "internalType": "address",
          "name": "to",
          "type": "address"
        },
        {
          "indexed": true,
          "internalType": "uint256",
          "name": "tokenId",
          "type": "uint256"
        }
      ],
      "name": "Transfer",
      "type": "event"
    },
    {
      "inputs": [
        {
          "internalType": "address",
          "name": "to",
          "type": "address"
        },
        {
          "internalType": "uint256",
          "name": "tokenId",
          "type": "uint256"
        }
      ],
      "name": "approve",
      "outputs": [],
      "stateMutability": "nonpayable",
      "type": "function"
    },
    {
      "inputs": [
        {
          "internalType": "address",
          "name": "owner",
          "type": "address"
        }
      ],
      "name": "balanceOf",
      "outputs": [
        {
          "internalType": "uint256",
          "name": "",
          "type": "uint256"
        }
      ],
      "stateMutability": "view",
      "type": "function"
    },
    {
      "inputs": [
        {
          "internalType": "uint256",
          "name": "tokenId",
          "type": "uint256"
        }
      ],
      "name": "getApproved",
      "outputs": [
        {
          "internalType": "address",
          "name": "",
          "type": "address"
        }
      ],
      "stateMutability": "view",
      "type": "function"
    },
    {
      "inputs": [
        {
          "internalType": "address",
          "name": "owner",
          "type": "address"
        },
        {
          "internalType": "address",
          "name": "operator",
          "type": "address"
        }
      ],
      "name": "isApprovedForAll",
      "outputs": [
        {
          "internalType": "bool",
          "name": "",
          "type": "bool"
        }
      ],
      "stateMutability": "view",
      "type": "function"
    },
    {
      "inputs": [
        {
          "internalType": "uint256",
          "name": "",
          "type": "uint256"
        }
      ],
      "name": "metadataCID",
      "outputs": [
        {
          "internalType": "string",
          "name": "",
          "type": "string"
        }
      ],
      "stateMutability": "view",
      "type": "function"
    },
    {
      "inputs": [
        {
          "internalType": "address",
          "name": "to",
          "type": "address"
        },
        {
          "internalType": "string",
          "name": "cid",
          "type": "string"
        }
      ],
      "name": "mintProperty",
      "outputs": [
        {
          "internalType": "uint256",
          "name": "",
          "type": "uint256"
        }
      ],
      "stateMutability": "nonpayable",
      "type": "function"
    },
    {
      "inputs": [],
      "name": "name",
      "outputs": [
        {
          "internalType": "string",
          "name": "",
          "type": "string"
        }
      ],
      "stateMutability": "view",
      "type": "function"
    },
    {
      "inputs": [],
      "name": "nextId",
      "outputs": [
        {
          "internalType": "uint256",
          "name": "",
          "type": "uint256"
        }
      ],
      "stateMutability": "view",
      "type": "function"
    },
    {
      "inputs": [],
      "name": "owner",
      "outputs": [
        {
          "internalType": "address",
          "name": "",
          "type": "address"
        }
      ],
      "stateMutability": "view",
      "type": "function"
    },
    {
      "inputs": [
        {
          "internalType": "uint256",
          "name": "tokenId",
          "type": "uint256"
        }
      ],
      "name": "ownerOf",
      "outputs": [
        {
          "internalType": "address",
          "name": "",
          "type": "address"
        }
      ],
      "stateMutability": "view",
      "type": "function"
    },
    {
      "inputs": [],
      "name": "renounceOwnership",
      "outputs": [],
      "stateMutability": "nonpayable",
      "type": "function"
    },
    {
      "inputs": [
        {
          "internalType": "address",
          "name": "from",
          "type": "address"
        },
        {
          "internalType": "address",
          "name": "to",
          "type": "address"
        },
        {
          "internalType": "uint256",
          "name": "tokenId",
          "type": "uint256"
        }
      ],
      "name": "safeTransferFrom",
      "outputs": [],
      "stateMutability": "nonpayable",
      "type": "function"
    },
    {
      "inputs": [
        {
          "internalType": "address",
          "name": "from",
          "type": "address"
        },
        {
          "internalType": "address",
          "name": "to",
          "type": "address"
        },
        {
          "internalType": "uint256",
          "name": "tokenId",
          "type": "uint256"
        },
        {
          "internalType": "bytes",
          "name": "data",
          "type": "bytes"
        }
      ],
      "name": "safeTransferFrom",
      "outputs": [],
      "stateMutability": "nonpayable",
      "type": "function"
    },
    {
      "inputs": [
        {
          "internalType": "address",
          "name": "operator",
          "type": "address"
        },
        {
          "internalType": "bool",
          "name": "approved",
          "type": "bool"
        }
      ],
      "name": "setApprovalForAll",
      "outputs": [],
      "stateMutability": "nonpayable",
      "type": "function"
    },
    {
      "inputs": [
        {
          "internalType": "bytes4",
          "name": "interfaceId",
          "type": "bytes4"
        }
      ],
      "name": "supportsInterface",
      "outputs": [
        {
          "internalType": "bool",
          "name": "",
          "type": "bool"
        }
      ],
      "stateMutability": "view",
      "type": "function"
    },
    {
      "inputs": [],
      "name": "symbol",
      "outputs": [
        {
          "internalType": "string",
          "name": "",
          "type": "string"
        }
      ],
      "stateMutability": "view",
      "type": "function"
    },
    {
      "inputs": [
        {
          "internalType": "uint256",
          "name": "tokenId",
          "type": "uint256"
        }
      ],
      "name": "tokenURI",
      "outputs": [
        {
          "internalType": "string",
          "name": "",
          "type": "string"
        }
      ],
      "stateMutability": "view",
      "type": "function"
    },
    {
      "inputs": [
        {
          "internalType": "address",
          "name": "from",
          "type": "address"
        },
        {
          "internalType": "address",
          "name": "to",
          "type": "address"
        },
        {
          "internalType": "uint256",
          "name": "tokenId",
          "type": "uint256"
        }
      ],
      "name": "transferFrom",
      "outputs": [],
      "stateMutability": "nonpayable",
      "type": "function"
    },
    {
      "inputs": [
        {
          "internalType": "address",
          "name": "newOwner",
          "type": "address"
        }
      ],
      "name": "transferOwnership",
      "outputs": [],
      "stateMutability": "nonpayable",
      "type": "function"
    }
  ],
  "bytecode": "0x60806040523480156200001157600080fd5b50336040518060400160405280600d81526020017f477265656e50726f7065727479000000000000000000000000000000000000008152506040518060400160405280600581526020017f4750524f50000000000000000000000000000000000000000000000000000000815250816000908162000090919062000472565b508060019081620000a2919062000472565b505050600073ffffffffffffffffffffffffffffffffffffffff168173ffffffffffffffffffffffffffffffffffffffff16036200011a5760006040517f1e4fbdf70000000000000000000000000000000000000000000000000000000081526004016200011191906200059e565b60405180910390fd5b6200012b816200013260201b60201c565b50620005bb565b6000600660009054906101000a900473ffffffffffffffffffffffffffffffffffffffff16905081600660006101000a81548173ffffffffffffffffffffffffffffffffffffffff021916908373ffffffffffffffffffffffffffffffffffffffff1602179055508173ffffffffffffffffffffffffffffffffffffffff168173ffffffffffffffffffffffffffffffffffffffff167f8be0079c531659141344cd1fd0a4f28419497f9722a3daafe3b4186f6b6457e060405160405180910390a35050565b600081519050919050565b7f4e487b7100000000000000000000000000000000000000000000000000000000600052604160045260246000fd5b7f4e487b7100000000000000000000000000000000000000000000000000000000600052602260045260246000fd5b600060028204905060018216806200027a57607f821691505b60208210810362000290576200028f62000232565b5b50919050565b60008190508160005260206000209050919050565b60006020601f8301049050919050565b600082821b905092915050565b600060088302620002fa7fffffffffffffffffffffffffffffffffffffffffffffffffffffffffffffffff82620002bb565b620003068683620002bb565b95508019841693508086168417925050509392505050565b6000819050919050565b6000819050919050565b6000620003536200034d62000347846200031e565b62000328565b6200031e565b9050919050565b6000819050919050565b6200036f8362000332565b620003876200037e826200035a565b848454620002c8565b825550505050565b600090565b6200039e6200038f565b620003ab81848462000364565b505050565b5b81811015620003d357620003c760008262000394565b600181019050620003b1565b5050565b601f8211156200042257620003ec8162000296565b620003f784620002ab565b8101602085101562000407578190505b6200041f6200041685620002ab565b830182620003b0565b50505b505050565b600082821c905092915050565b6000620004476000198460080262000427565b1980831691505092915050565b600062000462838362000434565b9150826002028217905092915050565b6200047d82620001f8565b67ffffffffffffffff81111562000499576200049862000203565b5b620004a5825462000261565b620004b2828285620003d7565b600060209050601f831160018114620004ea5760008415620004d5578287015190505b620004e1858262000454565b86555062000551565b601f198416620004fa8662000296565b60005b828110156200052457848901518255600182019150602085019450602081019050620004fd565b8683101562000544578489015162000540601f89168262000434565b8355505b6001600288020188555050505b505050505050565b600073ffffffffffffffffffffffffffffffffffffffff82169050919050565b6000620005868262000559565b9050919050565b620005988162000579565b82525050565b6000602082019050620005b560008301846200058d565b92915050565b6125ce80620005cb6000396000f3fe608060405234801561001057600080fd5b50600436106101215760003560e01c806370a08231116100ad578063b88d4fde11610071578063b88d4fde14610308578063c87b56dd14610324578063e985e9c514610354578063ee76c90514610384578063f2fde38b146103b457610121565b806370a0823114610276578063715018a6146102a65780638da5cb5b146102b057806395d89b41146102ce578063a22cb465146102ec57610121565b8063177dc17f116100f4578063177dc17f146101c057806323b872dd146101f057806342842e0e1461020c57806361b8ce8c146102285780636352211e1461024657610121565b806301ffc9a71461012657806306fdde0314610156578063081812fc14610174578063095ea7b3146101a4575b600080fd5b610140600480360381019061013b9190611a26565b6103d0565b60405161014d9190611a6e565b60405180910390f35b61015e6104b2565b60405161016b9190611b19565b60405180910390f35b61018e60048036038101906101899190611b71565b610544565b60405161019b9190611bdf565b60405180910390f35b6101be60048036038101906101b99190611c26565b610560565b005b6101da60048036038101906101d59190611d9b565b610576565b6040516101e79190611e06565b60405180910390f35b61020a60048036038101906102059190611e21565b6105ce565b005b61022660048036038101906102219190611e21565b6106d0565b005b6102306106f0565b60405161023d9190611e06565b60405180910390f35b610260600480360381019061025b9190611b71565b6106f6565b60405161026d9190611bdf565b60405180910390f35b610290600480360381019061028b9190611e74565b610708565b60405161029d9190611e06565b60405180910390f35b6102ae6107c2565b005b6102b86107d6565b6040516102c59190611bdf565b60405180910390f35b6102d6610800565b6040516102e39190611b19565b60405180910390f35b61030660048036038101906103019190611ecd565b610892565b005b610322600480360381019061031d9190611fae565b6108a8565b005b61033e60048036038101906103399190611b71565b6108cd565b60405161034b9190611b19565b60405180910390f35b61036e60048036038101906103699190612031565b610936565b60405161037b9190611a6e565b60405180910390f35b61039e60048036038101906103999190611b71565b6109ca565b6040516103ab9190611b19565b60405180910390f35b6103ce60048036038101906103c99190611e74565b610a6a565b005b60007f80ac58cd000000000000000000000000000000000000000000000000000000007bffffffffffffffffffffffffffffffffffffffffffffffffffffffff1916827bffffffffffffffffffffffffffffffffffffffffffffffffffffffff1916148061049b57507f5b5e139f000000000000000000000000000000000000000000000000000000007bffffffffffffffffffffffffffffffffffffffffffffffffffffffff1916827bffffffffffffffffffffffffffffffffffffffffffffffffffffffff1916145b806104ab57506104aa82610af0565b5b9050919050565b6060600080546104c1906120a0565b80601f01602080910402602001604051908101604052809291908181526020018280546104ed906120a0565b801561053a5780601f1061050f5761010080835404028352916020019161053a565b820191906000526020600020905b81548152906001019060200180831161051d57829003601f168201915b5050505050905090565b600061054f82610b5a565b5061055982610be2565b9050919050565b610572828261056d610c1f565b610c27565b5050565b6000610580610c39565b600060076000815461059190612100565b91905081905590506105a38482610cc0565b826008600083815260200190815260200160002090816105c391906122f4565b508091505092915050565b600073ffffffffffffffffffffffffffffffffffffffff168273ffffffffffffffffffffffffffffffffffffffff16036106405760006040517f64a0ae920000000000000000000000000000000000000000000000000000000081526004016106379190611bdf565b60405180910390fd5b6000610654838361064f610c1f565b610cde565b90508373ffffffffffffffffffffffffffffffffffffffff168173ffffffffffffffffffffffffffffffffffffffff16146106ca578382826040517f64283d7b0000000000000000000000000000000000000000000000000000000081526004016106c1939291906123c6565b60405180910390fd5b50505050565b6106eb838383604051806020016040528060008152506108a8565b505050565b60075481565b600061070182610b5a565b9050919050565b60008073ffffffffffffffffffffffffffffffffffffffff168273ffffffffffffffffffffffffffffffffffffffff160361077b5760006040517f89c62b640000000000000000000000000000000000000000000000000000000081526004016107729190611bdf565b60405180910390fd5b600360008373ffffffffffffffffffffffffffffffffffffffff1673ffffffffffffffffffffffffffffffffffffffff168152602001908152602001600020549050919050565b6107ca610c39565b6107d46000610ef8565b565b6000600660009054906101000a900473ffffffffffffffffffffffffffffffffffffffff16905090565b60606001805461080f906120a0565b80601f016020809104026020016040519081016040528092919081815260200182805461083b906120a0565b80156108885780601f1061085d57610100808354040283529160200191610888565b820191906000526020600020905b81548152906001019060200180831161086b57829003601f168201915b5050505050905090565b6108a461089d610c1f565b8383610fbe565b5050565b6108b38484846105ce565b6108c76108be610c1f565b8585858561112d565b50505050565b60606108d882610b5a565b5060006108e36112de565b90506000815111610903576040518060200160405280600081525061092e565b8061090d846112f5565b60405160200161091e929190612439565b6040516020818303038152906040525b915050919050565b6000600560008473ffffffffffffffffffffffffffffffffffffffff1673ffffffffffffffffffffffffffffffffffffffff16815260200190815260200160002060008373ffffffffffffffffffffffffffffffffffffffff1673ffffffffffffffffffffffffffffffffffffffff16815260200190815260200160002060009054906101000a900460ff16905092915050565b600860205280600052604060002060009150905080546109e9906120a0565b80601f0160208091040260200160405190810160405280929190818152602001828054610a15906120a0565b8015610a625780601f10610a3757610100808354040283529160200191610a62565b820191906000526020600020905b815481529060010190602001808311610a4557829003601f168201915b505050505081565b610a72610c39565b600073ffffffffffffffffffffffffffffffffffffffff168173ffffffffffffffffffffffffffffffffffffffff1603610ae45760006040517f1e4fbdf7000000000000000000000000000000000000000000000000000000008152600401610adb9190611bdf565b60405180910390fd5b610aed81610ef8565b50565b60007f01ffc9a7000000000000000000000000000000000000000000000000000000007bffffffffffffffffffffffffffffffffffffffffffffffffffffffff1916827bffffffffffffffffffffffffffffffffffffffffffffffffffffffff1916149050919050565b600080610b66836113c3565b9050600073ffffffffffffffffffffffffffffffffffffffff168173ffffffffffffffffffffffffffffffffffffffff1603610bd957826040517f7e273289000000000000000000000000000000000000000000000000000000008152600401610bd09190611e06565b60405180910390fd5b80915050919050565b60006004600083815260200190815260200160002060009054906101000a900473ffffffffffffffffffffffffffffffffffffffff169050919050565b600033905090565b610c348383836001611400565b505050565b610c41610c1f565b73ffffffffffffffffffffffffffffffffffffffff16610c5f6107d6565b73ffffffffffffffffffffffffffffffffffffffff1614610cbe57610c82610c1f565b6040517f118cdaa7000000000000000000000000000000000000000000000000000000008152600401610cb59190611bdf565b60405180910390fd5b565b610cda8282604051806020016040528060008152506115c5565b5050565b600080610cea846113c3565b9050600073ffffffffffffffffffffffffffffffffffffffff168373ffffffffffffffffffffffffffffffffffffffff1614610d2c57610d2b8184866115e9565b5b600073ffffffffffffffffffffffffffffffffffffffff168173ffffffffffffffffffffffffffffffffffffffff1614610dbd57610d6e600085600080611400565b6001600360008373ffffffffffffffffffffffffffffffffffffffff1673ffffffffffffffffffffffffffffffffffffffff168152602001908152602001600020600082825403925050819055505b600073ffffffffffffffffffffffffffffffffffffffff168573ffffffffffffffffffffffffffffffffffffffff1614610e40576001600360008773ffffffffffffffffffffffffffffffffffffffff1673ffffffffffffffffffffffffffffffffffffffff168152602001908152602001600020600082825401925050819055505b846002600086815260200190815260200160002060006101000a81548173ffffffffffffffffffffffffffffffffffffffff021916908373ffffffffffffffffffffffffffffffffffffffff160217905550838573ffffffffffffffffffffffffffffffffffffffff168273ffffffffffffffffffffffffffffffffffffffff167fddf252ad1be2c89b69c2b068fc378daa952ba7f163c4a11628f55a4df523b3ef60405160405180910390a4809150509392505050565b6000600660009054906101000a900473ffffffffffffffffffffffffffffffffffffffff16905081600660006101000a81548173ffffffffffffffffffffffffffffffffffffffff021916908373ffffffffffffffffffffffffffffffffffffffff1602179055508173ffffffffffffffffffffffffffffffffffffffff168173ffffffffffffffffffffffffffffffffffffffff167f8be0079c531659141344cd1fd0a4f28419497f9722a3daafe3b4186f6b6457e060405160405180910390a35050565b600073ffffffffffffffffffffffffffffffffffffffff168273ffffffffffffffffffffffffffffffffffffffff160361102f57816040517f5b08ba180000000000000000000000000000000000000000000000000000000081526004016110269190611bdf565b60405180910390fd5b80600560008573ffffffffffffffffffffffffffffffffffffffff1673ffffffffffffffffffffffffffffffffffffffff16815260200190815260200160002060008473ffffffffffffffffffffffffffffffffffffffff1673ffffffffffffffffffffffffffffffffffffffff16815260200190815260200160002060006101000a81548160ff0219169083151502179055508173ffffffffffffffffffffffffffffffffffffffff168373ffffffffffffffffffffffffffffffffffffffff167f17307eab39ab6107e8899845ad3d59bd9653f200f220920489ca2b5937696c31836040516111209190611a6e565b60405180910390a3505050565b60008373ffffffffffffffffffffffffffffffffffffffff163b11156112d7578273ffffffffffffffffffffffffffffffffffffffff1663150b7a02868685856040518563ffffffff1660e01b815260040161118c94939291906124b2565b6020604051808303816000875af19250505080156111c857506040513d601f19601f820116820180604052508101906111c59190612513565b60015b61124c573d80600081146111f8576040519150601f19603f3d011682016040523d82523d6000602084013e6111fd565b606091505b50600081510361124457836040517f64a0ae9200000000000000000000000000000000000000000000000000000000815260040161123b9190611bdf565b60405180910390fd5b805160208201fd5b63150b7a0260e01b7bffffffffffffffffffffffffffffffffffffffffffffffffffffffff1916817bffffffffffffffffffffffffffffffffffffffffffffffffffffffff1916146112d557836040517f64a0ae920000000000000000000000000000000000000000000000000000000081526004016112cc9190611bdf565b60405180910390fd5b505b5050505050565b606060405180602001604052806000815250905090565b606060006001611304846116ad565b01905060008167ffffffffffffffff81111561132357611322611c70565b5b6040519080825280601f01601f1916602001820160405280156113555781602001600182028036833780820191505090505b509050600082602083010190505b6001156113b8578080600190039150507f3031323334353637383961626364656600000000000000000000000000000000600a86061a8153600a85816113ac576113ab612540565b5b04945060008503611363575b819350505050919050565b60006002600083815260200190815260200160002060009054906101000a900473ffffffffffffffffffffffffffffffffffffffff169050919050565b80806114395750600073ffffffffffffffffffffffffffffffffffffffff168273ffffffffffffffffffffffffffffffffffffffff1614155b1561156d57600061144984610b5a565b9050600073ffffffffffffffffffffffffffffffffffffffff168373ffffffffffffffffffffffffffffffffffffffff16141580156114b457508273ffffffffffffffffffffffffffffffffffffffff168173ffffffffffffffffffffffffffffffffffffffff1614155b80156114c757506114c58184610936565b155b1561150957826040517fa9fbf51f0000000000000000000000000000000000000000000000000000000081526004016115009190611bdf565b60405180910390fd5b811561156b57838573ffffffffffffffffffffffffffffffffffffffff168273ffffffffffffffffffffffffffffffffffffffff167f8c5be1e5ebec7d5bd14f71427d1e84f3dd0314c0f7b2291e5b200ac8c7c3b92560405160405180910390a45b505b836004600085815260200190815260200160002060006101000a81548173ffffffffffffffffffffffffffffffffffffffff021916908373ffffffffffffffffffffffffffffffffffffffff16021790555050505050565b6115cf8383611800565b6115e46115da610c1f565b600085858561112d565b505050565b6115f48383836118f9565b6116a857600073ffffffffffffffffffffffffffffffffffffffff168373ffffffffffffffffffffffffffffffffffffffff160361166957806040517f7e2732890000000000000000000000000000000000000000000000000000000081526004016116609190611e06565b60405180910390fd5b81816040517f177e802f00000000000000000000000000000000000000000000000000000000815260040161169f92919061256f565b60405180910390fd5b505050565b600080600090507a184f03e93ff9f4daa797ed6e38ed64bf6a1f010000000000000000831061170b577a184f03e93ff9f4daa797ed6e38ed64bf6a1f010000000000000000838161170157611700612540565b5b0492506040810190505b6d04ee2d6d415b85acef81000000008310611748576d04ee2d6d415b85acef8100000000838161173e5761173d612540565b5b0492506020810190505b662386f26fc10000831061177757662386f26fc10000838161176d5761176c612540565b5b0492506010810190505b6305f5e10083106117a0576305f5e100838161179657611795612540565b5b0492506008810190505b61271083106117c55761271083816117bb576117ba612540565b5b0492506004810190505b606483106117e857606483816117de576117dd612540565b5b0492506002810190505b600a83106117f7576001810190505b80915050919050565b600073ffffffffffffffffffffffffffffffffffffffff168273ffffffffffffffffffffffffffffffffffffffff16036118725760006040517f64a0ae920000000000000000000000000000000000000000000000000000000081526004016118699190611bdf565b60405180910390fd5b600061188083836000610cde565b9050600073ffffffffffffffffffffffffffffffffffffffff168173ffffffffffffffffffffffffffffffffffffffff16146118f45760006040517f73c6ac6e0000000000000000000000000000000000000000000000000000000081526004016118eb9190611bdf565b60405180910390fd5b505050565b60008073ffffffffffffffffffffffffffffffffffffffff168373ffffffffffffffffffffffffffffffffffffffff16141580156119b157508273ffffffffffffffffffffffffffffffffffffffff168473ffffffffffffffffffffffffffffffffffffffff16148061197257506119718484610936565b5b806119b057508273ffffffffffffffffffffffffffffffffffffffff1661199883610be2565b73ffffffffffffffffffffffffffffffffffffffff16145b5b90509392505050565b6000604051905090565b600080fd5b600080fd5b60007fffffffff0000000000000000000000000000000000000000000000000000000082169050919050565b611a03816119ce565b8114611a0e57600080fd5b50565b600081359050611a20816119fa565b92915050565b600060208284031215611a3c57611a3b6119c4565b5b6000611a4a84828501611a11565b91505092915050565b60008115159050919050565b611a6881611a53565b82525050565b6000602082019050611a836000830184611a5f565b92915050565b600081519050919050565b600082825260208201905092915050565b60005b83811015611ac3578082015181840152602081019050611aa8565b60008484015250505050565b6000601f19601f8301169050919050565b6000611aeb82611a89565b611af58185611a94565b9350611b05818560208601611aa5565b611b0e81611acf565b840191505092915050565b60006020820190508181036000830152611b338184611ae0565b905092915050565b6000819050919050565b611b4e81611b3b565b8114611b5957600080fd5b50565b600081359050611b6b81611b45565b92915050565b600060208284031215611b8757611b866119c4565b5b6000611b9584828501611b5c565b91505092915050565b600073ffffffffffffffffffffffffffffffffffffffff82169050919050565b6000611bc982611b9e565b9050919050565b611bd981611bbe565b82525050565b6000602082019050611bf46000830184611bd0565b92915050565b611c0381611bbe565b8114611c0e57600080fd5b50565b600081359050611c2081611bfa565b92915050565b60008060408385031215611c3d57611c3c6119c4565b5b6000611c4b85828601611c11565b9250506020611c5c85828601611b5c565b9150509250929050565b600080fd5b600080fd5b7f4e487b7100000000000000000000000000000000000000000000000000000000600052604160045260246000fd5b611ca882611acf565b810181811067ffffffffffffffff82111715611cc757611cc6611c70565b5b80604052505050565b6000611cda6119ba565b9050611ce68282611c9f565b919050565b600067ffffffffffffffff821115611d0657611d05611c70565b5b611d0f82611acf565b9050602081019050919050565b82818337600083830152505050565b6000611d3e611d3984611ceb565b611cd0565b905082815260208101848484011115611d5a57611d59611c6b565b5b611d65848285611d1c565b509392505050565b600082601f830112611d8257611d81611c66565b5b8135611d92848260208601611d2b565b91505092915050565b60008060408385031215611db257611db16119c4565b5b6000611dc085828601611c11565b925050602083013567ffffffffffffffff811115611de157611de06119c9565b5b611ded85828601611d6d565b9150509250929050565b611e0081611b3b565b82525050565b6000602082019050611e1b6000830184611df7565b92915050565b600080600060608486031215611e3a57611e396119c4565b5b6000611e4886828701611c11565b9350506020611e5986828701611c11565b9250506040611e6a86828701611b5c565b9150509250925092565b600060208284031215611e8a57611e896119c4565b5b6000611e9884828501611c11565b91505092915050565b611eaa81611a53565b8114611eb557600080fd5b50565b600081359050611ec781611ea1565b92915050565b60008060408385031215611ee457611ee36119c4565b5b6000611ef285828601611c11565b9250506020611f0385828601611eb8565b9150509250929050565b600067ffffffffffffffff821115611f2857611f27611c70565b5b611f3182611acf565b9050602081019050919050565b6000611f51611f4c84611f0d565b611cd0565b905082815260208101848484011115611f6d57611f6c611c6b565b5b611f78848285611d1c565b509392505050565b600082601f830112611f9557611f94611c66565b5b8135611fa5848260208601611f3e565b91505092915050565b60008060008060808587031215611fc857611fc76119c4565b5b6000611fd687828801611c11565b9450506020611fe787828801611c11565b9350506040611ff887828801611b5c565b925050606085013567ffffffffffffffff811115612019576120186119c9565b5b61202587828801611f80565b91505092959194509250565b60008060408385031215612048576120476119c4565b5b600061205685828601611c11565b925050602061206785828601611c11565b9150509250929050565b7f4e487b7100000000000000000000000000000000000000000000000000000000600052602260045260246000fd5b600060028204905060018216806120b857607f821691505b6020821081036120cb576120ca612071565b5b50919050565b7f4e487b7100000000000000000000000000000000000000000000000000000000600052601160045260246000fd5b600061210b82611b3b565b91507fffffffffffffffffffffffffffffffffffffffffffffffffffffffffffffffff820361213d5761213c6120d1565b5b600182019050919050565b60008190508160005260206000209050919050565b60006020601f8301049050919050565b600082821b905092915050565b6000600883026121aa7fffffffffffffffffffffffffffffffffffffffffffffffffffffffffffffffff8261216d565b6121b4868361216d565b95508019841693508086168417925050509392505050565b6000819050919050565b60006121f16121ec6121e784611b3b565b6121cc565b611b3b565b9050919050565b6000819050919050565b61220b836121d6565b61221f612217826121f8565b84845461217a565b825550505050565b600090565b612234612227565b61223f818484612202565b505050565b5b818110156122635761225860008261222c565b600181019050612245565b5050565b601f8211156122a85761227981612148565b6122828461215d565b81016020851015612291578190505b6122a561229d8561215d565b830182612244565b50505b505050565b600082821c905092915050565b60006122cb600019846008026122ad565b1980831691505092915050565b60006122e483836122ba565b9150826002028217905092915050565b6122fd82611a89565b67ffffffffffffffff81111561231657612315611c70565b5b61232082546120a0565b61232b828285612267565b600060209050601f83116001811461235e576000841561234c578287015190505b61235685826122d8565b8655506123be565b601f19841661236c86612148565b60005b828110156123945784890151825560018201915060208501945060208101905061236f565b868310156123b157848901516123ad601f8916826122ba565b8355505b6001600288020188555050505b505050505050565b60006060820190506123db6000830186611bd0565b6123e86020830185611df7565b6123f56040830184611bd0565b949350505050565b600081905092915050565b600061241382611a89565b61241d81856123fd565b935061242d818560208601611aa5565b80840191505092915050565b60006124458285612408565b91506124518284612408565b91508190509392505050565b600081519050919050565b600082825260208201905092915050565b60006124848261245d565b61248e8185612468565b935061249e818560208601611aa5565b6124a781611acf565b840191505092915050565b60006080820190506124c76000830187611bd0565b6124d46020830186611bd0565b6124e16040830185611df7565b81810360608301526124f38184612479565b905095945050505050565b60008151905061250d816119fa565b92915050565b600060208284031215612529576125286119c4565b5b6000612537848285016124fe565b91505092915050565b7f4e487b7100000000000000000000000000000000000000000000000000000000600052601260045260246000fd5b60006040820190506125846000830185611bd0565b6125916020830184611df7565b939250505056fea264697066735822122022a630eb96eddf83278e6905aacbbe250c9edf29a06f739e546c24bf707e183564736f6c63430008140033",
  "linkReferences": {},
  "deployedLinkReferences": {}
}